:020000040800F2
:10000000D8090020010100083D3D00081123000827
:1000100015280008B1060008B160000800000000C3
:10002000000000000000000000000000ED5F00087C
:10003000B506000800000000A55C0008F15F00089C
:100040001B0100081B0100081B010008815F00085C
:100050001B0100081B0100081B0100081B01000810
:100060001B0100081B0100081B0100081B01000800
:100070001B0100081B0100081B0100081B010008F0
:100080001B0100081B0100081B0100081B010008E0
:100090001B0100081B0100081B0100081B010008D0
:1000A0001B010008816000081B0100081B010008FB
:1000B0008D60000899600008A56000081B01000819
:1000C0001B0100081B0100081B0100081B010008A0
:1000D0001B0100081B0100081B0100081B01000890
:1000E0001B0100081B0100081B010008DFF80CD0F1
:1000F00000F0C6FA00480047B5600008D8090020A3
:100100000648804706480047FEE7FEE7FEE7FEE7B1
:10011000FEE7FEE7FEE7FEE7FEE7FEE77D6000089C
:10012000ED000008D2B201E000F8012B491EFBD21D
:1001300070470022F6E710B513460A4604461946F2
:10014000FFF7F0FF204610BD10B5002200E0521C62
:10015000835C8C5CA34201D1002BF8D1D8B2E1B210
:10016000401A10BD2DE9FE4F804681EA0300C00F02
:100170000C46009021F0004123F00045B8EB02004E
:10018000A94105D24046214690461C460B460246F0
:1001900023F00040104347D0270DC7F30A00C3F3F4
:1001A0000A510290401A019040286BDAC3F3130001
:1001B00040F4801B0098924620B10023D2EB030A42
:1001C00063EB0B0B01985946C0F14002504600F01A
:1001D00098F906460D4650465946019A00F0B0F986
:1001E00010EB08006141002487EA115284EAE773AA
:1001F0001A4340D0009A62B3019A012A4FEA07528B
:1002000015DC001B61EB02014FF0004202EA0752CD
:10021000CDE90042001C41F5801132462B4600F02A
:10022000B0F903B0BDE8F08F40462146F9E7001B66
:1002300061EB0201001C41F5801300185B4120189E
:10024000A2F5001747EB030140EAD570B6196D41DE
:1002500011E06D084FEA360645EAC0754FEA0752CD
:10026000001B61EB0201001C41F5801149084FEAB7
:1002700030000019514132462B4603B0BDE8F04F23
:1002800000F070B90098012240000023D0EB020278
:1002900063EBE073009821464FEAE074B8EB00008E
:1002A00061EB0401E9E783F000435BE781F0004183
:1002B00058E72DE9FE4F81EA030404F0004421F0E1
:1002C000004100944FF0000B23F0004350EA01047A
:1002D0005ED052EA03045BD0C3F30A54C1F30A555B
:1002E0002C44A4F2F3340194A0FB0254C1F3130193
:1002F00041F48011C3F3130343F4801301FB024460
:1003000000FB034E840A970A44EA815447EA835764
:10031000A4FB076802958D0A05FB07854FEA932C1D
:1003200004FB0C542705029D4FEA065847EA16378E
:10033000B5EB08056EEB070C870E920E47EA8117A6
:1003400042EA8312A7FB0201B6EB0B0164EB000447
:100350002B0D43EA0C335E1844EB1C50DA46514631
:10036000E7FB0201C5F313044FEA0B3343EA1453CE
:100370004FEA0432019C43EA0603A4F10C04029400
:10038000009CCDE900B400F0FCF803B0BDE8F08FAC
:1003900000200146F9E72DE9F04D81EA030404F05D
:1003A000004B21F0004514464FF0000A23F00041B5
:1003B00050EA050220D054EA01021DD0C5F30A57C5
:1003C0000246C5F31303C1F31300C1F30A5640F408
:1003D000801543F48013A7EB0608101BD64608F2DD
:1003E000FD3873EB050002D308F1010801E0921813
:1003F0005B41B8F1000F03DA00200146BDE8F08D43
:1004000000204FF48011064684460EE0171B73EB64
:10041000050705D3121B63EB050306434CEA010CE9
:1004200049084FEA300092185B4150EA0107EDD1CC
:1004300052EA030012D082EA040083EA050108436D
:1004400005D0101BAB4106D20122002306E000229A
:100450004FF0004302E06FF0010253101AEB060068
:100460004CEB085110EB0A0041EB0B01BDE8F04DDD
:1004700000F078B830B50B46014600202022012458
:1004800009E021FA02F59D4205D303FA02F5491B62
:1004900004FA02F52844151EA2F10102F1DC30BD78
:1004A0002DE9F05F0546002092469B4688460646A9
:1004B000814640241BE0284641464746224600F03C
:1004C0002FF853465A46C01A914110D31146184688
:1004D000224600F016F82D1A67EB01084F46224617
:1004E0000120002100F00DF817EB00094E41201EFD
:1004F000A4F10104DFDC484631462A464346BDE804
:10050000F09F202A04DB203A00FA02F10020704715
:100510009140C2F1200320FA03F319439040704741
:10052000202A04DB203A21FA02F00021704721FA48
:1005300002F3D040C2F120029140084319467047AF
:10054000202A06DBCB17203A41FA02F043EAE07397
:1005500006E041FA02F3D040C2F120029140084384
:100560001946704710B5141E73F1000408DA401CD8
:1005700041F1000192185B411A4301D120F00100C2
:1005800010BD2DE9F04D92469B4611B1B1FA81F2B2
:1005900002E0B0FA80F220329046FFF7B2FF044644
:1005A0000F4640EA0A0041EA0B0153465A46084307
:1005B00013D0114653EA010019D0C8F14002504649
:1005C000FFF7AEFF05460E46504659464246FFF736
:1005D00098FF084305D0012004E020463946BDE8D5
:1005E000F08D0020054346EAE0762C4337430A9815
:1005F0006305E40AA0EB08000022FD0A44EA475420
:100600000A3002D500200146E9E7010510196941C9
:10061000DDE9084500196941BDE8F04DA2E7C1F3E5
:100620000A52C1F3130140F2FF3341F480119A42A0
:1006300002DA00200146704740F233439A42A2F2A8
:10064000334202DC5242FFF76BBFFFF75ABF000094
:1006500030B5041E71F1000404DB4FF00044404249
:1006600064EB0101141E73F1000405DB1C464FF01E
:100670000043524263EB0403994208BF904230BDED
:100680001CB509480090094801900546009C06E009
:10069000E06840F0010394E8070098471034AC424A
:1006A000F6D3FFF727FD0000FC7700081C78000850
:1006B000FEE7000070470000EFF3108072B600BF45
:1006C000FEE700002DE9F04F82B00E68002E00F02A
:1006D000FD8041F20042C4F20102042340F2004EC8
:1006E000904208BF03234FF6FF7CC4F2010E009333
:1006F00000240123C1F2100C4FF0000A4FF0000952
:100700004BE000BF41F20002C4F20102009F9042A0
:1007100008BF022704F00C030F229A402BEA0202C2
:1007200007FA03F34FEA9A051A4346F825204E6864
:1007300040F20C45F202DEF8082054BF22EA08021B
:1007400042EA0802C4F20105CEF808202A68B30282
:1007500054BF22EA080242EA08022A60B303DEF824
:10076000042054BF22EA080242EA0802F303CEF84A
:100770000420DEF800204FF0010354BF22EA0802F3
:1007800042EA0802CEF800200E680AF1010A36FAA1
:100790000AF204F1040400F0998003FA0AFB16EA55
:1007A0000B08F1D04E68664512DC122E56D8DFE8F1
:1007B00006F0350B4D49555555555555555555551B
:1007C00055555545510000BFD1F80C9046E000BF8B
:1007D0004FF6FF72C1F2210296420FDC0022C1F2F5
:1007E000110296421AD00022C1F21202964215D08E
:1007F0000022C1F22102964210D02FE00022C1F265
:10080000220296420AD00022C1F23102964205D05D
:100810000022C1F23202964220D100BF8A684AB15A
:10082000012A14BFC0F814B0C0F810B04FF0080986
:1008300014E000BF4FF0040910E000BFCA6802F1E5
:1008400004090BE04FF0000908E000BFCA6802F19C
:10085000080903E0CA6802F10C0900BF02462646F7
:10086000B8F5807F24BF0432203E17680F25B540BD
:1008700027EA050509FA06F635431560CA79D20656
:100880007FF582AF41F21803C4F202031A68AEF595
:100890007E7642F001021A601A6802F001020192AB
:1008A000019A2AF0030256F802B040F60002C4F2A0
:1008B0000102904208D040F60042C4F20102904288
:1008C0007FF420AF012725E7002723E702B0BDE82A
:1008D000F08F00008068084018BF012070470000BA
:1008E000002A08BF090401617047000040F2D4509B
:1008F000C2F200000068704740F2000040F2D4519C
:10090000C2F20000C2F2000100780A6810440860D8
:100910007047000080B542F20000C4F20200016896
:1009200041F010010160032000F08CF80F2000F06E
:1009300005F800F027F8002080BD000070B540F2F7
:100940000006C2F2000640F220013278C2F2000135
:100950004FF47A730968B3FBF2F20446B1FBF2F18B
:10096000084601F0BFF80F2C4FF0010508D838B940
:100970004FF0FF3021460022002500F037F8746068
:10098000284670BD82B041F21800C4F2020001682E
:10099000022241F001010160016801F001010191B1
:1009A0000199416841F080514160406800F08050F9
:1009B000009000980420C4F20100016862F31A61FB
:1009C000016002B070470000002848BF704700F087
:1009D0001F01012202FA01F11C2202EAD0004EF2AC
:1009E0000012CEF2000281507047000010B54EF6A2
:1009F0000C5CCEF2000CDCF80030C3F3022E8EF05B
:100A00000704042C28BF0424BEF103034FF0FF3E6B
:100A10000EFA04F438BF0023A14399400EFA03F301
:100A20009A43114300F00F0200F160430901043AB8
:100A300003F564436244002848BF02F10C031970B7
:100A400010BD00004EF60C51CEF200010A684FF6C0
:100A5000FF031A4060F30A2242F0806040F0FD700C
:100A6000086070472020C4F20E2001210160704709
:100A7000012821D002280DD0102808D141F204010C
:100A8000C4F202010A6851F8040CC00134D40020F9
:100A9000704700BF80B500F0E3F941F20401C4F2F1
:100AA000020109680222C1F3813102EB4101B0FB6E
:100AB000F1F0BDE88040704741F20400C4F202004A
:100AC000C16940F202320A40B2F5817F04BF4FF49F
:100AD0000040704701F44071B1F5407F18D0B1F586
:100AE000007F1CBF00207047006A49F64041800724
:100AF00001EAE070704700BFC2F3834015A3185CA1
:100B0000D2030DD440F60012C0F23D02504313E070
:100B100050F8040C4FF22441800301EAE070704762
:100B20000A6810A3C2F340429A5C41F20023C0F26B
:100B30007A03B3FBF2F250430968490248BF704799
:100B40004AF6AB214000CAF6AA21A0FB01014808E1
:100B5000704700BF02030405060708090A0B0C0DC5
:100B60000E0F1010010200002DE9F04182B0044682
:100B7000007841F21C06C007C4F202064AD0306871
:100B80005FEAC00808D4306840F0805030603068B8
:100B900000F080500190019847F20007C4F200076E
:100BA0003868C00512D4386840F480703860FFF7A8
:100BB0009DFE05463868C00508D4FFF797FE401B28
:100BC0006428F7D9032002B0BDE8F081706810F402
:100BD000407012D0616801F4407188420DD0706895
:100BE00040F24042C4F24222012320F440711360DB
:100BF0000023C0071360716026D17068616820F41B
:100C000040700843B8F1000F706003D4306820F0E2
:100C1000805030602068810707D556F8181CA268FC
:100C200021F44041114346F8181CC00607D556F878
:100C3000180CE16820F48000084346F8180C0020E6
:100C400002B0BDE8F08100BFFFF750FE054641F25B
:100C5000883700BF70688007CFD4FFF747FE401B7E
:100C6000B8424FF00300F5D9EAE7000070470000F2
:100C7000002804BF012070472DE9F04381B042F203
:100C80000008C4F202080446D8F800000D4600F03F
:100C9000070081420CD9D8F8000020F00700284353
:100CA000C8F80000D8F8000000F00700A8426CD196
:100CB000206841F204098107C4F2020917D54107EF
:100CC00005D5D9F8001041F4E061C9F8001001071A
:100CD00005D5D9F8001041F46051C9F80010D9F8D1
:100CE0000010A26821F0F0011143C9F80010C007FC
:100CF00042D1D8F8000000F0070085420CD2D8F8A5
:100D0000000020F007002843C8F80000D8F80000D1
:100D100000F00700A84238D12068410707D5D9F86C
:100D20000010E26821F4E0611143C9F800100007E7
:100D300008D5D9F80000216920F4605040EAC100CC
:100D4000C9F80000D9F8002002F00C00082841F290
:100D50000020C0F27A004DD147F2D363C2F3834141
:100D6000C0F60003595CD20338D440F60010C0F23C
:100D70003D0048433EE000BF606859F8041C02286B
:100D800008D0012826D1890306D4012001B0BDE88E
:100D9000F08300BF8901F8D5D9F8001021F00301D4
:100DA0000843C9F80000FFF7A1FD064641F2883765
:100DB000D9F80000616800F00C00B0EB810F98D00A
:100DC000FFF794FD801BB842F2D9032001B0BDE8C3
:100DD000F08300BF8907D8D5DEE700BFD9F800202F
:100DE00046F62C23C2F34042C0F600039A5C484307
:100DF000B0FBF2F0D9F8001046F61422C1F303114B
:100E0000C0F60002515C40F2200220FA01F140F2EB
:100E10000400C2F200000068C2F200021160FFF795
:100E20008DFD002001B0BDE8F08300004C20C4F22D
:100E3000422001210160704740F2200041F204018C
:100E4000C2F20000C4F202010068096846F62422DA
:100E5000C1F30221C0F60002515CC8407047000097
:100E600040F2200041F20401C2F20000C4F202018B
:100E70000068096846F62422C1F3C221C0F60002C8
:100E8000515CC8407047000010B541F20804C4F23C
:100E900002042068000658BF10BDFFF7E7FE80205F
:100EA000A07010BD002804BF012070472DE9F0415B
:100EB00082B00446007841F20006C007C4F2020680
:100EC0000CD0706800F00C00042840F0818030687D
:100ED000800303D56068002800F0468120788007F1
:100EE0001BD5706810F00C0F09D0706800F00C0072
:100EF000082840F087807068C00300F18380306864
:100F0000800703D52069012840F02E81306861698F
:100F100020F0F80040EAC10030602078000713D4C8
:100F2000207840072CD4E569002D00F01881706806
:100F300000F00C00082840F0A780012D40F004814B
:100F4000012002B0BDE8F081A069002800F0848093
:100F50000020C4F242200121C0F88014FFF7C6FC33
:100F6000054600BF706A800700F1B280FFF7BEFC43
:100F7000401B0228F6D9032002B0BDE8F08100BF73
:100F8000F0695FEAC00808D4F06940F08050F06171
:100F9000F06900F080500090009847F20007C4F21A
:100FA00000073868C00549D4386840F4807038605C
:100FB000FFF79CFC054600BF3868C0053ED4FFF72C
:100FC00095FC401B6428F7D9032002B0BDE8F081EE
:100FD000706800F00C00082803D17068C0033FF56A
:100FE00076AF61683068002900F00C81B1F5A02F60
:100FF00000F00081B1F5803F40F01A8140F480306C
:101000001CE100BF2069002840F20000C4F2422029
:1010100000F0888001210160FFF768FC054600BFF1
:10102000306880073FF572AFFFF760FC401B022875
:10103000F6D9032002B0BDE8F08100BFE168306A54
:10104000002900F09D80052900F09280012940F0E0
:10105000AF8040F00100B1E00020C4F24220002146
:10106000C0F88014FFF742FC054600BF706A800795
:101070007FF556AFFFF73AFC401B0228F6D9032054
:1010800002B0BDE8F08100BF0027C4F24227002073
:101090003866FFF72BFC022D05460DD13068800124
:1010A00040F1DE80FFF722FC401B02284FF00300D6
:1010B000F4D902B0BDE8F081306880014FD5FFF768
:1010C00015FC401B02284FF00300F5D9F1E700BFE3
:1010D00040F22000C2F20000006844F6D351C1F291
:1010E0006201A0FB0101480A019000BF00BF019806
:1010F000411E002801913FF413AF00BF0198411E2B
:10110000002801913FF40CAF00BF0198411E002858
:1011100001913FF405AF00BF0198411E00280191E5
:10112000E4D1FDE600210160FFF7E0FB054600BFCA
:10113000306880077FF5F1AEFFF7D8FB401B02282F
:101140004FF00300F4D9B4E77068216A00F48032EC
:101150008A4209D1616A00F47010884204D10020EB
:1011600002B0BDE8F08100BF012002B0BDE8F0810F
:1011700040F004003062306A40F001001EE000BF21
:1011800020F001003062306A20F004003062FFF786
:10119000ADFB054641F28837306A800720D5FFF75E
:1011A000A5FB401BB8424FF00300F5D981E700BF13
:1011B00020F001003062306A20F004003062FFF756
:1011C00095FB054641F28837306A800708D4FFF75F
:1011D0008DFB401BB842F7D9032002B0BDE8F08177
:1011E000B8F1000F3FF59FAEF06920F08050F0613C
:1011F00099E600BF40F480203060306840F48030D1
:101200001CE000BF20F480303060306820F4802083
:101210003060FFF76BFB0546306880037FF55EAEFC
:10122000FFF764FB401B64284FF00300F4D940E74C
:1012300020F480303060306820F480203060FFF788
:1012400055FB0546306880033FF548AEFFF74EFB7F
:10125000401B6428F6D9032002B0BDE8F08100BF2E
:10126000206AB0F5803F05D17168A26821F4003191
:10127000114371607168626A21F47411114308436B
:10128000706001203866FFF731FB0446306880014A
:101290003FF565AFFFF72AFB001B02284FF0030064
:1012A000F4D906E746F60040C4F2000050F82100E9
:1012B00080B2704790B246F60042C4F2000242F893
:1012C00021007047016842F60002C4F20002914218
:1012D00018BF704770B540F22805C2F20005691CBE
:1012E00001220446012600F097F8291D204601221C
:1012F00000F02CF82E70BDE8704070477047000079
:1013000001680A68D2071CBF4A685FEAC27201D14D
:10131000704700BF10B549680446490706D4FFF777
:10132000D1FF01206074206808E000BFFFF7E6FFEE
:1013300020686FF00401416004216174416821F06C
:1013400001014160BDE810407047000070B582B0F7
:10135000034600208DF80600ADF80400002B4FF086
:10136000010018BF002901D102B070BD14460D461E
:1013700001A9184600221E4600F04EF810B10120C7
:1013800002B070BD96F80CC0727BB07BF37B85F821
:1013900000C0EB706A70A870D4B32946A3F10A05A7
:1013A000ECB24FF0CD0C04FB0CF4E40A04EB840621
:1013B000A5EB4605A2F10A0605EB0414F5B205FB00
:1013C0000CF55FFA83FEED0ABEF1090F88BF04F148
:1013D000100305EB8504CB70D3B2A6EB440606EBF5
:1013E0000516092BA0F10A0388BF06F11002DEB230
:1013F00006FB0CF6F60A06EB86054A70C2B2A3EBB2
:10140000450303EB0613092A88BF03F11000887017
:10141000002002B070BD00002DE9F047064600280C
:101420004FF0010000F0AE800C46002908BFBDE877
:10143000F08730684168490700F1E0809146826991
:10144000C169836992B29BB29A4203D189B241EADF
:10145000024103E0C16989B241EA03414BF2C5325E
:10146000C9F2A212A1FB0223DA0A4FF4616302FB64
:10147000131348F689059FB26F437D0D65702D01EA
:10148000A5EB5757A3EB870345F28017C0F201077E
:10149000B942A37036D344F20753CCF22E23A1FBFA
:1014A00003374AF6AB23C0F6AA23A2FB033505EBAC
:1014B0004503A2EBC3022270026A406A4FEA174852
:1014C00080B240EA0240451A98BF4FF0FF35421CF7
:1014D0004AF68062CFF6FE7208FB021A08BF054684
:1014E000FFF704FA074600BF3068416889064BD40D
:1014F000FFF7FCF9C01BB0F57A7FF5D90120BDE8F4
:10150000F08700BF2270B9F1000F3AD021784FF078
:10151000CD0CA1F10A07FEB206FB0CF6F60A6278C2
:1015200006EB8605CBB2A7EB450707EB0617092BA1
:10153000A2F10A03A07888BF07F11001DFB207FB10
:101540000CF7FF0A07EB87062170D1B2A3EB460325
:1015500003EB0713092988BF03F110026270A0F1A1
:101560000A02D3B203FB0CF3DB0A03EB8307C1B21D
:10157000A2EB470202EB0312092988BF02F1100017
:10158000A0700020BDE8F087416841F01001416083
:101590004FEA1A4181611FFA8AF1C161416821F065
:1015A00010014160FFF7A2F9074600BF30684068AC
:1015B000800609D4FFF79AF9C01BB0F57A7FF5D9F8
:1015C0000120BDE8F08700BF681C11D05544FFF72B
:1015D0008DF9074630684168890613D4FFF786F90C
:1015E000C01BB0F57A7F4FF00100F3D9CAE700BF06
:1015F00030464FF0FF3104F0C9FC08B30120BDE8CC
:10160000F08700BF416841F010014160290C016280
:10161000A9B24162416821F010014160FFF766F90B
:10162000074600BF30684068800609D4FFF75EF9BE
:10163000C01BB0F57A7F4FF00100F3D9A2E700BFDD
:101640003046414604F030FBB9F1000F7FF45EAF45
:1016500097E70000002804BF0120704770B50446DA
:10166000407C20B900202074204600F06BF8022056
:1016700060742068416821F008014160FFF736F985
:10168000064600BF20684568FFF730F92907054680
:101690000ED4A81BB0F57A7FF4D90120042161741F
:1016A00070BD00BFFFF722F9401BB0F57A7FF4D878
:1016B000216848688006F5D5486846F62C4240F017
:1016C000100048604868C4F2000220F0070048603B
:1016D000A06818B1536823F001035360136823F422
:1016E0006073184310606068421C05D10120FFF749
:1016F000BFF918B321680138C0F3034280B28A6091
:10170000C860486820F010004860FFF7EFF8054611
:1017100020684068800607D4FFF7E8F8401BB0F562
:101720007A7FF5D9B9E700BF40F201110020A4F893
:101730000D100121E073617470BD00BF0421012010
:10174000617470BD006842F60001C4F20001884275
:1017500018BF704780B582B0FFF784F941F21C00D2
:10176000C4F202000168002241F0006101600068DB
:10177000012100F000600190019840F23C40C4F269
:101780004220016003200021FFF730F9032002B05E
:10179000BDE88040FFF718B9F0B581B004460028D5
:1017A0004FF0010018BF002902D101B0F0BD00BF09
:1017B000207C01284FF00200F7D0012323746074CD
:1017C000CB788AB11809A0EB800003EB400348787E
:1017D0008A780709A7EB870700EB47071009A0EBFA
:1017E000800002EB400001E04F788878FEB2022EC4
:1017F000DAB2E3736773A0730AD817237B43DBB2B3
:1018000039277B435F0A02F2CF7340F2D47609E0B6
:1018100048F63E67C0F20207774302F5FA633F0CD1
:1018200040F2D276C0B21044304440F21F5500EB73
:1018300093005D433844A0EB554000EBD54082B2A5
:1018400042F293435A43A0EB12439BB25B0803EB73
:1018500012429208A2EBC2020244206822730A706C
:101860008269C169836992B29BB29A4204D188B2FB
:1018700040EA024004E000BFC06980B240EA034091
:1018800045F69071C0F2010188424FF000061BD36B
:1018900044F20751CCF22E21A0FB0112110C40F2B0
:1018A000A3225143A0EBC117FFF720F8054600BF64
:1018B0002068416889060DD4FFF718F8401BB0F581
:1018C0007A7FF5D93AE000BF0121002061742674C7
:1018D00001B0F0BD416841F010014160390C8161F7
:1018E000B9B2C161416821F010014160FEF7FEFF0D
:1018F000054600BF20684168890607D4FEF7F6FF59
:10190000401BB0F57A7FF5D918E000BF016A406A44
:1019100080B240EA0140B84234D200F5803000F590
:10192000A347FEF7E3FF05462068416889060BD40C
:10193000FEF7DCFF401BB0F57A7FF5D901200421CA
:101940006174267401B0F0BD416841F0100141603E
:10195000390C0162B9B24162416821F01001416065
:10196000FEF7C4FF05462068406880060AD4FEF7EB
:10197000BDFF411B0120B1F57A7F4FF00401F2D980
:10198000A4E700BF002001216174267401B0F0BDFE
:1019900070B5044600284FF0010018BF002901D19E
:1019A00070BD00BF207C01284FF0020008BF70BD51
:1019B0000123237460740878D2B10209A2EB820279
:1019C00000EB4200C0B24FF4616250434A7889781C
:1019D0001309A3EB830302EB4302D2B2C2EB021260
:1019E00000EB82000A09A2EB820201EB420108E04F
:1019F0004FF4616250434A788978C2EB021200EBDF
:101A00008200C9B24618FEF771FF0546206841689A
:101A1000890607D4FEF76AFF401BB0F57A7FF5D937
:101A200054E000BF416841F010014160310C816118
:101A3000B1B2C161416821F010014160FEF756FF6B
:101A4000054600BF20684168890607D4FEF74EFFAF
:101A5000401BB0F57A7FF5D938E000BF416821F02E
:101A600005014160016A406A80B240EA0140B0422B
:101A700032D200F5803000F5A346FEF737FF054669
:101A800020684168890607D4FEF730FF401BB0F597
:101A90007A7FF5D91AE000BF416841F0100141603A
:101AA000310C0162B1B24162416821F01001416024
:101AB000FEF71CFF054600BF2068406880060BD477
:101AC000FEF714FF401BB0F57A7FF5D90120042101
:101AD00061740021217470BD002001216174002116
:101AE000217470BD411E0020B0EB116F1CBF01209E
:101AF00070474EF21002CEF2000251604EF62351B2
:101B0000CEF20001F0230B70072190601160704746
:101B1000704700007047000090F83C20012A4FF009
:101B2000020236D010B580F83D200268D2F804E0F9
:101B3000D2F808C00C682EF07003234340F2FF7403
:101B4000C4F20004A24253600ADCB2F1804F13D009
:101B500040F20043C4F200039A420DD011E000BFEE
:101B600042F60043C4F201039A4205D040F6000356
:101B7000C4F200039A4204D149682CF0800319434F
:101B800091600121002280F83D1080F83C20BDE8E2
:101B90001040104670470000002804BF0120704725
:101BA00010B590F83D1031B9002180F83C10044682
:101BB00000F070F82046022180F83D10016840F2E4
:101BC000FF740B68C4F2000442F6004CA142C4F258
:101BD000010C15DCB1F1804F1AD040F20042C4F282
:101BE0000002914214D0A14218DCB1F1804F1DD007
:101BF00040F20042C4F20002914217D01AE000BF46
:101C0000614505D040F60002C4F200029142EAD1DB
:101C1000826823F070031343A142E6DD614505D0DD
:101C200040F60002C4F20002914203D1026923F49B
:101C300040731343846923F08002D0F804E0C36842
:101C4000224361450A60CB62C1F828E002D14269B3
:101C5000CCF8302001224A610B69DB0703D00B6905
:101C600023F001030B6180F8462080F83E2080F8C5
:101C70003F2080F8402080F8412080F8422080F802
:101C8000432080F8442080F8452080F83D20002043
:101C900010BD000010B582B0006840F2FF71C4F2C0
:101CA000000188421ADCB0F1804F3BD040F2004185
:101CB000C4F20001884233D141F21C00C4F2020098
:101CC0000168002241F0020101600068002100F07B
:101CD0000200019001981D201D2446E040F60001FD
:101CE000C4F2000188422FD042F60041C4F2010143
:101CF000884215D141F21C00C4F2020050F8041CC5
:101D0000002241F4006140F8041C50F8040C00214A
:101D100000F40060019001981920192425E000BF0B
:101D200002B010BD41F21C00C4F2020001680022A2
:101D300041F0010101600068032100F00100019001
:101D400001981C201C2410E041F21C00C4F2020087
:101D50000168002241F0040101600068002100F0E8
:101D60000400019001981E201E24FEF73FFE20462D
:101D700002B0BDE81040FEF727BE000090F83D100D
:101D800001291CBF01207047022180F83D10006826
:101D900040F2FF72C168C4F20002904241F00101BA
:101DA000C16009DCB0F1804F12D040F20041C4F2B2
:101DB000000188420CD012E042F60041C4F2010159
:101DC000884205D040F60001C4F20001884206D1E5
:101DD000816801F00701062904BF002070470168EF
:101DE00041F00101016000207047000001460068D9
:101DF00041F21113C26822F00102C260026A1A4263
:101E000004D00122002081F83D207047026A40F290
:101E100044431A42F5D1026822F001020260012215
:101E2000002081F83D20704790F83C20012A4FF0B7
:101E300002026CD080B580F83D20D0F800C04FF68B
:101E40007772DCF8083023EA0202CCF808200B682D
:101E50004F2B29DC1F2B45DD202B46D0302B44D0C7
:101E6000402B40F0AF80D1F804E0C968DCF82030A6
:101E7000DCF8202022F00102CCF82020DCF8182029
:101E800022F0F00242EA011123F00A0242EA0E02B5
:101E9000CCF81810CCF82020DCF8081041F04701ED
:101EA00021F0300128E000BF6F2B33DDB3F5005F78
:101EB00074D0B3F5805F21D0702B40F08380D1E9DE
:101EC00001E3C968DCF8082043EA0E0322F47F42EC
:101ED00043EA01211143CCF80810DCF8081041F066
:101EE000770109E00BB1102B6CD1DCF8081021F060
:101EF0007001194341F00701CCF8081000220121BC
:101F000080F83D10002180F83C10BDE8804010466C
:101F1000704700BF502B21D0602B53D1D1F804E083
:101F2000C968DCF82030DCF8202022F01002CCF860
:101F30002020DCF8182022F4704242EA013123F01C
:101F4000A00242EA0E12CCF81810CCF82020DCF8DF
:101F5000081041F0670121F01001CDE7D1F804E04D
:101F6000C968DCF82030DCF8202022F00102CCF82F
:101F70002020DCF8182022F0F00242EA011123F0C0
:101F80000A0242EA0E02CCF81810CCF82020DCF845
:101F9000081041F0570121F02001ADE7D1E901E33C
:101FA000C968DCF8082043EA0E0322F47F4243EAC2
:101FB00001211143CCF80810DCF8081041F48041ED
:101FC0009AE700BF01229AE77047000070B5044607
:101FD0000068C5680669B10716D515F0020113D06F
:101FE0006FF002010161012121778069800703D030
:101FF0002046FFF7E9FF05E0204600F08FF8204675
:1020000000F08EF800202077700719D515F0040035
:1020100016D020686FF004010161022121778069E8
:1020200010F4407F04D02046FFF7CEFF06E000BF4B
:10203000204600F073F8204600F072F80020207768
:10204000300717D515F0080014D020686FF008018C
:10205000016104212177C069800703D02046FFF782
:10206000B3FF05E0204600F059F8204600F058F88C
:1020700000202077F00619D515F0100016D0206842
:102080006FF01001016108212177C06910F4407FD1
:1020900004D02046FFF798FF06E000BF204600F07E
:1020A0003DF8204600F03CF800202077F00718BFEC
:1020B00015F0010002D1300609D412E020686FF05B
:1020C00001010161204600F02DF8300609D515F018
:1020D000800006D020686FF0800101612046FFF784
:1020E00017FD700609D515F0400006D020686FF086
:1020F00040010161204600F057F8B00658BF70BD9E
:1021000015F0200008D021686FF0200220460A61F7
:10211000BDE87040FFF7FEBC70BD000070470000D6
:102120007047000040F25402C2F2000211680068D9
:1021300042F60043C4F20103984201F1010111602B
:1021400006D0B0F1804F18BF704700F00DB900BF46
:1021500040F23400C2F200000278012A09D140F2B4
:102160003802C2F200021268914222BF02210170BD
:1021700070474278012A09D140F23C02C2F20002C3
:102180001268914222BF0221417070478278012A71
:1021900008D140F24002C2F200021268914224BF0C
:1021A000022181707047000070470000002804BFC2
:1021B0000120704710B5044690F8410028B900206E
:1021C00084F84000204600F063F8242084F84100A1
:1021D0002068D4E90212C36823F40053C360036982
:1021E00023F440531A430261D4E904231143C26823
:1021F000194341F20C639A431143C1604169A269DA
:1022000021F44071114343F60002C4F201029042EE
:10221000416103D0FEF710FE02E000BFFEF720FE92
:10222000D4E90023192148439900B0FBF1F048F2AA
:102230001F5CC5F2EB1CA0FB0C314FF69C734909E7
:10224000C0F6FF7301FB0300322303EB0010A0FB79
:102250000C03F02000EA531000EB0110C3F343110C
:10226000084490601069202120F49040106150696A
:1022700020F02A005061D06840F40050D060002067
:10228000606484F8411084F84210606310BD00005F
:1022900070B586B040F60004C4F20104006804F58D
:1022A0004051002688420596CDE90366029601D08A
:1022B00006B070BD41F21800C4F20200016802AD20
:1022C00041F480410160016801F48041019101996C
:1022D000016841F0040101600068294600F0040033
:1022E000019001984FF400700290022003900320A7
:1022F00005902046FEF7E6F94FF48060CDE902062E
:10230000204629460496FEF7DDF906B070BD0000B0
:10231000FEE7000040F23001C2F200010878002818
:102320001CBF00220A70704780B584B041F21800CB
:10233000C4F20200016841F00401016000686946CE
:1023400000F004000090009800200190022002900C
:10235000032003903E20009040F60000C4F20100EC
:10236000FEF7B0F904B080BDB0B540F23005C2F25E
:102370000005E8780130C1B21429E87038BFB0BD5B
:1023800040F60004A978C4F201040020E8706970E6
:1023900020460221FEF79EFA012801D101211FE00B
:1023A00020460421FEF796FA012801D1022117E008
:1023B00020460821FEF78EFA012801D103210FE003
:1023C00020461021FEF786FA012801D1042107E0FA
:1023D00020462021FEF77EFA0021012808BF0521B2
:1023E000A97019B16878002808BF2970B0BD000035
:1023F00070B586B0002541F21800CDE90455CDE94D
:102400000255C4F20200016840F6004441F0100198
:1024100001600168C4F2010401F010010191019909
:102420000168002241F02001016001684FF440562C
:1024300001F0200101910199016841F0080101605A
:10244000016801F0080101910199016841F004015E
:10245000016000684FF4405100F0040001900198C1
:102460002046FEF73DFA0120CDE903050220059044
:1024700002A920460296FEF725F906B070BD0000BD
:102480002DE9F04184B000208DF80E00ADF80C006D
:10249000029041F21C00C4F20200016841F00061A8
:1024A0000160016801F0006101910199016841F04A
:1024B00080510160006800F0805000900098FEF7A5
:1024C000D1FA40F2584042F60001C2F20000C4F2D4
:1024D00000014FF0FF324FF4807380E80E00FFF7E9
:1024E000B9F8002818BFFEF7E7F840F25840C2F2EA
:1024F00000000121FEF7D6FE45F2510188422FD19E
:1025000040F25844C2F2000420460221FEF7CAFEFF
:10251000054620460321FEF7C5FE06462046042157
:10252000FEF7C0FE074620460521FEF7BBFE8DF8EC
:10253000080002A9204601228DF809608DF80A7072
:102540008DF80B50FFF728F9002818BFFEF7B4F8F4
:102550002068016841F00101016004B0BDE8F0812C
:1025600042F21070ADF80C0033208DF80E0040F2EE
:102570005840C2F2000003A90122FFF709FA00281F
:1025800018BFFEF799F840F2052040F25844C2F215
:102590001350C2F20004029002A920460122FFF764
:1025A000FBF8002818BFFEF787F8206845F25102B3
:1025B000016841F0010101609DF808809DF8096003
:1025C0009DF80A709DF80B5020460121FEF772FE1F
:1025D000204602212A46FEF76DFE204603213246A0
:1025E000FEF768FE204604213A46FEF763FE2046C9
:1025F00005214246FEF75EFE04B0BDE8F081000012
:1026000080B586B040F26C4042F600420021C2F232
:102610000000C4F2010241F61F4342F2107C059112
:10262000CDE90311CDE90011C0E90023C0E9021C86
:10263000C0E904118161FFF7AFFA002818BFFEF767
:102640003BF84FF48050029040F26C40C2F2000020
:1026500002A9FFF7E9FB002818BFFEF72DF840F2AA
:102660006C40C2F200006946FFF756FA002818BF16
:10267000FEF722F806B080BD80B586B040F2B440C7
:102680000021C2F200004FF08042632340F2E73C99
:102690000591CDE90311CDE90011C0E90023C0E99E
:1026A000021C01618161FFF777FA002818BFFEF76D
:1026B00003F84FF48050029040F2B440C2F20000A0
:1026C00002A9FFF7B1FB002818BFFDF7F5FF40F2A4
:1026D000B440C2F200006946FFF71EFA002818BF96
:1026E000FDF7EAFF06B080BD80B586B040F2FC4041
:1026F00040F200420021C2F20000C4F2000241F6A2
:102700001F4342F2107C0591CDE90311CDE9001180
:10271000C0E90023C0E9021C01618161FFF73CFAB6
:10272000002818BFFDF7C8FF4FF48050029040F218
:10273000FC40C2F2000002A9FFF776FB002818BF98
:10274000FDF7BAFF40F2FC40C2F200006946FFF715
:10275000E3F9002818BFFDF7AFFF06B080BD000009
:1027600080B586B040F2445040F600020021C2F22B
:102770000000C4F2000241F61F4342F2107C0591B2
:10278000CDE90311CDE90011C0E90023C0E9021C25
:1027900001618161FFF700FA002818BFFDF78CFF87
:1027A0004FF48050029040F24450C2F2000002A95F
:1027B000FFF73AFB002818BFFDF77EFF40F24450B8
:1027C000C2F200006946FFF7A7F9002818BFFDF71D
:1027D00073FF06B080BD000080B540F28C5043F618
:1027E0000001C2F20000C4F2010100234FF00C0C02
:1027F0004FF4E13280E80E00C0E90333C0E905C3BD
:10280000C361FFF7D3FC002808BF80BDBDE880404E
:10281000FDF752BFFEE700002DE9F04F85B040F212
:10282000080747F24E7947F2B27547F23B76C2F29B
:102830000007C0F600094FF00008C0F600054FF091
:10284000100AC0F600064FF0800B09E08DE8000D7D
:102850000020002180221023CDF80CA001F07AFA8C
:10286000FFF758FD01282BD0032823D0052800F0BE
:102870008F803878032834D0022861D00128EFD126
:10288000002000214A46082302F0D0FF002010213A
:102890002A46082302F0CAFF0020202132460823DE
:1028A00002F0C4FF7878022868D00128D8D1CDE999
:1028B00000883FE0042001220223012104E000BF40
:1028C00003210020FF2201233C787B702244D3B2F5
:1028D000834218BF1146397001F034FA3878032862
:1028E000CAD1002000214A46082302F09FFF0020A1
:1028F00010212A46082302F099FF002020213246A9
:10290000082302F093FF787801280DD12020CDE92B
:10291000010B0020302180220023CDF80080CDF86B
:102920000CA001F017FA7878022899D12020CDF870
:102930000080019000201021CDF808B08AE700BF88
:10294000002000214A46082302F070FF00201021D9
:102950002A46082302F06AFF00202021324608237D
:1029600002F064FF787802283FF470AF01287FF40A
:1029700077AF8DE8000D002020216BE7CDE90088BE
:10298000CDF808B0002000210022002364E700BF3A
:1029900001F04CFD03F03AF801F0D4F9387805B0B5
:1029A000BDE8F08F2DE9F04F85B047F2E362C0F645
:1029B000000200200021082302F038FF40F2080640
:1029C000C2F20006337D47F26174F07AC0F600046B
:1029D000317B727B47F2C777012B2346C0F6000795
:1029E00008BF3B468DE807000020102108224FF069
:1029F000100902F097FB96F80EC0F17B727D307CD7
:102A00002346012A08BF3B46CDE900C102900020C1
:102A10002021082202F086FB96F811C0B17CB27D1D
:102A2000F07C2346012A08BF3B46CDE900C1029055
:102A300000203021082202F075FB02F0E7FF01F0D0
:102A400081F94FF000084FF0020A4FF0010B01E04E
:102A50000220307547F2E36200200021C0F6000238
:102A6000082302F0E3FEF07A317B327D757B23464A
:102A7000012A08BF3B46CDE90001002010210822B1
:102A8000029502F04FFBB07BF17B727D357C2346D3
:102A9000012A08BF3B46CDE9000100202021082281
:102AA000029502F03FFB707CB17CB27DF57C234641
:102AB000012A08BF3B46CDE9000100203021082251
:102AC000029502F02FFBFFF725FC052848D00328CC
:102AD0000CD0012814D1ABF1010B01F033F95FEAFE
:102AE0000B604FF0010A0BD1E6E000BF0BF1010BC8
:102AF0005FFA8BF501F026F9052D43D04FF0020A5D
:102B00005FFA8BF00138032834D900BF5FFA88F0F0
:102B1000013803289ED8DFE810F02B0105006B0078
:102B20004D0000BF06F10B0000F03AFC02283FF414
:102B30008FAF01287FF48EAF01203075F07A317BA2
:102B40004FF46163727B5843C1EB011100EB8100CC
:102B500040F234011044C2F2000108617AE700BF7C
:102B600001F064FC02F052FFD8465FFA8BF00138A6
:102B70000328CBD8DFE800F002825A6EBAF1020FC8
:102B800040F0C8800020CDE90000802002900020A5
:102B9000002100220023CDF80C9001F0DBF84FF06B
:102BA000020A4FF0010B5FFA88F001380328B2D90E
:102BB00050E700BF06F1110000F0F2FB02283FF4DD
:102BC00047AF01287FF446AF01203075707CB17C9F
:102BD0004FF46163F27C5843C1EB011100EB8100BB
:102BE00040F234011044C2F20001886132E700BFB4
:102BF00006F10E0000F0D4FB02283FF429AF0128B3
:102C00007FF428AF01203075B07BF17B4FF4616316
:102C1000327C5843C1EB011100EB810040F23401DA
:102C20001044C2F20001486114E700BF0020BAF16D
:102C3000020F59D1009020200190802002900020A6
:102C4000102180221023CDF80C9001F083F84FF072
:102C5000020A56E0BAF1020F2ED100200090302077
:102C60000190802002900020202180221023CDF8A6
:102C70000C9001F06FF84FF0020A2BE00020BAF13F
:102C8000020F5DD1009080201025029000200021CD
:102C90008022102301954FF01009039501F05AF896
:102CA0004FF0020B4FF0020A5FFA88F00138032858
:102CB0007FF631AFCEE600BF0020009030200190BB
:102CC000802002900020402180220023CDF80C902B
:102CD00001F040F84FF0040B5FFA88F00138032848
:102CE0007FF619AFB6E600BF00902020019080204B
:102CF00002900020302180221023CDF80C9001F0AA
:102D000029F84FF0030B5FFA88F0013803287FF6AB
:102D100002AF9FE60020CDE9000080200290002055
:102D2000102180221023CDF80C9001F013F84FF001
:102D3000010B5FFA88F0013803287FF6ECAE89E6D4
:102D40000090802010250290002020218022102356
:102D500001954FF01009039500F0FCFF4FF0020BB6
:102D60005FFA88F0013803287FF6D5AE72E600BF1F
:102D700000F0E8FF002005B0BDE8F08F2DE9F04F2E
:102D800085B047F2F565C0F60005002000212A460F
:102D900008234FF0000902F049FD47F20676C0F61D
:102DA00000060020102132460823102402F03EFDC8
:102DB00047F27F72C0F6000200202021082302F0B3
:102DC00035FD47F22177C0F60007002030213A4652
:102DD000082302F02BFD02F019FE00F0B3FF4FF0C4
:102DE000020A4FF0010B4FF0000816E0302001906E
:102DF000802002900020402180220023CDF8009006
:102E0000039400F0A7FF4FF0040B4FF0010A00BF3E
:102E10005FFA88F0012800F0CB80002000212A46CC
:102E2000082302F003FD002010213246082302F09F
:102E3000FDFC47F27F7200202021C0F6000208232B
:102E400002F0F4FC002030213A46082302F0EEFCA8
:102E5000FFF760FA05281FD003280BD0012820D1E6
:102E6000ABF1010B00F06EFF5FEA0B60BED04FF0DC
:102E7000010A16E00BF1010B34462E465FFA8BF582
:102E800000F060FF052D354626464FF010044FF048
:102E9000020A06D15EE000BF01F0C8FA02F0B6FDFA
:102EA000D8465FFA8BF001380328B1D8DFE800F08C
:102EB000023E142ABAF1010F4CD18020029000206A
:102EC000102180221023CDE90099039400F042FFE5
:102ED0004FF0010A49E000BFBAF1010F48D12020AC
:102EE0000190802002900020302180221023CDF814
:102EF0000090039400F02EFF4FF0030B4FF0010AF7
:102F000086E700BFBAF1010F3FF470AF30200190A7
:102F1000802002900020202180221023CDF80090F4
:102F2000039400F017FF4FF0040B30E0BAF1010FEB
:102F300030D1802002900020202180221023CDE972
:102F40000094039400F006FF4FF0020B4FF0010ACB
:102F50005EE700BF80200290002000218022002335
:102F6000CDE90099039400F0F5FE4FF0010B4FE717
:102F70002020019080200290002010218022102328
:102F8000CDF80090039400F0E5FE4FF0030B4FF0F6
:102F9000020A3DE7802002900020002180221023B9
:102FA000CDE90094039400F0D5FE4FF0020B2FE71B
:102FB00000F0C8FE002005B0BDE8F08F2DE9F04F0D
:102FC00085B047F2E362C0F600020020002108232A
:102FD0004FF0000902F02AFC40F2340740F20804E6
:102FE000C2F20007C2F2000447F261753878A17896
:102FF000C0F60005E27847F2C77A2B4694F804C081
:10300000C0F6000A012808BF53468DE806100020CC
:103010001021082202F086F878782B460128607982
:10302000A179E27908BF53468DE8070000202021EE
:10303000082202F077F8B8782B460128207A617AC6
:10304000A27A08BF53468DE80700002030210822ED
:1030500002F068F802F0DAFC00F074FE00204FF095
:10306000020B4FF0010804900AE000BF40F26C46EA
:10307000C2F200063046FEF7B9FE3068C0F8249070
:1030800047F2E36200200021C0F60002082302F0AC
:10309000CDFB3878A178E27826792B46012808BF45
:1030A0005346CDE90012002010210822029602F0BA
:1030B00039F87878A179012860792B46E67908BF3C
:1030C0005346CDE90001002020210822029602F09B
:1030D00029F8B878617A0128207A2B46A67A08BFA9
:1030E0005346CDE90001002030210822029602F06B
:1030F00019F8FFF70FF905281AD003280CD001287A
:103100001ED1A8F1010800F01DFE5FEA08604FF033
:10311000010B15D176E000BF08F101085FFA88F6CF
:1031200000F010FE052E18D04FF0020B08E000BF93
:1031300001F07CF902F06AFC00F004FECDF810808A
:103140005FFA88F00138032800F2A280DFE800F07F
:1031500002441A30BBF1020F78D100200090019098
:1031600080200290002000218022002310264FF0B2
:103170000009039600F0EEFD4FF0020B4FF001083E
:1031800086E000BFBBF1020F4ED1202001908020CD
:10319000029000201021802210231026CDF80090EC
:1031A000039600F0D7FD4FF0020B4FF003086FE0DD
:1031B000BBF1020F26D13020019080200290002028
:1031C0002021802210231026CDF80090039600F0D5
:1031D000C1FD4FF0020B23E0BBF1020F48D180206C
:1031E000102602900020002180221023CDF80090AC
:1031F0000196039600F0AEFD4FF002084FF0020B6F
:1032000046E000BF30200190802002900020402145
:10321000802200231026CDF80090039600F09AFD3E
:103220004FF0040834E000BF20200190802002907D
:1032300000203021802210231026CDF80090039624
:1032400000F088FD4FF0030822E000BF002000904E
:10325000019080200290002010218022102310264F
:103260004FF00009039600F075FD4FF001080FE0E4
:103270008020102602900020202180221023CDF8EB
:1032800000900196039600F065FD4FF0020800BF24
:103290000498C0B2013803285AD8DFE800F07B0355
:1032A000371D00BFA01C00F0EFFA02286CD00128E7
:1032B0004ED101203870A078E1784FF46163227913
:1032C0005843C1EB011100EB81001044786038785D
:1032D000022840D046E000BF601D00F0D5FA022869
:1032E0002ED0012834D10120B870207A617A4FF4B1
:1032F0006163A27A5843C1EB011100EB81001044D5
:10330000F8603878022826D02CE000BF601D00F05D
:10331000BBFA02281AD001281AD1012078706079EE
:10332000A1794FF46163E2795843C1EB011100EBDD
:1033300081001044B860387802280CD012E000BF39
:103340000220B8703878022805D00BE0022078708F
:103350003878022806D17878022803D1B878022874
:103360003FF484AE40F26C40C2F200000068016895
:10337000C9077FF485AEC0F8249040F26C40C2F2D9
:103380000000FEF7FBFC7BE602203870387802284C
:10339000E1D0E7E700F0D6FC002005B0BDE8F08FF3
:1033A0002DE9F04F89B0067845788478049001F0D3
:1033B0003DF847F2E362C0F6000200200021082336
:1033C00002F034FA47F29473C0F600030020102193
:1033D0000822CDE900650894029401F0A3FE47F2AB
:1033E000E572C0F6000200203021082302F01EFA28
:1033F00002F00CFB00F0A6FC4FF002084FF0010BAE
:103400004FF0000A0696F6B205955FFA85F9102589
:10341000079617E050200090302001902020029065
:103420007020402100220023039500F093FC4FF010
:10343000060B4FF0010800BF5FFA8AF0013805283B
:1034400040F2088147F2E36200200021C0F600024A
:10345000082302F0EBF947F29473089F0020102133
:103460000822C0F60003CDE90069029701F05AFE78
:1034700047F2E57200203021C0F60002082302F076
:10348000D5F9FEF747FF05281CD003280CD00128EA
:1034900019D1ABF1010B00F055FC5FEA0B60B9D01C
:1034A0004FF001080FE000BF0BF1010B5FFA8BF545
:1034B00000F048FC079E072D4FF010054FF0020862
:1034C00001D11DE0DA465FFA8BF001380528B3D848
:1034D000DFE800F00460384C247200BFB8F1010F3F
:1034E0000ED10020CDE90000102010211022102361
:1034F0000295039500F02EFC4FF001080AE000BF92
:103500000020002100220023CDE900000295039550
:1035100000F020FC4FF0010B8EE700BFB8F1010F67
:103520005ED13020019020200290502030212022B6
:1035300010230095039500F00DFC4FF0050B4FF0A4
:10354000010879E73020B8F1010F59D1CDE9000524
:1035500050201021102210230295039500F0FAFB51
:103560004FF0030B4FF0010866E700BF5020B8F1A1
:10357000010F53D1CDE90005102030212022102366
:103580000295039500F0E6FB4FF0040B4FF00108A5
:1035900052E700BFB8F1010F4ED1302010211022A8
:1035A0001023CDE900550295039500F0D3FB4FF0B1
:1035B000020B4FF001083FE7B8F1010F3FF42AAFCB
:1035C00050200090302001902020029010203021C7
:1035D00020221023039500F0BDFB4FF0060B2BE7D4
:1035E0003020019020200290502010211022102322
:1035F0000095039500F0AEFB4FF0050B1CE700BFF4
:10360000CDE900051020102110221023029503950A
:1036100000F0A0FB4FF0030B0EE700BFCDE9000563
:1036200030201021102210230295039500F092FB08
:103630004FF0040B00E700BF0020002110221023F0
:10364000CDE900550295039500F084FB4FF0020B85
:10365000F2E600BFDFE810F0100106004A00960015
:1036600004011401102010211022102301F06EFD1E
:1036700010201F211F221F2300F0E2FE1020102126
:103680001022102302F038FAFEF744FE012805D07C
:10369000032807D00528F7D1C2E000BF1726FF2076
:1036A000002102E0002601201721069BDAB28A429F
:1036B00018BF1E18F0B247F29473089FCDE90009B5
:1036C000002010210822C0F60003029701F02AFD15
:1036D00010201F211F221F2300F0B2FE0020102106
:1036E0008022102302F008FA0696CDE73020102140
:1036F0001022102301F02AFD059D30201F213F22BA
:103700001F2300F09DFE002010218022102302F0D4
:10371000F3F900BFFEF7FEFD012805D0032807D00E
:103720000528F7D11CE000BF3B27FF20002102E065
:10373000002701203B21EAB28A4218BF2F18079EBA
:10374000F8B247F29473089DCDE900600020102183
:103750000822C0F60003029501F0E4FC3D46CCE7E8
:10376000E8B247F29473089FCDE900600020102171
:103770000822C0F60003029701F0D4FC30204FF07D
:10378000030A4AE0502010211022102301F0DEFC31
:10379000059D50201F215F221F2300F051FE0020B5
:1037A00010218022102302F0A7F900BFFEF7B2FD1E
:1037B000012805D0032807D00528F7D11CE000BF59
:1037C0003B24FF20002102E0002401203B21EAB23B
:1037D0008A4218BF2C18079EE0B247F29473089FE4
:1037E000CDE90060002010210822C0F600030297F6
:1037F00001F098FC2546CCE7E8B247F29473089FA5
:10380000CDE90060002010210822C0F600030297D5
:1038100001F088FC50204FF0040A069E13E000BF20
:10382000069E47F29473F0B2CDE900090898102182
:10383000029000200822C0F6000301F073FC059DF1
:1038400010204FF0020A10211022102301F07EFCFC
:10385000002010218022102302F04EF9D2E500BF93
:1038600004980699017005994170089981700120AA
:1038700009B0BDE8F08F00BF002009B0BDE8F08FAF
:10388000022009B0BDE8F08F2DE9F04F87B0057830
:1038900047788478049000F0C9FD00F053FA47F2AD
:1038A000E3664FF002084FF00109C0F600064FF042
:1038B000000B06955FFA85FA0597FFB2102517E011
:1038C0005020009030200190202002905020402174
:1038D00000220023039500F03DFA4FF006094FF057
:1038E000010800BF5FFA8BF00138052840F208811B
:1038F000002000213246082301F098FF47F294731C
:10390000002010210822C0F60003CDE900A7029490
:1039100001F008FC47F2E57200203021C0F60002F9
:10392000082301F083FFFEF7F5FC05281ED00328CD
:103930000CD001281DD1A9F1010900F003FA5FEABA
:103940000960BDD04FF0010813E000BF09F1010983
:103950005FFA89F600F0F6F9072E47F2E366C0F643
:1039600000064FF0020804D120E000BF00F0EAF9A1
:10397000CB465FFA89F001380528B3D8DFE800F0BC
:103980000460384C247200BFB8F1010F0ED1002042
:10399000CDE900001020102110221023029503957C
:1039A00000F0D8F94FF001080AE000BF0020002124
:1039B00010220023CDE900000295039500F0CAF91A
:1039C0004FF001098EE700BFB8F1010F5ED1302042
:1039D00001902020029050203021202210230095B9
:1039E000039500F0B7F94FF005094FF0010879E7AA
:1039F0003020B8F1010F59D1CDE900055020102138
:103A0000102210230295039500F0A4F94FF003094A
:103A10004FF0010866E700BF5020B8F1010F53D105
:103A2000CDE90005102030212022102302950395B6
:103A300000F090F94FF004094FF0010852E700BF81
:103A4000B8F1010F4ED13020102110221023CDE902
:103A500000550295039500F07DF94FF002094FF0F3
:103A600001083FE7B8F1010F3FF42AAF5020009062
:103A7000302001902020029010203021202210239D
:103A8000039500F067F94FF006092BE7302001900D
:103A90002020029050201021102210230095039521
:103AA00000F058F94FF005091CE700BFCDE900050B
:103AB00010201021102210230295039500F04AF9DE
:103AC0004FF003090EE700BFCDE9000530201021BB
:103AD000102210230295039500F03CF94FF00409E1
:103AE00000E700BF0020002110221023CDE900557F
:103AF0000295039500F02EF94FF00209F2E600BF9F
:103B0000DFE810F0120106004E009C0008011801C9
:103B1000102010211022102301F018FB10201F216B
:103B20001F221F2300F08CFC1020102110221023D4
:103B300001F0E2FF069D00BFFEF7ECFB012805D077
:103B4000032807D00528F7D1C6E000BF1726FF20BD
:103B5000002102E0002601201721EAB28A4218BFA4
:103B60002E18F0B247F29473CDE90007002010211F
:103B70000822C0F60003029401F0D4FA10201F219D
:103B80001F221F2300F05CFC002010218022102344
:103B900001F0B2FF354647F2E366C0F60006CBE718
:103BA000302010211022102301F0D0FA059F302080
:103BB0001F213F221F2300F043FC00201021802200
:103BC000102301F099FF00BFFEF7A4FB012805D0E8
:103BD000032807D00528F7D11EE000BF3B26FF20B1
:103BE000002102E0002601203B21FAB28A4218BFE0
:103BF0003E18F0B247F29473CDE900A000201021E6
:103C00000822C0F60003029401F08CFA374647F20E
:103C1000E366C0F60006CAE7F8B247F29473CDE94E
:103C200000A0002010210822C0F60003029401F039
:103C300079FA30204FF0030B4CE000BF50201021E8
:103C40001022102301F082FA059F50201F215F22CD
:103C50001F2300F0F5FB002010218022102301F02B
:103C60004BFF00BFFEF756FB012805D0032807D005
:103C70000528F7D11EE000BF3B26FF20002102E00F
:103C8000002601203B21FAB28A4218BF3E18F0B24A
:103C900047F29473CDE900A0002010210822C0F65D
:103CA0000003029401F03EFA374647F2E366C0F69D
:103CB0000006CAE7F8B247F29473CDE900A00020ED
:103CC00010210822C0F60003029401F02BFA5020C4
:103CD0004FF0040B069D10E0E8B247F29473CDE973
:103CE0000007002010210822C0F60003029401F012
:103CF00019FA059F10204FF0020B102110221023FB
:103D000001F024FA002010218022102301F0F4FE9B
:103D1000CFE500BF04980699847001700599417041
:103D2000012007B0BDE8F08F00F00CF8002007B0CC
:103D3000BDE8F08F022007B0BDE8F08FFDF7A4F8D2
:103D4000FEE7000040F25000C2F2000000210170C6
:103D5000704700002DE9F04F8DB093469846002B38
:103D600081466FD0BBF1000F0E4608EB010A57D019
:103D700040F2580E0BEB09004FF0010CC2F2000E9E
:103D8000354603E0013635B2AA455BDDB2B2402AC2
:103D90004F4609D206F007020CFA02F4EA080EEBCD
:103DA000C2154A464F4615E07A1C12B29042E9DD30
:103DB000BA1C12B29042E5DDFA1C12B29042E1DD6B
:103DC00004373AB29042EFDCDCE700BF04373AB286
:103DD0009042D7DDBBB27F2B02D8AB5C6340AB54C3
:103DE0007B1C1AB29042CDDD9BB27F2B02D8AB5C1C
:103DF0006340AB54BB1C1AB29042C3DD9BB27F2B15
:103E000002D8AB5C6340AB54FB1C1AB29042B9DDE4
:103E10009BB27F2BDAD8AB5C6340AB54D6E700BFD4
:103E2000304600BF421C12B292450BDD821C12B21A
:103E3000924507DDC21C12B2924503DD043002B286
:103E40009245EFDC40F25000C2F20000007818B159
:103E50000DB0BDE8F08F00BFDDE916760B46DDE959
:103E600018107D1E0895751E424607954D1E013798
:103E700040F258080695451E0497771C0131013021
:103E8000C2F20008059503970291019009E000BF76
:103E9000DDE90B3240F25000C2F200000078002849
:103EA000D6D116985FFA89FE70450DD81799D8B209
:103EB000814209D818995FFA8BF0814204D8199988
:103EC000D0B2814240F24681D0B20A900028D8B2E6
:103ED0000C920B93099073D0DDE909215FFA8BF006
:103EE000002802EB010A59D00EEB0006144603E04D
:103EF000013214B2A24563DD90B24028704607D269
:103F000002F0070001218140E4087746704615E081
:103F1000411C09B28E42EBDD811C09B28E42E7DD05
:103F2000C11C09B28E42E3DD043001B28E42EFDCE7
:103F3000DEE700BF043007B2BE42D9DD83B27F2B7B
:103F400006D808EBC41313F807C08CEA0105DD5549
:103F5000431C1FB2BE42CBDD9BB27F2B04D808EBC3
:103F6000C413DD5D4D40DD55831C1FB2BE42BFDD75
:103F70009BB27F2B04D808EBC413DD5D4D40DD55AB
:103F8000C31C1FB2BE42B3DD9BB27F2BD2D808EB5D
:103F9000C413DD5D4D40DD55CCE700BF104600BFCA
:103FA000411C09B28A450BDD811C09B28A4507DD37
:103FB000C11C09B28A4503DD043001B28A45EFDC39
:103FC000169E179DA6EB09007645C0B288BF09EB87
:103FD000500909990B9A8D42A5EB0201189FC9B2AD
:103FE00088BF02EB5102A7EB0B015FFA8BF0C9B25D
:103FF000874288BF0BEB510B0C99199B0A9C581AEE
:10400000C0B2A34288BF01EB5001089C5FFA89F05F
:10401000844208BFB146079ED0B2864208BF2A46F6
:10402000069E5FFA8BF0864208BFBB46059FC8B26A
:10403000874208BF19465FFA81FE5FFA89FABEF12E
:10404000000F5FFA82FC0C910B926BD05FFA8BF140
:1040500000290CEB0E0053D051446546624603E044
:10406000013215B2A8425DDD93B2402B53460BD20C
:1040700002F00703012707FA03F3EF0808EBC7155F
:104080005746544616E000BF5F1C3FB2B942E7DD19
:104090009F1C3FB2B942E3DDDF1C3FB2B942DFDD16
:1040A00004331FB2B942EFDCDAE700BF043427B2B1
:1040B000B942D5DDA6B27F2E02D8EE5D5E40EE5548
:1040C000661C37B2B942CBDDB6B27F2E02D8EE5DA8
:1040D0005E40EE55A61C37B2B942C1DDB6B27F2EA6
:1040E00002D8EE5D5E40EE55E61C37B2B942B7DD50
:1040F000B6B27F2EDAD8EE5D5E40EE55D6E700BF51
:10410000614600BF4A1C12B290420BDD8A1C12B2FB
:10411000904207DDCA1C12B2904203DD04310AB29C
:104120009042EFDC6446754601F070FC19988542B8
:104130000ED118995FFA8BF0884209D11798DDE902
:104140000B32844206D11698824503D164E100BF48
:10415000DDE90B3216985FFA89FE86450DD817986F
:10416000D9B2814209D818985FFA8BF1814204D8FC
:104170001998D1B281427FF68DAED0B20A90002854
:10418000D8B20C920B93099076D0DDE909205FFA42
:104190008BF1002902EB000A5CD00EEB01061446FD
:1041A00004E000BF013214B2A24565DD91B240299E
:1041B000714609D202F00701012000FA01F1E4087A
:1041C0007746754616E000BF481C00B28642E9DD1E
:1041D000881C00B28642E5DDC81C00B28642E1DDE3
:1041E000043108B28642EFDCDCE700BF04352FB2B1
:1041F000BE42D7DDABB27F2B06D808EBC41313F851
:1042000007C08CEA0100D8556B1C1FB2BE42C9DD45
:1042100098B27F2804D808EBC410C35D4B40C35547
:10422000AB1C1FB2BE42BDDD98B27F2804D808EB9C
:10423000C410C35D4B40C355EB1C1FB2BE42B1DD81
:1042400098B27F28D2D808EBC410C35D4B40C35549
:10425000CCE700BF114600BF481C00B282450BDD11
:10426000881C00B2824507DDC81C00B2824503DD10
:10427000043108B28245EFDC169E179DA9EB0600BB
:10428000B645C0B288BFA9EB500909990B9AA9425B
:10429000A2EB0501189FC9B288BFA2EB5102ABEB9C
:1042A00007015FFA8BF0C9B2B84288BFABEB510B84
:1042B0000C99199B0A9CC81AC0B29C4288BFA1EBFA
:1042C0005001049C5FFA89F0844208BFB146039E06
:1042D000D0B2864208BF2A46029E5FFA8BF0864221
:1042E00008BFBB46019FC8B2874208BF1946C8B283
:1042F0005FFA89FA00285FFA82FE0C910A900B920D
:1043000072D00A985FFA8BF100290EEB000C59D09D
:1043100051447746724603E0013217B2BC4563DD73
:1043200093B2402B534609D202F00703012000FA52
:1043300003F3FE085746544616E000BF581C00B26F
:104340008142E9DD981C00B28142E5DDD81C00B253
:104350008142E1DD043318B28142EFDCDCE700BFCB
:10436000043427B2B942D7DDA5B27F2D04D808EBBB
:10437000C615E85D5840E855651C2FB2B942CBDD43
:10438000A8B27F2804D808EBC610C55D5D40C555AE
:10439000A51C2FB2B942BFDDA8B27F2804D808EB14
:1043A000C610C55D5D40C555E51C2FB2B942B3DDF1
:1043B000A8B27F28D4D808EBC610C55D5D40C555AE
:1043C000CEE700BF714600BF481C00B284450BDD3C
:1043D000881C00B2844507DDC81C00B2844503DD9B
:1043E000043108B28445EFDC744601F00FFB1998E4
:1043F0000A9981427FF44CAD18995FFA8BF088429C
:104400007FF446AD1798DDE90B3284427FF442AD6C
:10441000169882457FF43EAD40F250010120C2F271
:10442000000108700DB0BDE8F08F000080B540F2CB
:104430005800C2F200004FF48061FBF77AFE80BDA5
:104440002DE9F04F83B0994244D190421346B8BF52
:104450000346C8BF0246402964D28FB201F007006C
:10446000012101FA00F0F90840F25807C2F20007F2
:1044700007EBC11112B204E004331BB2934200F304
:1044800020839FB27F2F02D8CE5D0643CE555F1C9E
:104490003EB2964200F31583BFB27F2F02D8CE5DA5
:1044A0000643CE559F1C3EB2964200F30A83BFB22C
:1044B0007F2F02D8CE5D0643CE55DF1C3EB296421A
:1044C00000F3FF82BFB27F2FD6D8CE5D0643CE5514
:1044D000D2E700BF90423BD199421A46B8BF0A4684
:1044E000C8BF0B46802837D240F258064FF6F87CFA
:1044F0000127C2F200061BB205E000BF511C0AB240
:104500009A4200F3DE8295B23F2DF7D802EA0C05FD
:1045100006EB051502F00704295C07FA04F42143B1
:104520002954EBE710B200BF591C09B2814200F3D5
:10453000C882991C09B2814200F3C382D91C09B216
:10454000814200F3BE82191D0BB28342ECDDB8E25A
:1045500018DD90469C4619E018B200BF511C09B204
:10456000814200F3AE82911C09B2814200F3A9821C
:10457000D11C09B2814200F3A482111D0AB2824209
:10458000ECDD9EE280468C46104619468C454FF085
:10459000000A67460D46C8BF4FF0010ACCF100097A
:1045A0004B428C45C4BF4F461D462AB23CB2002642
:1045B000121BB8F1800F4FF00004A0EB080B38BFBE
:1045C0000124BCF1400F38BF012626405A45A5EB17
:1045D0000705009210DD4FEA4B0002908C45D8BFD2
:1045E0000B46ABEB050EC5EB4B051846D8BFE146B5
:1045F00043467EB9434622E06A0002928C45D8BF0A
:10460000E146A5EB0B0ECBEB45054FF0000A4B4600
:10461000C1469EB14FF6F87640F2580206EA0C0603
:10462000C2F2000202EB06120CF00707012412F896
:104630000860BC40344302F8084000E0C1460FFA6D
:1046400089F207B29742019740F33B82009CA0EBAE
:1046500009026FEA09064FEA4E0E00EB0608BAF1AE
:10466000000F02F003005FD000284FF6BF7C00F07F
:1046700023822AB2B2F1FF3F029E1FFA89F1C8BF1E
:104680007646B2F1FF3FC8BF0133614506EB050135
:1046900016D99DB27F2D13D84FF6F87240F2580705
:1046A00022EA0902C2F20007072607EB021226EAF5
:1046B00009064FF0010A575D0AFA06F63E435655C1
:1046C00009F1010701280DB200F0F781B5F1FF3FB4
:1046D0000299C8BF7146B5F1FF3FBAB2C8BF0133F6
:1046E0006245294417D99DB27F2D14D8ACEB09023D
:1046F0003F324FF6F87640F258071640C2F20007F4
:1047000007EB061602F007024FF0010A775D0AFA7E
:1047100002F23A43725509F1020602280DB240F046
:1047200041833746C9E100BF8C4540F3E58000284E
:1047300052D02AB209F10101B2F1FF3F029F8EB2BD
:10474000C8BF7746B2F1FF3FC8BF01337F2E3D445B
:1047500015D85F42BAB23F2A11D84FF6F87240F22C
:1047600058043A40C2F2000404EB021207F00707B3
:104770004FF0010C945D0CFA07F727439755012879
:104780002DB228D009F10201B5F1FF3F029A8EB295
:10479000C8BF7246B5F1FF3FC8BF01337F2E154435
:1047A00015D85F42BAB23F2A11D84FF6F87240F2DC
:1047B00058043A40C2F2000404EB021207F0070763
:1047C0004FF0010C945D0CFA07F727439755022828
:1047D0002DB240F00F8389461FFA88F00328C0F0FD
:1047E000708140F258064FF6F87C4FF00108C2F293
:1047F000000606E001990FFA89F088423D4480F2F4
:10480000608109F1010029B287B2B1F1FF3F02983E
:10481000C8BF7046B1F1FF3FC8BF01337F2F0ED82C
:1048200059428CB23F2C0AD801EA0C0406EB04145E
:1048300001F00701E25D08FA01F11143E155284456
:1048400005B209F10200B5F1FF3F029F80B2C8BF77
:104850007746B5F1FF3FC8BF01337F280ED85942D4
:104860008AB23F2A0AD801EA0C0206EB021201F0D2
:104870000701145C08FA01F121431154781905B2BB
:1048800009F10300B5F1FF3F029F80B2C8BF774630
:10489000B5F1FF3FC8BF01337F280ED859428AB215
:1048A0003F2A0AD801EA0C0206EB021201F00701C6
:1048B000145C08FA01F121431154781905B209F189
:1048C00004091FFA89F0B5F1FF3F029FC4BF774684
:1048D00001337F288ED859428AB23F2A8AD801EA0A
:1048E0000C0206EB021201F00701145C08FA01F158
:1048F000214311547EE700BF5C4540F373810028DB
:1049000050D02AB2B2F1FF3F029FC8BF7746B2F142
:10491000FF3FC8BF01339EB209F101017F2E3D4424
:1049200014D88AB23F2A11D84FF6F87240F25804D0
:104930000A40C2F2000404EB021201F007074FF034
:10494000010C945D0CFA07F72743975501282DB207
:1049500027D0B5F1FF3F0299C8BF71464E19B5F196
:10496000FF3FC8BF01339DB27F2D09F1020114D86A
:104970008AB23F2A11D84FF6F87240F258040A4022
:10498000C2F2000404EB021201F007074FF0010C21
:10499000545D0CFA07F727435755022835B240F00B
:1049A0004F8289461FFA88F00328C0F08A8040F2BF
:1049B00058064FF6F87C4FF00108C2F2000605E0F9
:1049C00001990FFA89F088423D447ADA28B2B0F1B1
:1049D000FF3F029FC8BF7746B0F1FF3FC8BF01331A
:1049E00098B27F280FD809F101018CB23F2C0AD868
:1049F00001EA0C0406EB041401F00701225C08FA3A
:104A000001F111432154781905B2B5F1FF3F029F1E
:104A1000C8BF7746B5F1FF3FC8BF013398B27F28C2
:104A20000FD809F102018AB23F2A0AD801EA0C0222
:104A300006EB021201F00701145C08FA01F12143B0
:104A40001154781905B2B5F1FF3F029FC8BF7746F0
:104A5000B5F1FF3FC8BF013398B27F280FD809F1E5
:104A600003018AB23F2A0AD801EA0C0206EB0212BD
:104A700001F00701145C08FA01F12143115478197F
:104A800005B2029FB5F1FF3FC4BF7746013398B22C
:104A90007F2809F1040993D81FFA89F13F298FD89B
:104AA00009EA0C0106EB011109F007020C5C08FA97
:104AB00002F222430A5483E74F461FFA88F0032884
:104AC00002D203B0BDE8F08F40F2580B4FF6F87AEF
:104AD0004FF00109C2F2000B06E000BF381D07B21B
:104AE00001980D448742ECDA28B2B0F1FF3F0299F9
:104AF000C8BF7146B0F1FF3FB8B2C8BF01336045CF
:104B00000FD998B27F280CD82AEA070607220BEBA8
:104B10000616BA4316F8008009FA02F242EA0802C1
:104B20003254481901B2B1F1FF3F029D07F1410033
:104B3000C8BF7546B1F1FF3F80B2C8BF01333F28FF
:104B400010D898B27F280DD8ACEB07023F3202EAAA
:104B50000A060BEB061602F00702345C09FA02F2B1
:104B600022433254681801B2B1F1FF3F029D07F1B0
:104B70004200C8BF7546B1F1FF3F80B2C8BF0133E4
:104B80003F2810D898B27F280DD8ACEB07023E32F0
:104B900002EA0A040BEB041402F00702265C09FA8D
:104BA00002F232432254681805B207F14300B5F10E
:104BB000FF3F029980B2C4BF714601333F288DD8B0
:104BC00098B27F288AD8ACEB07023D3202EA0A0489
:104BD0000BEB041402F00702265C09FA02F23243DE
:104BE00022547BE7002850D02AB209F10101B2F12A
:104BF000FF3F029F8EB2C8BF7746B2F1FF3FC8BFEA
:104C000001337F2E3D4414D89AB23F2A11D84FF673
:104C1000F87240F258041A40C2F2000404EB021287
:104C200003F007074FF0010C945D0CFA07F72743D8
:104C3000975501282DB227D009F10201B5F1FF3FA8
:104C4000029A8EB2C8BF7246B5F1FF3FC8BF0133AA
:104C50007F2E154414D89AB23F2A11D84FF6F87215
:104C600040F258041A40C2F2000404EB021203F0AE
:104C700007074FF0010C945D0CFA07F7274397558F
:104C800002282DB240F0028189461FFA88F00328DD
:104C9000FFF417AF40F258064FF6F87C4FF00108CA
:104CA000C2F2000607E000BF01990FFA89F08842BE
:104CB0003D44BFF606AF09F101002CB287B2B4F152
:104CC000FF3F0298C8BF7046B4F1FF3FC8BF013331
:104CD0007F2F0DD89CB23F2C0AD803EA0C0406EBB8
:104CE000041403F00702E15D08FA02F21143E155F2
:104CF000284405B209F10200B5F1FF3F029F80B2DE
:104D0000C8BF7746B5F1FF3FC8BF01337F280DD834
:104D100099B23F290AD803EA0C0106EB011103F00E
:104D200007020C5C08FA02F222430A54781905B211
:104D300009F10300B5F1FF3F029F80B2C8BF77467B
:104D4000B5F1FF3FC8BF01337F280DD899B23F2985
:104D50000AD803EA0C0106EB011103F007020C5C10
:104D600008FA02F222430A54781905B209F104093B
:104D70001FFA89F0B5F1FF3F029FC4BF77460133A8
:104D80007F2891D899B23F298ED803EA0C0106EB0F
:104D9000011103F007020C5C08FA02F222430A54E4
:104DA00082E700BFB5F1FF3F0298B1B209F10307F6
:104DB000C4BF70460133614505447FF67EAE98B2AC
:104DC0007F283FF67AAEACEB09013E314FF6F87220
:104DD00040F258060A40C2F2000606EB021201F049
:104DE00007014FF00109165C09FA01F13143115432
:104DF00063E600BF09F103091FFA89F0B5F1FF3F2F
:104E00000299C4BF714601337F280D443FF6E4ACDC
:104E100059428AB23F2A3FF6DFAC4FF6F87240F2B1
:104E200058060A40C2F2000606EB021201F0070122
:104E30000127165C07FA01F131431154CCE400BF9D
:104E40000298B5F1FF3FC8BF70460544C8BF0133A3
:104E500098B27F2809F103093FF6A4AD1FFA89F142
:104E60003F293FF69FAD4FF6F87140F2580601EA30
:104E70000901C2F2000606EB011109F00702012741
:104E80000E5C07FA02F232430A548BE509F103097A
:104E90001FFA89F0B5F1FF3F0299C4BF7146013393
:104EA0007F280D443FF6F1AE99B23F293FF6EDAEB3
:104EB0004FF6F87140F258061940C2F2000606EBB0
:104EC000011103F0070201270E5C07FA02F23243D8
:104ED0000A54DAE6B0B540F60044C4F201040546CF
:104EE000C20920464FF40051FBF7FAFC20464FF46C
:104EF00080510122FBF7F4FC20464FF48051002240
:104F0000FBF7EEFCC5F3801220464FF40051FBF78F
:104F1000E7FC20464FF480510122FBF7E1FC2046DC
:104F20004FF480510022FBF7DBFCC5F34012204612
:104F30004FF40051FBF7D4FC20464FF4805101227E
:104F4000FBF7CEFC20464FF480510022FBF7C8FC53
:104F5000C5F3001220464FF40051FBF7C1FC204678
:104F60004FF480510122FBF7BBFC20464FF48051E7
:104F70000022FBF7B5FCC5F3C00220464FF40051F8
:104F8000FBF7AEFC20464FF480510122FBF7A8FC52
:104F900020464FF480510022FBF7A2FCC5F38002AB
:104FA00020464FF40051FBF79BFC20464FF4805104
:104FB0000122FBF795FC20464FF480510022FBF7BD
:104FC0008FFCC5F3400220464FF40051FBF788FCEC
:104FD00020464FF480510122FBF782FC20464FF41B
:104FE00080510022FBF77CFC05F0010220464FF4C3
:104FF0000051FBF775FC20464FF480510122FBF76E
:105000006FFC20464FF480510022FBF769FC2046DC
:105010004FF480510122FBF763FC20464FF480518E
:105020000022BDE8B040FBF75BBC000010B584B0C7
:1050300041F21800C4F20200016840F6004441F059
:10504000080101600068C4F2010400F0080000904B
:10505000009811200190032003904FF440500090DD
:1050600069462046FBF72EFB20464FF48051012273
:10507000FBF736FC20464FF400510122FBF730FCD1
:10508000AE2000F091FDD52000F08EFD802000F0D4
:105090008BFDA82000F088FD3F2000F085FDD32087
:1050A00000F082FD002000F07FFD402000F07CFD3C
:1050B000A12000F079FDC82000F076FDDA2000F094
:1050C00073FD122000F070FD812000F06DFDCF20F7
:1050D00000F06AFDD92000F067FDF12000F064FDCA
:1050E000DB2000F061FD302000F05EFDA42000F028
:1050F0005BFDA62000F058FD8D2000F055FD14202A
:1051000000F052FDAF2000F04FFD40F25800C2F217
:1051100000004FF48061FBF70CF800F077FC04B05E
:1051200010BD0000F0B5C1B001AF14460D460646F3
:1051300046AA38461946009200F0ECFF3046294650
:105140003A46234600F072FB41B0F0BD002B08BF89
:1051500070472DE9F041002A03EB010862D040F2CC
:10516000580E02444FF0010CC2F2000E0D4603E04F
:1051700001310DB2A84559DD8BB2402B044609D24E
:1051800001F007030CFA03F4EB080EEBC315074616
:10519000064615E0631C1BB29A42E9DDA31C1BB254
:1051A0009A42E5DDE31C1BB29A42E1DD043423B2EE
:1051B0009A42EFDCDCE700BF043637B2BA42D7DDF3
:1051C000B3B27F2B02D8EB5D6340EB55731C1FB26B
:1051D000BA42CDDD9BB27F2B02D8EB5D6340EB552D
:1051E000B31C1FB2BA42C3DD9BB27F2B02D8EB5D6A
:1051F0006340EB55F31C1FB2BA42B9DD9BB27F2B63
:10520000DAD8EB5D6340EB55D6E700BF881C00B2EF
:1052100080450BDDC81C00B2804507DD043108B2B3
:10522000804503DD481C00B28045EFDCBDE8F0415D
:10523000704700002DE9F04F8BB0002B03920A90CD
:105240007AD0039803EB0108002863D00A9A40F251
:10525000580E86184FF0010CC2F2000E0C4689461B
:1052600006E000BF09F101090FFA89F4A04563DDEA
:105270001FFA89F2402A0A9A0CD209F007020A9D05
:105280000CFA02F2E4086FEA020A0EEBC4172A468F
:1052900016E000BF541C24B2A642E3DD941C24B2E5
:1052A000A642DFDDD41C24B2A642DBDD043214B2F8
:1052B000A642EFDCD6E700BF04352AB29642D1DD24
:1052C000ACB27F2C03D8BC5C04EA0A04BC546C1C4E
:1052D00022B29642C6DDA4B27F2C03D8BC5C04EA9D
:1052E0000A04BC54AC1C22B29642BBDDA4B27F2C93
:1052F00003D8BC5C04EA0A04BC54EC1C22B29642FB
:10530000B0DDA4B27F2CD7D8BC5C04EA0A04BC543C
:10531000D2E700BF0A4600BF571C3FB2B8450BDDBD
:10532000971C3FB2B84507DDD71C3FB2B84503DD37
:10533000043217B2B845EFDC5A1EDDF80C8002EBE0
:105340005272B8F1000F4FEAE20700F0578201EB0A
:105350005172D31003EBE130049008F0030022F007
:105360000702082307900A988A1A03EA11310A44AF
:10537000411C0191811C009140F25801C2F20001D0
:105380001FFA82F9C2F1080201441FFA82FA08F0FA
:10539000FC0C0291002200210597CDF824C00CE0FE
:1053A00017783B43137000BF0899059F0131CAB2BB
:1053B000DDF824C09742C0F236820891CBB214992E
:1053C00008FB031B049B02FB08119E18082E06F124
:1053D000010206917CD2082A80F0CC80B8F1040F3B
:1053E00080F00E814FF0000C0799DDF80C80002949
:1053F000DAD00CEB00037F2B1BD8069940F2580E35
:10540000C2F2000E14460A4611F80C7031460EEB3B
:10541000C616F55C07FA09F72F43F75412F80C701B
:105420000EEBC416F55C27FA0AF72F432246F75411
:105430000E4607990129B7D001990CEB01037F2B88
:1054400021D8069840F2580B0CF10107C2F2000B6C
:1054500010F807E00BEBC61515F8038031460EFA7D
:1054600009F646EA080614460246EE54D75D0BEBF1
:10547000C416F55C27FA0AF70A98DDF80C802F436A
:105480002246F7540E46079902298DD000990CEB5D
:1054900001077F2F88D8069840F258010CF10203CB
:1054A000C2F2000110F803C001EBC61515F807E0C1
:1054B0000CFA09F646EA0E0614460246EE55D35C8F
:1054C0000A9801EBC41223FA0AF33A4468E700BFD2
:1054D000072A3FF669AF9446B8F1040F80F00481C3
:1054E0000025079900293FF45FAF2B1862467F2BF8
:1054F00010D8069810F805C040F25800C2F200001B
:1055000000EBC21616F803E02CFA0AF70A9847EAED
:105510000E07F754079901293FF446AF01996B181C
:105520007F2B11D806986F1C10F807C040F2580066
:10553000C2F2000000EBC21616F803E02CFA0AF7DC
:105540000A9847EA0E07F754079902293FF42CAF4F
:1055500000996F187F2F3FF627AF0699AB1CCB5CE5
:1055600040F25801C2F2000101EBC21223FA0AF321
:105570003A4415E7B8F1040F80F00481B6460025DF
:10558000079900293FF410AF2A187F2A0CD80699F2
:105590004B5D40F25801C2F2000101EBCE17BE5C38
:1055A00003FA09F33343BB54079901293FF4FCAED6
:1055B00001996A187F2A0DD806996B1CCB5C40F2C2
:1055C0005801C2F2000101EBCE17BE5C03FA09F3E9
:1055D0003343BB54079902293FF4E6AE00996A1899
:1055E0007F2A3FF6E1AE0699AB1CCB5C40F2580136
:1055F000C2F2000101EBCE1703FA09F33A44CFE6F9
:1056000002994FF0000C01EBC61506E009980CF169
:10561000040C60450A983FF4E7AE00EB0C037F2BC7
:1056200005EB0C0E0CD9591C7F290BEB0C081ED96D
:10563000991C7F2930D9D91C7F29E7D841E000BFC8
:105640001BF80C1015F80C4001FA09F1214305F87C
:105650000C101BF80C109EF8804021FA0AF121432F
:105660008EF88010591C7F290BEB0C08E0D898F8B5
:1056700001109EF8014001FA09F121438EF8011052
:1056800098F801109EF8814021FA0AF121438EF822
:105690008110991C7F29CED898F802109EF80240FC
:1056A00001FA09F121438EF8021098F802109EF8D1
:1056B000824021FA0AF121438EF88210D91C7F29F9
:1056C000A4D898F803109EF8033001FA09F11943A1
:1056D0008EF8031098F803109EF8833021FA0AF12F
:1056E00019438EF8831091E70299099A01EBC613CA
:1056F000002503E00435AA423FF4F3AE47197F2F9B
:105700000AD9791C7F2914D9B91C7F291FD9F91C02
:105710007F29EFD829E000BF1BF805105E1996F825
:10572000804021FA0AF1214386F88010791C7F29F4
:10573000EAD80BEB050149785E1996F8814021FA09
:105740000AF1214386F88110B91C7F29DFD80BEBC1
:10575000050189785E1996F8824021FA0AF1214301
:1057600086F88210F91C7F29C4D80BEB0501C97893
:105770005F1997F8836021FA0AF1314387F88310A3
:10578000B8E700BF0299B64601EBC613002503E057
:105790000435AC453FF4F4AE42197F2A06D81BF815
:1057A00005705E5D07FA09F737435F55571C7F2F79
:1057B0000BEB050603EB050706D9911C7F290CD9D5
:1057C000D11C7F29E4D811E071787C7801FA09F1C5
:1057D00021437970911C7F29F2D8B178BC7801FA05
:1057E00009F12143B970D11C7F29D1D8F178FA7819
:1057F00001FA09F11143F970CAE700BF002000BFA8
:1058000040F00101C9B28F420DDB40F00201C9B284
:105810008F4208D340F00301C9B28F4203D3043052
:10582000C1B28F42ECD20BB0BDE8F08F2DE9F04F42
:1058300089B0154612780591002A069000F0E280A2
:105840000DF11F01881C0490C81C46F62E2A9846AC
:105850000390081DC0F6000A4FF0250B00264FF0FC
:105860000009029016E000BF069846F6A961C0F64E
:105870000001304401F1BA07059900B2062208235D
:105880000097FFF7D7FC06361FFA89F02A5C002A3A
:1058900000F0B88050B2B0F1FF3F13DC02F0E0003E
:1058A000C02809F1010029D002F0F001E02933D02D
:1058B00002F0F801F02943D081B26A5C8146002AE7
:1058C000E8D19FE000208DF820000698B8F1060F7F
:1058D000304400B28DF81F2000F08080B8F1080F2E
:1058E00040F08C8047F2E301C0F6000101EB0211A9
:1058F000A1F500770599082210237CE080B2285C8E
:105900008DF81F20002800F07D808DF8200004987D
:1059100009F102092FE000BF80B2285C8DF81F203A
:1059200000286FD009F1020189B2695C8DF820006E
:10593000002967D0039809F103098DF821101AE0B6
:1059400080B2285C8DF81F2000285BD009F102018D
:1059500089B2695C8DF82000002953D009F1030059
:1059600080B2285C8DF8211000284BD08DF82200E1
:10597000029809F104099AF8001000294FF000017B
:10598000017015D00024574638460DF11F01FAF773
:10599000DBFB48B10134A0B200FB0BF11AF8011097
:1059A00000FB0BA70029EFD1B8F1060F05D15BE78B
:1059B0005746B8F1060F3FF457AFB8F1080F7FF420
:1059C00063AF069805993044053700B210221023C2
:1059D0000097FFF72FFC103656E700BF02EB42019D
:1059E00046F6A962C0F6000202EB4101A1F1C00730
:1059F0000599062208230097FFF71CFC09F101090D
:105A0000464441E709B0BDE8F08F000010B5B02072
:105A100000F0CAF8102000F0C7F8002000F0C4F829
:105A200040F25804C2F200042046802100F0F8F849
:105A3000B12000F0B9F8102000F0B6F8002000F016
:105A4000B3F804F18000802100F0EAF8B22000F001
:105A5000ABF8102000F0A8F8002000F0A5F804F53D
:105A60008070802100F0DCF8B32000F09DF8102059
:105A700000F09AF8002000F097F804F5C07080213B
:105A800000F0CEF8B42000F08FF8102000F08CF871
:105A9000002000F089F804F50070802100F0C0F8C3
:105AA000B52000F081F8102000F07EF8002000F012
:105AB0007BF804F52070802100F0B2F8B62000F0E9
:105AC00073F8102000F070F8002000F06DF804F575
:105AD0004070802100F0A4F8B72000F065F8102095
