:020000040800F2
:100000008009002001010008552D0008511A000840
:10001000C91D0008B1060008F94C000800000000E6
:10002000000000000000000000000000BD4C0008BF
:10003000B506000800000000B94C0008C14C0008DB
:100040001B0100081B0100081B0100081B01000820
:100050001B0100081B0100081B0100081B01000810
:100060001B0100081B0100081B0100081B01000800
:100070001B0100081B0100081B0100081B010008F0
:100080001B0100081B0100081B0100081B010008E0
:100090001B0100081B0100081B0100081B010008D0
:1000A0001B010008C94C00081B0100081B010008C7
:1000B000D54C0008E14C0008ED4C00081B0100087D
:1000C0001B0100081B0100081B0100081B010008A0
:1000D0001B0100081B0100081B0100081B01000890
:1000E0001B0100081B0100081B010008DFF80CD0F1
:1000F00000F0C6FA00480047FD4C000880090020C7
:100100000648804706480047FEE7FEE7FEE7FEE7B1
:10011000FEE7FEE7FEE7FEE7FEE7FEE7C54C000868
:10012000ED000008D2B201E000F8012B491EFBD21D
:1001300070470022F6E710B513460A4604461946F2
:10014000FFF7F0FF204610BD10B5002200E0521C62
:10015000835C8C5CA34201D1002BF8D1D8B2E1B210
:10016000401A10BD2DE9FE4F804681EA0300C00F02
:100170000C46009021F0004123F00045B8EB02004E
:10018000A94105D24046214690461C460B460246F0
:1001900023F00040104347D0270DC7F30A00C3F3F4
:1001A0000A510290401A019040286BDAC3F3130001
:1001B00040F4801B0098924620B10023D2EB030A42
:1001C00063EB0B0B01985946C0F14002504600F01A
:1001D00098F906460D4650465946019A00F0B0F986
:1001E00010EB08006141002487EA115284EAE773AA
:1001F0001A4340D0009A62B3019A012A4FEA07528B
:1002000015DC001B61EB02014FF0004202EA0752CD
:10021000CDE90042001C41F5801132462B4600F02A
:10022000B0F903B0BDE8F08F40462146F9E7001B66
:1002300061EB0201001C41F5801300185B4120189E
:10024000A2F5001747EB030140EAD570B6196D41DE
:1002500011E06D084FEA360645EAC0754FEA0752CD
:10026000001B61EB0201001C41F5801149084FEAB7
:1002700030000019514132462B4603B0BDE8F04F23
:1002800000F070B90098012240000023D0EB020278
:1002900063EBE073009821464FEAE074B8EB00008E
:1002A00061EB0401E9E783F000435BE781F0004183
:1002B00058E72DE9FE4F81EA030404F0004421F0E1
:1002C000004100944FF0000B23F0004350EA01047A
:1002D0005ED052EA03045BD0C3F30A54C1F30A555B
:1002E0002C44A4F2F3340194A0FB0254C1F3130193
:1002F00041F48011C3F3130343F4801301FB024460
:1003000000FB034E840A970A44EA815447EA835764
:10031000A4FB076802958D0A05FB07854FEA932C1D
:1003200004FB0C542705029D4FEA065847EA16378E
:10033000B5EB08056EEB070C870E920E47EA8117A6
:1003400042EA8312A7FB0201B6EB0B0164EB000447
:100350002B0D43EA0C335E1844EB1C50DA46514631
:10036000E7FB0201C5F313044FEA0B3343EA1453CE
:100370004FEA0432019C43EA0603A4F10C04029400
:10038000009CCDE900B400F0FCF803B0BDE8F08FAC
:1003900000200146F9E72DE9F04D81EA030404F05D
:1003A000004B21F0004514464FF0000A23F00041B5
:1003B00050EA050220D054EA01021DD0C5F30A57C5
:1003C0000246C5F31303C1F31300C1F30A5640F408
:1003D000801543F48013A7EB0608101BD64608F2DD
:1003E000FD3873EB050002D308F1010801E0921813
:1003F0005B41B8F1000F03DA00200146BDE8F08D43
:1004000000204FF48011064684460EE0171B73EB64
:10041000050705D3121B63EB050306434CEA010CE9
:1004200049084FEA300092185B4150EA0107EDD1CC
:1004300052EA030012D082EA040083EA050108436D
:1004400005D0101BAB4106D20122002306E000229A
:100450004FF0004302E06FF0010253101AEB060068
:100460004CEB085110EB0A0041EB0B01BDE8F04DDD
:1004700000F078B830B50B46014600202022012458
:1004800009E021FA02F59D4205D303FA02F5491B62
:1004900004FA02F52844151EA2F10102F1DC30BD78
:1004A0002DE9F05F0546002092469B4688460646A9
:1004B000814640241BE0284641464746224600F03C
:1004C0002FF853465A46C01A914110D31146184688
:1004D000224600F016F82D1A67EB01084F46224617
:1004E0000120002100F00DF817EB00094E41201EFD
:1004F000A4F10104DFDC484631462A464346BDE804
:10050000F09F202A04DB203A00FA02F10020704715
:100510009140C2F1200320FA03F319439040704741
:10052000202A04DB203A21FA02F00021704721FA48
:1005300002F3D040C2F120029140084319467047AF
:10054000202A06DBCB17203A41FA02F043EAE07397
:1005500006E041FA02F3D040C2F120029140084384
:100560001946704710B5141E73F1000408DA401CD8
:1005700041F1000192185B411A4301D120F00100C2
:1005800010BD2DE9F04D92469B4611B1B1FA81F2B2
:1005900002E0B0FA80F220329046FFF7B2FF044644
:1005A0000F4640EA0A0041EA0B0153465A46084307
:1005B00013D0114653EA010019D0C8F14002504649
:1005C000FFF7AEFF05460E46504659464246FFF736
:1005D00098FF084305D0012004E020463946BDE8D5
:1005E000F08D0020054346EAE0762C4337430A9815
:1005F0006305E40AA0EB08000022FD0A44EA475420
:100600000A3002D500200146E9E7010510196941C9
:10061000DDE9084500196941BDE8F04DA2E7C1F3E5
:100620000A52C1F3130140F2FF3341F480119A42A0
:1006300002DA00200146704740F233439A42A2F2A8
:10064000334202DC5242FFF76BBFFFF75ABF000094
:1006500030B5041E71F1000404DB4FF00044404249
:1006600064EB0101141E73F1000405DB1C464FF01E
:100670000043524263EB0403994208BF904230BDED
:100680001CB509480090094801900546009C06E009
:10069000E06840F0010394E8070098471034AC424A
:1006A000F6D3FFF727FD000094640008B464000847
:1006B000FEE7000070470000EFF3108072B600BF45
:1006C000FEE700002DE9F04F82B00E68002E00F02A
:1006D000FD8041F20042C4F20102042340F2004EC8
:1006E000904208BF03234FF6FF7CC4F2010E009333
:1006F00000240123C1F2100C4FF0000A4FF0000952
:100700004BE000BF41F20002C4F20102009F9042A0
:1007100008BF022704F00C030F229A402BEA0202C2
:1007200007FA03F34FEA9A051A4346F825204E6864
:1007300040F20C45F202DEF8082054BF22EA08021B
:1007400042EA0802C4F20105CEF808202A68B30282
:1007500054BF22EA080242EA08022A60B303DEF824
:10076000042054BF22EA080242EA0802F303CEF84A
:100770000420DEF800204FF0010354BF22EA0802F3
:1007800042EA0802CEF800200E680AF1010A36FAA1
:100790000AF204F1040400F0998003FA0AFB16EA55
:1007A0000B08F1D04E68664512DC122E56D8DFE8F1
:1007B00006F0350B4D49555555555555555555551B
:1007C00055555545510000BFD1F80C9046E000BF8B
:1007D0004FF6FF72C1F2210296420FDC0022C1F2F5
:1007E000110296421AD00022C1F21202964215D08E
:1007F0000022C1F22102964210D02FE00022C1F265
:10080000220296420AD00022C1F23102964205D05D
:100810000022C1F23202964220D100BF8A684AB15A
:10082000012A14BFC0F814B0C0F810B04FF0080986
:1008300014E000BF4FF0040910E000BFCA6802F1E5
:1008400004090BE04FF0000908E000BFCA6802F19C
:10085000080903E0CA6802F10C0900BF02462646F7
:10086000B8F5807F24BF0432203E17680F25B540BD
:1008700027EA050509FA06F635431560CA79D20656
:100880007FF582AF41F21803C4F202031A68AEF595
:100890007E7642F001021A601A6802F001020192AB
:1008A000019A2AF0030256F802B040F60002C4F2A0
:1008B0000102904208D040F60042C4F20102904288
:1008C0007FF420AF012725E7002723E702B0BDE82A
:1008D000F08F00008068084018BF012070470000BA
:1008E000002A08BF090401617047000040F27850F7
:1008F000C2F200000068704740F2000040F27851F8
:10090000C2F20000C2F2000100780A6810440860D8
:100910007047000080B542F20000C4F20200016896
:1009200041F010010160032000F08CF80F2000F06E
:1009300005F800F027F8002080BD000070B540F2F7
:100940000006C2F2000640F220013278C2F2000135
:100950004FF47A730968B3FBF2F20446B1FBF2F18B
:10096000084600F011FD0F2C4FF0010508D838B9EA
:100970004FF0FF3021460022002500F037F8746068
:10098000284670BD82B041F21800C4F2020001682E
:10099000022241F001010160016801F001010191B1
:1009A0000199416841F080514160406800F08050F9
:1009B000009000980420C4F20100016862F31A61FB
:1009C000016002B070470000002848BF704700F087
:1009D0001F01012202FA01F11C2202EAD0004EF2AC
:1009E0000012CEF2000281507047000010B54EF6A2
:1009F0000C5CCEF2000CDCF80030C3F3022E8EF05B
:100A00000704042C28BF0424BEF103034FF0FF3E6B
:100A10000EFA04F438BF0023A14399400EFA03F301
:100A20009A43114300F00F0200F160430901043AB8
:100A300003F564436244002848BF02F10C031970B7
:100A400010BD00004EF60C51CEF200010A684FF6C0
:100A5000FF031A4060F30A2242F0806040F0FD700C
:100A6000086070472020C4F20E2001210160704709
:100A7000012821D002280DD0102808D141F204010C
:100A8000C4F202010A6851F8040CC00134D40020F9
:100A9000704700BF80B500F0C7F941F20401C4F20D
:100AA000020109680222C1F3813102EB4101B0FB6E
:100AB000F1F0BDE88040704741F20400C4F202004A
:100AC000C16940F202320A40B2F5817F04BF4FF49F
:100AD0000040704701F44071B1F5407F18D0B1F586
:100AE000007F1CBF00207047006A49F64041800724
:100AF00001EAE070704700BFC2F3834015A3185CA1
:100B0000D2030DD440F60012C0F23D02504313E070
:100B100050F8040C4FF22441800301EAE070704762
:100B20000A6810A3C2F340429A5C41F20023C0F26B
:100B30007A03B3FBF2F250430968490248BF704799
:100B40004AF6AB214000CAF6AA21A0FB01014808E1
:100B5000704700BF02030405060708090A0B0C0DC5
:100B60000E0F1010010200002DE9F04182B0044682
:100B7000007841F21C06C007C4F202064AD0306871
:100B80005FEAC00808D4306840F0805030603068B8
:100B900000F080500190019847F20007C4F200076E
:100BA0003868C00512D4386840F480703860FFF7A8
:100BB0009DFE05463868C00508D4FFF797FE401B28
:100BC0006428F7D9032002B0BDE8F081706810F402
:100BD000407012D0616801F4407188420DD0706895
:100BE00040F24042C4F24222012320F440711360DB
:100BF0000023C0071360716026D17068616820F41B
:100C000040700843B8F1000F706003D4306820F0E2
:100C1000805030602068810707D556F8181CA268FC
:100C200021F44041114346F8181CC00607D556F878
:100C3000180CE16820F48000084346F8180C0020E6
:100C400002B0BDE8F08100BFFFF750FE054641F25B
:100C5000883700BF70688007CFD4FFF747FE401B7E
:100C6000B8424FF00300F5D9EAE70000002804BFBE
:100C7000012070472DE9F04381B042F20008C4F230
:100C800002080446D8F800000D4600F00700814233
:100C90000CD9D8F8000020F007002843C8F800005D
:100CA000D8F8000000F00700A8426CD1206841F29B
:100CB00004098107C4F2020917D5410705D5D9F8FF
:100CC000001041F4E061C9F80010010705D5D9F81A
:100CD000001041F46051C9F80010D9F80010A26862
:100CE00021F0F0011143C9F80010C00742D1D8F833
:100CF000000000F0070085420CD2D8F8000020F078
:100D000007002843C8F80000D8F8000000F00700EA
:100D1000A84238D12068410707D5D9F80010E26809
:100D200021F4E0611143C9F80010000708D5D9F893
:100D30000000216920F4605040EAC100C9F80000B9
:100D4000D9F8002002F00C00082841F20020C0F27F
:100D50007A004DD146F28F33C2F38341C0F60003CF
:100D6000595CD20338D440F60010C0F23D0048432D
:100D70003EE000BF606859F8041C022808D0012832
:100D800026D1890306D4012001B0BDE8F08300BF5D
:100D90008901F8D5D9F8001021F003010843C9F8FA
:100DA0000000FFF7A3FD064641F28837D9F800009E
:100DB000616800F00C00B0EB810F98D0FFF796FD52
:100DC000801BB842F2D9032001B0BDE8F08300BF18
:100DD0008907D8D5DEE700BFD9F8002045F2E863DF
:100DE000C2F34042C0F600039A5C4843B0FBF2F005
:100DF000D9F8001045F2D062C1F30311C0F6000229
:100E0000515C40F2200220FA01F140F20400C2F2EB
:100E100000000068C2F200021160FFF78FFD0020A1
:100E200001B0BDE8F083000040F2200041F204016F
:100E3000C2F20000C4F202010068096845F2E062F3
:100E4000C1F3C221C0F60002515CC84070470000E7
:100E5000002804BF012070472DE9F04182B004460C
:100E6000007841F20006C007C4F202060CD0706898
:100E700000F00C00042840F081803068800303D526
:100E80006068002800F04681207880071BD57068D4
:100E900010F00C0F09D0706800F00C00082840F02A
:100EA00087807068C00300F183803068800703D5B5
:100EB0002069012840F02E813068616920F0F80037
:100EC00040EAC10030602078000713D42078400742
:100ED0002CD4E569002D00F01881706800F00C003A
:100EE000082840F0A780012D40F00481012002B0C5
:100EF000BDE8F081A069002800F084800020C4F2E1
:100F000042200121C0F88014FFF7F0FC054600BF25
:100F1000706A800700F1B280FFF7E8FC401B0228EE
:100F2000F6D9032002B0BDE8F08100BFF0695FEAA6
:100F3000C00808D4F06940F08050F061F06900F01A
:100F400080500090009847F20007C4F2000738680C
:100F5000C00549D4386840F480703860FFF7C6FC9B
:100F6000054600BF3868C0053ED4FFF7BFFC401BF4
:100F70006428F7D9032002B0BDE8F081706800F062
:100F80000C00082803D17068C0033FF576AF616894
:100F90003068002900F00C81B1F5A02F00F000812D
:100FA000B1F5803F40F01A8140F480301CE100BF71
:100FB0002069002840F20000C4F2422000F088803E
:100FC00001210160FFF792FC054600BF30688007F1
:100FD0003FF572AFFFF78AFC401B0228F6D90320C9
:100FE00002B0BDE8F08100BFE168306A002900F07E
:100FF0009D80052900F09280012940F0AF8040F0EB
:101000000100B1E00020C4F242200021C0F88014A9
:10101000FFF76CFC054600BF706A80077FF556AF8E
:10102000FFF764FC401B0228F6D9032002B0BDE89C
:10103000F08100BF0027C4F2422700203866FFF786
:1010400055FC022D05460DD13068800140F1DE804F
:10105000FFF74CFC401B02284FF00300F4D902B00C
:10106000BDE8F081306880014FD5FFF73FFC401BA1
:1010700002284FF00300F5D9F1E700BF40F220004D
:10108000C2F20000006844F6D351C1F26201A0FB35
:101090000101480A019000BF00BF0198411E0028CD
:1010A00001913FF413AF00BF0198411E0028019148
:1010B0003FF40CAF00BF0198411E002801913FF49E
:1010C00005AF00BF0198411E00280191E4D1FDE663
:1010D00000210160FFF70AFC054600BF3068800769
:1010E0007FF5F1AEFFF702FC401B02284FF0030032
:1010F000F4D9B4E77068216A00F480328A4209D1D9
:10110000616A00F47010884204D1002002B0BDE88A
:10111000F08100BF012002B0BDE8F08140F0040082
:101120003062306A40F001001EE000BF20F0010094
:101130003062306A20F004003062FFF7D7FB0546CA
:1011400041F28837306A800720D5FFF7CFFB401B7C
:10115000B8424FF00300F5D981E700BF20F001004D
:101160003062306A20F004003062FFF7BFFB0546B2
:1011700041F28837306A800708D4FFF7B7FB401B7D
:10118000B842F7D9032002B0BDE8F081B8F1000FF2
:101190003FF59FAEF06920F08050F06199E600BF06
:1011A00040F480203060306840F480301CE000BFA4
:1011B00020F480303060306820F480203060FFF709
:1011C00095FB0546306880037FF55EAEFFF78EFB2A
:1011D000401B64284FF00300F4D940E720F480302E
:1011E0003060306820F480203060FFF77FFB0546D8
:1011F000306880033FF548AEFFF778FB401B64285A
:10120000F6D9032002B0BDE8F08100BF206AB0F536
:10121000803F05D17168A26821F4003111437160EB
:101220007168626A21F474111143084370600120EF
:101230003866FFF75BFB0446306880013FF565AF19
:10124000FFF754FB001B02284FF00300F4D906E718
:10125000002804BF0120704770B50446407C20B9C7
:1012600000202074204600F06BF802206074206893
:10127000416821F008014160FFF738FB064600BFD6
:1012800020684568FFF732FB290705460ED4A81BE6
:10129000B0F57A7FF4D901200421617470BD00BFDC
:1012A000FFF724FB401BB0F57A7FF4D8216848682B
:1012B0008006F5D5486846F62C4240F0100048609C
:1012C0004868C4F2000220F007004860A06818B126
:1012D000536823F001035360136823F460731843C9
:1012E00010606068421C05D10120FFF7C1FB18B3F4
:1012F00021680138C0F3034280B28A60C860486840
:1013000020F010004860FFF7F1FA054620684068B9
:10131000800607D4FFF7EAFA401BB0F57A7FF5D9CB
:10132000B9E700BF40F201110020A4F80D1001211F
:10133000E073617470BD00BF04210120617470BD51
:10134000006842F60001C4F20001884218BF7047ED
:1013500080B582B0FFF786FB41F21C00C4F20200A8
:10136000016841F0006101600068012100F0006047
:101370000190019840F23C40C4F24220016002B06A
:10138000BDE8804070470000411E0020B0EB116FA7
:101390001CBF012070474EF21002CEF200025160D5
:1013A0004EF62351CEF20001F0230B70072190601E
:1013B00011607047704700007047000090F83C20B3
:1013C000012A4FF0020236D010B580F83D200268A5
:1013D000D2F804E0D2F808C00C682EF07003234362
:1013E00040F2FF74C4F20004A24253600ADCB2F17E
:1013F000804F13D040F20043C4F200039A420DD054
:1014000011E000BF42F60043C4F201039A4205D046
:1014100040F60003C4F200039A4204D149682CF05C
:101420008003194391600121002280F83D1080F86B
:101430003C20BDE81040104670470000002804BF63
:101440000120704710B590F83D1031B9002180F8A7
:101450003C10044600F070F82046022180F83D1050
:10146000016840F2FF740B68C4F2000442F6004CBD
:10147000A142C4F2010C15DCB1F1804F1AD040F248
:101480000042C4F20002914214D0A14218DCB1F132
:10149000804F1DD040F20042C4F20002914217D0AA
:1014A0001AE000BF614505D040F60002C4F2000218
:1014B0009142EAD1826823F070031343A142E6DD32
:1014C000614505D040F60002C4F20002914203D10A
:1014D000026923F440731343846923F08002D0F837
:1014E00004E0C368224361450A60CB62C1F828E08A
:1014F00002D14269CCF8302001224A610B69DB0736
:1015000003D00B6923F001030B6180F8462080F8BB
:101510003E2080F83F2080F8402080F8412080F86D
:10152000422080F8432080F8442080F8452080F84D
:101530003D20002010BD000010B582B0006840F2D0
:10154000FF71C4F2000188421ADCB0F1804F3BD039
:1015500040F20041C4F20001884233D141F21C0044
:10156000C4F202000168002241F00201016000683B
:10157000002100F00200019001981D201D2446E08A
:1015800040F60001C4F2000188422FD042F600412B
:10159000C4F20101884215D141F21C00C4F20200DC
:1015A00050F8041C002241F4006140F8041C50F87B
:1015B000040C002100F40060019001981920192406
:1015C00025E000BF02B010BD41F21C00C4F20200D1
:1015D0000168002241F0010101600068032100F070
:1015E0000100019001981C201C2410E041F21C0015
:1015F000C4F202000168002241F0040101600068A9
:10160000002100F00400019001981E201E24FFF725
:10161000EDF9204602B0BDE81040FFF7D5B9000053
:1016200090F83D1001291CBF01207047022180F86D
:101630003D10006840F2FF72C168C4F2000290429F
:1016400041F00101C16009DCB0F1804F12D040F2DD
:101650000041C4F2000188420CD012E042F6004181
:10166000C4F20101884205D040F60001C4F2000135
:10167000884206D1816801F00701062904BF0020D5
:101680007047016841F001010160002070470000CF
:101690000146006841F21113C26822F00102C260E3
:1016A000026A1A4204D00122002081F83D207047CE
:1016B000026A40F244431A42F5D1026822F0010264
:1016C00002600122002081F83D20704790F83C2004
:1016D000012A4FF002026CD080B580F83D20D0F88E
:1016E00000C04FF67772DCF8083023EA0202CCF82B
:1016F00008200B684F2B29DC1F2B45DD202B46D003
:10170000302B44D0402B40F0AF80D1F804E0C968C2
:10171000DCF82030DCF8202022F00102CCF8202078
:10172000DCF8182022F0F00242EA011123F00A024C
:1017300042EA0E02CCF81810CCF82020DCF8081091
:1017400041F0470121F0300128E000BF6F2B33DD6D
:10175000B3F5005F74D0B3F5805F21D0702B40F0FB
:101760008380D1E901E3C968DCF8082043EA0E036D
:1017700022F47F4243EA01211143CCF80810DCF83F
:10178000081041F0770109E00BB1102B6CD1DCF8A7
:10179000081021F07001194341F00701CCF808103E
:1017A0000022012180F83D10002180F83C10BDE8A6
:1017B00080401046704700BF502B21D0602B53D182
:1017C000D1F804E0C968DCF82030DCF8202022F0F1
:1017D0001002CCF82020DCF8182022F4704242EAF3
:1017E000013123F0A00242EA0E12CCF81810CCF816
:1017F0002020DCF8081041F0670121F01001CDE74E
:10180000D1F804E0C968DCF82030DCF8202022F0B0
:101810000102CCF82020DCF8182022F0F00242EA85
:10182000011123F00A0242EA0E02CCF81810CCF89B
:101830002020DCF8081041F0570121F02001ADE72D
:10184000D1E901E3C968DCF8082043EA0E0322F479
:101850007F4243EA01211143CCF80810DCF808105C
:1018600041F480419AE700BF01229AE770470000E7
:1018700070B504460068C5680669B10716D515F04D
:10188000020113D06FF0020101610121217780690B
:10189000800703D02046FFF7E9FF05E0204600F06F
:1018A0008FF8204600F08EF800202077700719D5B9
:1018B00015F0040016D020686FF0040101610221C8
:1018C0002177806910F4407F04D02046FFF7CEFFD7
:1018D00006E000BF204600F073F8204600F072F8E2
:1018E00000202077300717D515F0080014D02068A5
:1018F0006FF00801016104212177C069800703D0DE
:101900002046FFF7B3FF05E0204600F059F82046D7
:1019100000F058F800202077F00619D515F01000D7
:1019200016D020686FF01001016108212177C0698D
:1019300010F4407F04D02046FFF798FF06E000BF78
:10194000204600F03DF8204600F03CF800202077CB
:10195000F00718BF15F0010002D1300609D412E0DB
:1019600020686FF001010161204600F02DF830067B
:1019700009D515F0800006D020686FF08001016164
:101980002046FFF717FD700609D515F0400006D078
:1019900020686FF040010161204600F057F8B00662
:1019A00058BF70BD15F0200008D021686FF02002EC
:1019B00020460A61BDE87040FFF7FEBC70BD000024
:1019C000704700007047000040F23002C2F200028F
:1019D0001168006842F60043C4F20103984201F125
:1019E0000101116006D0B0F1804F18BF704700F0C0
:1019F0005BB800BF40F27450C2F200000278012AC6
:101A000009D140F26852C2F200021268914222BF2C
:101A10000221017070474278012A09D140F26C52CC
:101A2000C2F200021268914222BF02214170704747
:101A30008278012A08D140F27052C2F20002126884
:101A4000914224BF0221817070470000704700005E
:101A5000FEE7000040F22801C2F2000108780028E9
:101A60001CBF00220A70704780B584B041F2180094
:101A7000C4F20200016841F0040101600068694697
:101A800000F00400009000980020019002200290D5
:101A9000032003903E20009040F60000C4F20100B5
:101AA000FEF710FE04B080BDB0B540F22805C2F2CA
:101AB0000005E8780130C1B21429E87038BFB0BD24
:101AC00040F60004A978C4F201040020E8706970AF
:101AD00020460221FEF7FEFE012801D101211FE070
:101AE00020460421FEF7F6FE012801D1022117E06D
:101AF00020460821FEF7EEFE012801D103210FE068
:101B000020461021FEF7E6FE012801D1042107E05E
:101B100020462021FEF7DEFE0021012808BF052116
:101B2000A97019B16878002808BF2970B0BD0000FD
:101B300070B586B0002541F21800CDE90455CDE915
:101B40000255C4F20200016840F6004441F0100161
:101B500001600168C4F2010401F0100101910199D2
:101B60000168002241F02001016001684FF44056F5
:101B700001F0200101910199016841F00801016023
:101B8000016801F0080101910199016841F0040127
:101B9000016000684FF4405100F00400019001988A
:101BA0002046FEF79DFE0120CDE9030502200590A9
:101BB00002A920460296FEF785FD06B070BD000022
:101BC00080B540F2344042F60001C2F20000C4F297
:101BD00000014FF0FF324FF4807380E80E00FFF7F2
:101BE00037FB002808BF80BDBDE88040FEF764BD1C
:101BF00080B586B040F2484042F600420021C2F271
:101C00000000C4F2010241F61F4342F2107C05912C
:101C1000CDE90311CDE90011C0E90023C0E9021CA0
:101C2000C0E904118161FFF709FC002818BFFEF725
:101C300043FD4FF48050029040F24840C2F2000051
:101C400002A9FFF743FD002818BFFEF735FD40F25B
:101C50004840C2F200006946FFF7B0FB002818BFF9
:101C6000FEF72AFD06B080BD80B586B040F29040F8
:101C70000021C2F200004FF08042632340F2E73CB3
:101C80000591CDE90311CDE90011C0E90023C0E9B8
:101C9000021C01618161FFF7D1FB002818BFFEF72C
:101CA0000BFD4FF48050029040F29040C2F20000D1
:101CB00002A9FFF70BFD002818BFFEF7FDFC40F25C
:101CC0009040C2F200006946FFF778FB002818BF79
:101CD000FEF7F2FC06B080BD80B586B040F2D84079
:101CE00040F200420021C2F20000C4F2000241F6BC
:101CF0001F4342F2107C0591CDE90311CDE900119B
:101D0000C0E90023C0E9021C01618161FFF796FB75
:101D1000002818BFFEF7D0FC4FF48050029040F22C
:101D2000D840C2F2000002A9FFF7D0FC002818BF7B
:101D3000FEF7C2FC40F2D840C2F200006946FFF74D
:101D40003DFB002818BFFEF7B7FC06B080BD0000C1
:101D500080B586B040F2205040F600020021C2F269
:101D60000000C4F2000241F61F4342F2107C0591CC
:101D7000CDE90311CDE90011C0E90023C0E9021C3F
:101D800001618161FFF75AFB002818BFFEF794FC40
:101D90004FF48050029040F22050C2F2000002A99D
:101DA000FFF794FC002818BFFEF786FC40F2205095
:101DB000C2F200006946FFF701FB002818BFFEF7DA
:101DC0007BFC06B080BD0000FEE700002DE9F04F6F
:101DD00085B040F2080746F2C43946F22E4546F275
:101DE000B136C2F20007C0F600094FF00008C0F695
:101DF00000054FF0100AC0F600064FF0800B09E016
:101E00008DE8000D0020002180221023CDF80CA0C9
:101E100000F0AAFFFFF71EFE01282BD0032823D0D5
:101E2000052800F08F803878032834D0022861D04C
:101E30000128EFD1002000214A46082302F000FDCE
:101E4000002010212A46082302F0FAFC002020215D
:101E50003246082302F0F4FC7878022868D0012882
:101E6000D8D1CDE900883FE00420012202230121DE
:101E700004E000BF03210020FF2201233C787B7097
:101E80002244D3B2834218BF1146397000F064FF78
:101E900038780328CAD1002000214A46082302F0DE
:101EA000CFFC002010212A46082302F0C9FC0020A4
:101EB00020213246082302F0C3FC787801280DD196
:101EC0002020CDE9010B0020302180221023CDF805
:101ED0000080CDF80CA000F047FF7878022899D157
:101EE0002020CDF80080019000201021CDF808B00E
:101EF0008AE700BF002000214A46082302F0A0FC28
:101F0000002010212A46082302F09AFC00202021FC
:101F10003246082302F094FC787802283FF470AF30
:101F200001287FF477AF8DE8000D002020216BE7BA
:101F3000CDE90088CDF808B0002000210022002360
:101F400064E700BF01F07CFA02F06AFD387805B062
:101F5000BDE8F08F2DE9F04F85B046F29F32C0F614
:101F6000000200200021082302F06AFC40F208076A
:101F7000C2F200073B7D46F2F238F87AC0F600085C
:101F8000397B7A7B46F25E45012B4346C0F600055D
:101F900008BF2B468DE807000020102108224FF0D3
:101FA000100B02F0C9F8B87B7A7DF97B43463E7C82
:101FB000012A08BF2B468DE843000020202108227B
:101FC00002F0BAF8787CBA7DB97CFB7C012A08BFA4
:101FD000A8468DE80B00002030210822434602F07D
:101FE000ABF802F01DFD46F2434546F2D738012614
:101FF000C0F60005C0F600084FF000094FF0000AD7
:10200000FFF728FD052817D003280BD0012818D189
:10201000013E300608BF042600F09EFE4FF0010A84
:102020000FE000BF0136F0B2052808BF012600F01E
:1020300093FE4FF0020A04E001F002FA02F0F0FC15
:10204000B14646F29F3200200021C0F6000208236C
:1020500002F0F6FB387D012804D002280ED1434659
:1020600001E000BF2B46F87A397B7C7BCDE900018B
:10207000002010210822029402F05EF8787D0128E9
:1020800004D002280ED1434601E000BF2B46B87BA6
:10209000F97B3C7CCDE9000100202021082202943C
:1020A00002F04AF8B87D012804D002280ED1434638
:1020B00001E000BF2B46787CB97CFC7CCDE90001B7
:1020C000002030210822029402F036F8F0B20138E4
:1020D00003286ED8DFE800F0022C121C5FFA8AF0A9
:1020E00001284BD0022864D10020CDE900008020D7
:1020F00002900020002100223DE000BF5FFA8AF03C
:10210000012825D0022854D100200090202037E05B
:102110005FFA8AF0012825D002284AD100200090D9
:102120003020019080200290002020212DE000BF6F
:102130005FFA8AF001282DD002283AD100200090C1
:102140008020102402900020002101942AE000BF8A
:10215000002000902020019080200290002030215B
:1021600013E000BF002000903020019080200290FA
:10217000002040218022002309E000BF00200090C1
:102180000190802002900020102180221023CDF8A1
:102190000CB00CE0002000901024802001940290EC
:1021A00000202021802210234FF0100B039400F018
:1021B000DBFD5FFA89F0013803283FF621AFDFE845
:1021C00000F0210D170300BF07F1110000F01CFB08
:1021D000411E012998BF387512E700BF07F10B00B7
:1021E00000F012FB411E0229BFF40AAF08E000BF55
:1021F00007F10E0000F008FB411E0229BFF400AFFA
:102200003875FDE6002005B0BDE8F08F2DE9F04FF0
:1022100085B065A2002000210823002402F010FBF5
:1022200066A20020102108234FF0100B02F008FBDB
:1022300069A20020202108234FF0200902F000FBB2
:102240006BA20020302108234FF0300802F0F8FA8A
:1022500002F0E6FB022701264FF0800A00250FE07E
:1022600000203021802210238DE81006CDF80CB01C
:1022700000F07AFD03260127E8B2012800F09080E3
:10228000FFF7E8FB052815D0032809D0012816D14F
:10229000013E00F061FD3006E2D001270FE000BFF3
:1022A0000136F7B200F058FD042F4FF0020706D1B7
:1022B0004CE000BF01F0C4F802F0B2FB3546F0B2CA
:1022C00001380328D8D8DFE800F00331152300BF18
:1022D000012F3BD10020102180221023CDE90044A2
:1022E000CDF808A0CDF80CB000F03EFD0127012686
:1022F000C2E700BF012FB3D000201021802210239D
:102300008DE81006CDF80CB000F02EFD032636E067
:10231000012F29D100204021802200238DE81005C3
:10232000CDF80CB000F020FD0426A4E7012F29D140
:102330000020202180221023CDE9004BCDF808A0F9
:10234000CDF80CB000F010FD022694E7002000212B
:1023500080220023CDE90044CDF808A0CDF80CB0D0
:1023600000F002FD012687E70020202180221023B3
:102370008DE81005CDF80CB000F0F6FC042602271D
:102380007AE700BF0020002180221023CDE9004B16
:10239000CDF808A0CDF80CB000F0E6FC02266BE703
:1023A000002005B0BDE8F08F3C2D2020202020200B
:1023B000202020202020202000000000E79C81E732
:1023C00094B5E6A8A1E5BC8F202020202020202065
:1023D000202020202020000077696669E68B93E5A5
:1023E000B195202020202020202020200000000067
:1023F000E585B3E4BA8EE997B9E9929F20202020C1
:102400002020202020202020200000002DE9F04F57
:1024100085B046F29F32C0F600020020002108235A
:102420004FF0000902F00CFA40F2745440F2080632
:10243000C2F20004C2F2000646F2F2352078B1780A
:10244000C0F60005F27846F25E482B463779C0F6B2
:102450000008012808BF43468DE8860000201021AF
:10246000082201F069FE60782B4601287079B17965
:10247000F27908BF43468DE807000020202108229A
:1024800001F05AFEA078717A0128307AB27A08BF3A
:1024900045468DE807000020302108222B4601F038
:1024A0004BFE02F0BDFA40F248454FF0010AC2F27D
:1024B00000054FF000084FF0000B05E02846FFF73D
:1024C000E7F82868C0F82490FFF7C4FA05281DD063
:1024D00003280DD001281ED1AAF1010A5FEA0A6083
:1024E00008BF4FF0040A00F037FC4FF0010B12E078
:1024F0000AF1010A5FFA8AF0052808BF4FF0010AC5
:1025000000F02AFC4FF0020B05E000BF00F098FF3E
:1025100002F086FAD04646F29F3200200021C0F633
:102520000002082302F08CF92078012806D0022846
:1025300013D146F2D733C0F6000303E046F243431B
:10254000C0F60003B078F1783779CDE900010020BA
:1025500010210822029701F0EFFD6078012807D0D2
:10256000022814D146F2D733C0F6000304E000BFBE
:1025700046F24343C0F600037079B179F779CDE9AB
:102580000001002020210822029701F0D5FDA0784B
:10259000012807D0022814D146F2D733C0F6000331
:1025A00004E000BF46F24343C0F60003307A717A7C
:1025B000B77ACDE90001002030210822029701F00E
:1025C000BBFD5FFA8AF0013803286AD8DFE800F023
:1025D000022C101C5FFA8BF001284BD0022860D12E
:1025E0008020CDE9009902900020002100223EE0E9
:1025F0005FFA8BF0012827D0022852D12020CDF895
:102600000090019038E000BF5FFA8BF0012825D0E0
:10261000022846D1302001908020CDF80090029011
:10262000002020212CE000BF5FFA8BF001282BD086
:10263000022836D180201027029000200021CDF8FA
:102640000090019728E000BF202001908020CDF865
:10265000009002900020302112E000BF3020019055
:1026600080200290002040218022CDF8009000239D
:1026700008E000BFCDE900998020029000201021E1
:1026800080221023102709E010278020CDF8009029
:10269000019702900020202180221023039700F050
:1026A00063FB5FFA88F00138032815D920780228E7
:1026B00006D16078022803D1A07802283FF4FEAE4C
:1026C00028680168C9077FF4FFAEC0F82490284647
:1026D000FEF7A6FFF8E600BFDFE800F00266063668
:1026E000002005B0BDE8F08F7479B579F67900F077
:1026F000A7FE46F29F32C0F6000200200021082308
:1027000002F09EF846F21043C0F6000300201021AC
:102710000822CDE90045029601F00EFD46F27C420A
:10272000C0F6000200203021082302F089F80020C2
:1027300000211022102301F013FD02F071F900BFF7
:10274000FFF788F9FCE700BF7479B579F67900F0F6
:1027500077FE46F29F32C0F60002002000210823D7
:1027600002F06EF846F21043C0F60003002010217C
:102770000822CDE90045029601F0DEFC46F27C42DB
:10278000C0F6000200203021082302F059F8002092
:1027900000211022102301F0E3FC02F041F900BFF8
:1027A000FFF758F9FCE700BFB478F578367900F008
:1027B00047FE46F29F32C0F60002002000210823A7
:1027C00002F03EF846F21043C0F60003002010214C
:1027D0000822CDE90045029601F0AEFC46F27C42AB
:1027E000C0F6000200203021082302F029F8002062
:1027F00000211022102301F0B3FC02F011F900BFF8
:10280000FFF728F9FCE700002DE9F04F87B00578C5
:1028100090F801B08478049000F012FE46F29F32E6
:10282000C0F6000200200021082302F009F846F259
:102830001043C0F60003002010210822CDE9005B00
:10284000CDE905450294102501F076FC46F27C4264
:10285000C0F60002002030210823302401F0F0FFF0
:10286000002000211022102301F07AFC02F0D8F899
:102870004FF001094FF000084FF0000AFFF7EAF8A7
:10288000052819D158E100BF0020002100220023B3
:10289000CDE900000295039500F066FA4FF00109BA
:1028A0004FF002085FFA8AF00138052820D9FFF7B7
:1028B000D1F8052800F0408103280DD0012840F010
:1028C0003C81A9F1010900F047FA5FEA096000F0D4
:1028D000B9814FF0010830E109F101095FFA89F689
:1028E00000F03AFA072ECFD04FF0020825E100BFE2
:1028F000DFE810F0280206004E00A8001C022C029F
:10290000102010211022102301F02AFC10201F217A
:102910001F221F2300F09EFD1020102110221023E3
:1029200002F0F4F8059C46F2104A5FFA8BF6C0F606
:10293000000A00BFFFF78EF8012805D0032807D052
:102940000528F7D1D8E000BF1727FF20002102E0BB
:10295000002701201721069BDAB28A4218BF1F18F0
:10296000F8B2CDE900060020102108225346029457
:1029700001F0E2FB10201F211F221F2300F06AFD3F
:10298000002010218022102302F0C0F80697D1E722
:10299000302010211022102301F0E2FB30201F21F3
:1029A0003F221F2300F056FD00201021802210231B
:1029B00002F0ACF80698059C46F2104AC6B2C0F682
:1029C000000A00BFFFF746F8012805D0032807D00A
:1029D0000528F7D126E000BF3B27FF20002102E0B9
:1029E000002701203B215FFA8BF28A4218BF0BEBD4
:1029F0000007F8B2CDE900600020102108225346FC
:102A0000029401F099FB30201F213F221F2300F088
:102A100021FD002010218022102302F077F8BB4610
:102A2000D0E700BF5FFA8BF0CDE9006000201021F5
:102A300008225346029401F07FFB30204FF0030A36
:102A400068E000BF502010211022102301F088FB05
:102A500050201F215F221F2300F0FCFC00201021CA
:102A60008022102302F052F80698059C46F2104A84
:102A7000C6B2C0F6000A00BFFEF7ECFF012805D081
:102A8000032807D00528F7D126E000BF3B27FF2009
:102A9000002102E0002701203B215FFA8BF28A42ED
:102AA00018BF0BEB0007F8B2CDE900600020102141
:102AB00008225346029401F03FFB50201F215F2261
:102AC0001F2300F0C7FC002010218022102302F0F9
:102AD0001DF8BB46D0E700BF5FFA8BF0CDE9006080
:102AE0000020102108225346029401F025FB5020BB
:102AF0004FF0040A0EE000BF06981021C0B2CDE9E5
:102B00000006002008225346029401F015FB102015
:102B10004FF0020A10211022102301F021FB0020A7
:102B200010218022102301F0F1FF3024FEF792FFE4
:102B300005287FF4C1AE00BFCA465FFA89F00138AC
:102B400005283FF6AFAEDFE800F0036133491B779D
:102B50005FFA88F002283FF497AE012840F0DA804F
:102B60000020CDE900001020102110221023029532
:102B7000039500F0F9F84FF001084FF0010991E6D4
:102B80005FFA88F002286FD0012840F0A78020204B
:102B900002905020302120221023CDE900540395CB
:102BA00000F0E2F84FF005094FF001087AE600BFA7
:102BB0005FFA88F0022865D0012840F0A3805020F9
:102BC000102110221023CDE900450295039500F055
:102BD000CBF84FF003094FF0010863E65FFA88F085
:102BE00002285DD0012840F091805020CDE90005F9
:102BF00010203021202210230295039500F0B4F814
:102C00004FF004094FF001084CE600BF5FFA88F06E
:102C1000022853D0012840F081803020102110225A
:102C20001023CDE900550295039500F09DF84FF073
:102C300002094FF0010835E65FFA88F0022851D00A
:102C400001286FD15020CDE900042020029070208F
:102C5000402100220023039500F086F84FF006097A
:102C60004FF001081EE600BF2020029050201021E6
:102C700010221023CDE90054039500F075F84FF0B1
:102C800005090DE61020102110221023CDE9004582
:102C90000295039500F068F84FF0030900E600BFC5
:102CA0005020CDE90005302010211022102302957C
:102CB000039500F059F84FF00409F1E500200021D8
:102CC00010221023CDE900550295039500F04CF831
:102CD0004FF002084FF00209E4E500BF4FF005098C
:102CE000E0E500BF5020CDE9000420200290102034
:102CF000302120221023039500F036F84FF006090A
:102D0000CEE500BF4FF00309CCE500BF4FF004094A
:102D1000C8E500BF4FF00109C4E500BF4FF002094C
:102D2000C0E500BF4FF00609BCE500BF0498069956
:102D300080F801B0017005998170012007B0BDE8ED
:102D4000F08F00BF002007B0BDE8F08F022007B071
:102D5000BDE8F08FFEE7000040F22C00C2F2000058
:102D600000210170704700002DE9F04F8DB09346AF
:102D70009846002B81466FD0BBF1000F0E4608EB42
:102D8000010A57D040F2340E0BEB09004FF0010C52
:102D9000C2F2000E354603E0013635B2AA455BDDCE
:102DA000B2B2402A4F4609D206F007020CFA02F4EA
:102DB000EA080EEBC2154A464F4615E07A1C12B2DD
:102DC0009042E9DDBA1C12B29042E5DDFA1C12B263
:102DD0009042E1DD04373AB29042EFDCDCE700BF1D
:102DE00004373AB29042D7DDBBB27F2B02D8AB5C3E
:102DF0006340AB547B1C1AB29042CDDD9BB27F2B5B
:102E000002D8AB5C6340AB54BB1C1AB29042C3DD2A
:102E10009BB27F2B02D8AB5C6340AB54FB1C1AB255
:102E20009042B9DD9BB27F2BDAD8AB5C6340AB54E8
:102E3000D6E700BF304600BF421C12B292450BDD00
:102E4000821C12B2924507DDC21C12B2924503DD0C
:102E5000043002B29245EFDC40F22C00C2F20000D6
:102E6000007818B10DB0BDE8F08F00BFDDE916762F
:102E70000B46DDE918107D1E0895751E4246079524
:102E80004D1E013740F234080695451E0497771C05
:102E900001310130C2F200080595039702910190BB
:102EA00009E000BFDDE90B3240F22C00C2F2000065
:102EB00000780028D6D116985FFA89FE70450DD8A3
:102EC0001799D8B2814209D818995FFA8BF08142DC
:102ED00004D81999D0B2814240F24681D0B20A900A
:102EE0000028D8B20C920B93099073D0DDE9092128
:102EF0005FFA8BF0002802EB010A59D00EEB0006B6
:102F0000144603E0013214B2A24563DD90B24028BA
:102F1000704607D202F0070001218140E40877469D
:102F2000704615E0411C09B28E42EBDD811C09B2EE
:102F30008E42E7DDC11C09B28E42E3DD043001B2EE
:102F40008E42EFDCDEE700BF043007B2BE42D9DDBF
:102F500083B27F2B06D808EBC41313F807C08CEAA2
:102F60000105DD55431C1FB2BE42CBDD9BB27F2B5A
:102F700004D808EBC413DD5D4D40DD55831C1FB242
:102F8000BE42BFDD9BB27F2B04D808EBC413DD5DCE
:102F90004D40DD55C31C1FB2BE42B3DD9BB27F2B3B
:102FA000D2D808EBC413DD5D4D40DD55CCE700BF42
:102FB000104600BF411C09B28A450BDD811C09B2D5
:102FC0008A4507DDC11C09B28A4503DD043001B220
:102FD0008A45EFDC169E179DA6EB09007645C0B228
:102FE00088BF09EB500909990B9A8D42A5EB0201A4
:102FF000189FC9B288BF02EB5102A7EB0B015FFA21
:103000008BF0C9B2874288BF0BEB510B0C99199B0F
:103010000A9C581AC0B2A34288BF01EB5001089C19
:103020005FFA89F0844208BFB146079ED0B286425B
:1030300008BF2A46069E5FFA8BF0864208BFBB4651
:10304000059FC8B2874208BF19465FFA81FE5FFA42
:1030500089FABEF1000F5FFA82FC0C910B926BD0E3
:103060005FFA8BF100290CEB0E0053D051446546FA
:10307000624603E0013215B2A8425DDD93B2402BF7
:1030800053460BD202F00703012707FA03F3EF08B8
:1030900008EBC7155746544616E000BF5F1C3FB209
:1030A000B942E7DD9F1C3FB2B942E3DDDF1C3FB20E
:1030B000B942DFDD04331FB2B942EFDCDAE700BF0B
:1030C000043427B2B942D5DDA6B27F2E02D8EE5D18
:1030D0005E40EE55661C37B2B942CBDDB6B27F2EEC
:1030E00002D8EE5D5E40EE55A61C37B2B942C1DD96
:1030F000B6B27F2E02D8EE5D5E40EE55E61C37B2CA
:10310000B942B7DDB6B27F2EDAD8EE5D5E40EE553D
:10311000D6E700BF614600BF4A1C12B290420BDDE9
:103120008A1C12B2904207DDCA1C12B2904203DD23
:1031300004310AB29042EFDC6446754601F070FC3F
:10314000199885420ED118995FFA8BF0884209D1FF
:103150001798DDE90B32844206D11698824503D1D7
:1031600064E100BFDDE90B3216985FFA89FE8645FF
:103170000DD81798D9B2814209D818985FFA8BF107
:10318000814204D81998D1B281427FF68DAED0B277
:103190000A900028D8B20C920B93099076D0DDE902
:1031A00009205FFA8BF1002902EB000A5CD00EEBDC
:1031B0000106144604E000BF013214B2A24565DDE9
:1031C00091B24029714609D202F00701012000FAAC
:1031D00001F1E4087746754616E000BF481C00B2CE
:1031E0008642E9DD881C00B28642E5DDC81C00B2DB
:1031F0008642E1DD043108B28642EFDCDCE700BF45
:1032000004352FB2BE42D7DDABB27F2B06D808EB18
:10321000C41313F807C08CEA0100D8556B1C1FB209
:10322000BE42C9DD98B27F2804D808EBC410C35D44
:103230004B40C355AB1C1FB2BE42BDDD98B27F28C8
:1032400004D808EBC410C35D4B40C355EB1C1FB240
:10325000BE42B1DD98B27F28D2D808EBC410C35D5E
:103260004B40C355CCE700BF114600BF481C00B21D
:1032700082450BDD881C00B2824507DDC81C00B208
:10328000824503DD043108B28245EFDC169E179DAE
:10329000A9EB0600B645C0B288BFA9EB5009099951
:1032A0000B9AA942A2EB0501189FC9B288BFA2EBF5
:1032B0005102ABEB07015FFA8BF0C9B2B84288BF8D
:1032C000ABEB510B0C99199B0A9CC81AC0B29C42DB
:1032D00088BFA1EB5001049C5FFA89F0844208BFCB
:1032E000B146039ED0B2864208BF2A46029E5FFACC
:1032F0008BF0864208BFBB46019FC8B2874208BF19
:103300001946C8B25FFA89FA00285FFA82FE0C916A
:103310000A900B9272D00A985FFA8BF100290EEB9B
:10332000000C59D051447746724603E0013217B27F
:10333000BC4563DD93B2402B534609D202F007032C
:10334000012000FA03F3FE085746544616E000BF7A
:10335000581C00B28142E9DD981C00B28142E5DDD3
:10336000D81C00B28142E1DD043318B28142EFDCA7
:10337000DCE700BF043427B2B942D7DDA5B27F2D08
:1033800004D808EBC615E85D5840E855651C2FB217
:10339000B942CBDDA8B27F2804D808EBC610C55DC2
:1033A0005D40C555A51C2FB2B942BFDDA8B27F282C
:1033B00004D808EBC610C55D5D40C555E51C2FB2AD
:1033C000B942B3DDA8B27F28D4D808EBC610C55DDA
:1033D0005D40C555CEE700BF714600BF481C00B236
:1033E00084450BDD881C00B2844507DDC81C00B293
:1033F000844503DD043108B28445EFDC744601F0F6
:103400000FFB19980A9981427FF44CAD18995FFA25
:103410008BF088427FF446AD1798DDE90B32844289
:103420007FF442AD169882457FF43EAD40F22C0108
:103430000120C2F2000108700DB0BDE8F08F00005D
:1034400080B540F23400C2F200004FF48061FCF716
:1034500070FE80BD2DE9F04F83B0994244D1904277
:103460001346B8BF0346C8BF0246402964D28FB294
:1034700001F00700012101FA00F0F90840F23407D9
:10348000C2F2000707EBC11112B204E004331BB211
:10349000934200F320839FB27F2F02D8CE5D064374
:1034A000CE555F1C3EB2964200F31583BFB27F2F0C
:1034B00002D8CE5D0643CE559F1C3EB2964200F325
:1034C0000A83BFB27F2F02D8CE5D0643CE55DF1CE4
:1034D0003EB2964200F3FF82BFB27F2FD6D8CE5DB8
:1034E0000643CE55D2E700BF90423BD199421A46DF
:1034F000B8BF0A46C8BF0B46802837D240F2340610
:103500004FF6F87C0127C2F200061BB205E000BFAF
:10351000511C0AB29A4200F3DE8295B23F2DF7D8D1
:1035200002EA0C0506EB051502F00704295C07FA10
:1035300004F421432954EBE710B200BF591C09B22F
:10354000814200F3C882991C09B2814200F3C38210
:10355000D91C09B2814200F3BE82191D0BB283420D
:10356000ECDDB8E218DD90469C4619E018B200BFC9
:10357000511C09B2814200F3AE82911C09B2814212
:1035800000F3A982D11C09B2814200F3A482111D6B
:103590000AB28242ECDD9EE280468C461046194615
:1035A0008C454FF0000A67460D46C8BF4FF0010A30
:1035B000CCF100094B428C45C4BF4F461D462AB290
:1035C0003CB20026121BB8F1800F4FF00004A0EBB4
:1035D000080B38BF0124BCF1400F38BF012626403C
:1035E0005A45A5EB0705009210DD4FEA4B0002900B
:1035F0008C45D8BF0B46ABEB050EC5EB4B0518460B
:10360000D8BFE14643467EB9434622E06A000292B3
:103610008C45D8BFE146A5EB0B0ECBEB45054FF033
:10362000000A4B46C1469EB14FF6F87640F234028E
:1036300006EA0C06C2F2000202EB06120CF00707C3
:10364000012412F80860BC40344302F8084000E04E
:10365000C1460FFA89F207B29742019740F33B82C5
:10366000009CA0EB09026FEA09064FEA4E0E00EB40
:103670000608BAF1000F02F003005FD000284FF6F1
:10368000BF7C00F023822AB2B2F1FF3F029E1FFAF4
:1036900089F1C8BF7646B2F1FF3FC8BF013361452B
:1036A00006EB050116D99DB27F2D13D84FF6F8729F
:1036B00040F2340722EA0902C2F20007072607EBAC
:1036C000021226EA09064FF0010A575D0AFA06F6C9
:1036D0003E43565509F1010701280DB200F0F7816C
:1036E000B5F1FF3F0299C8BF7146B5F1FF3FBAB2CD
:1036F000C8BF01336245294417D99DB27F2D14D824
:10370000ACEB09023F324FF6F87640F23407164030
:10371000C2F2000707EB061602F007024FF0010A9B
:10372000775D0AFA02F23A43725509F1020602285D
:103730000DB240F041833746C9E100BF8C4540F3EC
:10374000E580002852D02AB209F10101B2F1FF3F11
:10375000029F8EB2C8BF7746B2F1FF3FC8BF0133A8
:103760007F2E3D4415D85F42BAB23F2A11D84FF69A
:10377000F87240F234043A40C2F2000404EB021240
:1037800007F007074FF0010C945D0CFA07F7274389
:10379000975501282DB228D009F10201B5F1FF3F5C
:1037A000029A8EB2C8BF7246B5F1FF3FC8BF01335F
:1037B0007F2E154415D85F42BAB23F2A11D84FF672
:1037C000F87240F234043A40C2F2000404EB0212F0
:1037D00007F007074FF0010C945D0CFA07F7274339
:1037E000975502282DB240F00F8389461FFA88F0C2
:1037F0000328C0F0708140F234064FF6F87C4FF099
:103800000108C2F2000606E001990FFA89F0884229
:103810003D4480F2608109F1010029B287B2B1F123
:10382000FF3F0298C8BF7046B1F1FF3FC8BF0133E8
:103830007F2F0ED859428CB23F2C0AD801EA0C04D3
:1038400006EB041401F00701E25D08FA01F11143EF
:10385000E155284405B209F10200B5F1FF3F029F8E
:1038600080B2C8BF7746B5F1FF3FC8BF01337F289C
:103870000ED859428AB23F2A0AD801EA0C0206EB56
:10388000021201F00701145C08FA01F121431154FE
:10389000781905B209F10300B5F1FF3F029F80B22C
:1038A000C8BF7746B5F1FF3FC8BF01337F280ED8A8
:1038B00059428AB23F2A0AD801EA0C0206EB0212E8
:1038C00001F00701145C08FA01F121431154781941
:1038D00005B209F104091FFA89F0B5F1FF3F029F13
:1038E000C4BF774601337F288ED859428AB23F2A17
:1038F0008AD801EA0C0206EB021201F00701145CFF
:1039000008FA01F1214311547EE700BF5C4540F302
:103910007381002850D02AB2B2F1FF3F029FC8BF86
:103920007746B2F1FF3FC8BF01339EB209F10101F2
:103930007F2E3D4414D88AB23F2A11D84FF6F87230
:1039400040F234040A40C2F2000404EB021201F017
:1039500007074FF0010C945D0CFA07F727439755C2
:1039600001282DB227D0B5F1FF3F0299C8BF71469B
:103970004E19B5F1FF3FC8BF01339DB27F2D09F14C
:10398000020114D88AB23F2A11D84FF6F87240F2D9
:1039900034040A40C2F2000404EB021201F00707EB
:1039A0004FF0010C545D0CFA07F7274357550228D6
:1039B00035B240F04F8289461FFA88F00328C0F0E4
:1039C0008A8040F234064FF6F87C4FF00108C2F2CC
:1039D000000605E001990FFA89F088423D447ADA41
:1039E00028B2B0F1FF3F029FC8BF7746B0F1FF3F5A
:1039F000C8BF013398B27F280FD809F101018CB2FA
:103A00003F2C0AD801EA0C0406EB041401F007016C
:103A1000225C08FA01F111432154781905B2B5F17D
:103A2000FF3F029FC8BF7746B5F1FF3FC8BF0133D4
:103A300098B27F280FD809F102018AB23F2A0AD82A
:103A400001EA0C0206EB021201F00701145C08FA0D
:103A500001F121431154781905B2B5F1FF3F029FDE
:103A6000C8BF7746B5F1FF3FC8BF013398B27F2882
:103A70000FD809F103018AB23F2A0AD801EA0C02E1
:103A800006EB021201F00701145C08FA01F1214370
:103A90001154781905B2029FB5F1FF3FC4BF7746B4
:103AA000013398B27F2809F1040993D81FFA89F1EC
:103AB0003F298FD809EA0C0106EB011109F0070232
:103AC0000C5C08FA02F222430A5483E74F461FFABD
:103AD00088F0032802D203B0BDE8F08F40F2340B27
:103AE0004FF6F87A4FF00109C2F2000B06E000BF72
:103AF000381D07B201980D448742ECDA28B2B0F1C4
:103B0000FF3F0299C8BF7146B0F1FF3FB8B2C8BFCE
:103B1000013360450FD998B27F280CD82AEA0706EE
:103B200007220BEB0616BA4316F8008009FA02F2D8
:103B300042EA08023254481901B2B1F1FF3F029D36
:103B400007F14100C8BF7546B1F1FF3F80B2C8BF61
:103B500001333F2810D898B27F280DD8ACEB07026C
:103B60003F3202EA0A060BEB061602F00702345C4B
:103B700009FA02F222433254681801B2B1F1FF3F50
:103B8000029D07F14200C8BF7546B1F1FF3F80B208
:103B9000C8BF01333F2810D898B27F280DD8ACEBAE
:103BA00007023E3202EA0A040BEB041402F0070299
:103BB000265C09FA02F232432254681805B207F172
:103BC0004300B5F1FF3F029980B2C4BF7146013393
:103BD0003F288DD898B27F288AD8ACEB07023D32B7
:103BE00002EA0A040BEB041402F00702265C09FA4D
:103BF00002F2324322547BE7002850D02AB209F166
:103C00000101B2F1FF3F029F8EB2C8BF7746B2F109
:103C1000FF3FC8BF01337F2E3D4414D89AB23F2ADC
:103C200011D84FF6F87240F234041A40C2F2000480
:103C300004EB021203F007074FF0010C945D0CFA3D
:103C400007F72743975501282DB227D009F1020124
:103C5000B5F1FF3F029A8EB2C8BF7246B5F1FF3F81
:103C6000C8BF01337F2E154414D89AB23F2A11D809
:103C70004FF6F87240F234041A40C2F2000404EB2A
:103C8000021203F007074FF0010C945D0CFA07F7DE
:103C90002743975502282DB240F0028189461FFA2A
:103CA00088F00328FFF417AF40F234064FF6F87C93
:103CB0004FF00108C2F2000607E000BF01990FFAB9
:103CC00089F088423D44BFF606AF09F101002CB2ED
:103CD00087B2B4F1FF3F0298C8BF7046B4F1FF3F0E
:103CE000C8BF01337F2F0DD89CB23F2C0AD803EAFE
:103CF0000C0406EB041403F00702E15D08FA02F27B
:103D00001143E155284405B209F10200B5F1FF3F26
:103D1000029F80B2C8BF7746B5F1FF3FC8BF0133ED
:103D20007F280DD899B23F290AD803EA0C0106EB87
:103D3000011103F007020C5C08FA02F222430A5454
:103D4000781905B209F10300B5F1FF3F029F80B277
:103D5000C8BF7746B5F1FF3FC8BF01337F280DD8F4
:103D600099B23F290AD803EA0C0106EB011103F0CE
:103D700007020C5C08FA02F222430A54781905B2D1
:103D800009F104091FFA89F0B5F1FF3F029FC4BF92
:103D9000774601337F2891D899B23F298ED803EA1C
:103DA0000C0106EB011103F007020C5C08FA02F2A9
:103DB00022430A5482E700BFB5F1FF3F0298B1B237
:103DC00009F10307C4BF70460133614505447FF61E
:103DD0007EAE98B27F283FF67AAEACEB09013E3159
:103DE0004FF6F87240F234060A40C2F2000606EBC3
:103DF000021201F007014FF00109165C09FA01F106
:103E00003143115463E600BF09F103091FFA89F039
:103E1000B5F1FF3F0299C4BF714601337F280D44BD
:103E20003FF6E4AC59428AB23F2A3FF6DFAC4FF688
:103E3000F87240F234060A40C2F2000606EB0212A3
:103E400001F007010127165C07FA01F13143115413
:103E5000CCE400BF0298B5F1FF3FC8BF70460544EF
:103E6000C8BF013398B27F2809F103093FF6A4AD1A
:103E70001FFA89F13F293FF69FAD4FF6F87140F2E6
:103E8000340601EA0901C2F2000606EB011109F04D
:103E9000070201270E5C07FA02F232430A548BE54F
:103EA00009F103091FFA89F0B5F1FF3F0299C4BF78
:103EB000714601337F280D443FF6F1AE99B23F2998
:103EC0003FF6EDAE4FF6F87140F234061940C2F2FB
:103ED000000606EB011103F0070201270E5C07FA4A
:103EE00002F232430A54DAE6B0B540F60044C4F2B6
:103EF00001040546C20920464FF40051FCF7F0FCCE
:103F000020464FF480510122FCF7EAFC20464FF492
:103F100080510022FCF7E4FCC5F3801220464FF4E8
:103F20000051FCF7DDFC20464FF480510122FCF7E4
:103F3000D7FC20464FF480510022FCF7D1FCC5F39A
:103F4000401220464FF40051FCF7CAFC20464FF4C3
:103F500080510122FCF7C4FC20464FF4805100221E
:103F6000FCF7BEFCC5F3001220464FF40051FCF7ED
:103F7000B7FC20464FF480510122FCF7B1FC2046EB
:103F80004FF480510022FCF7ABFCC5F3C002204681
:103F90004FF40051FCF7A4FC20464FF4805101225D
:103FA000FCF79EFC20464FF480510022FCF798FC61
:103FB000C5F3800220464FF40051FCF791FC2046E7
:103FC0004FF480510122FCF78BFC20464FF48051C6
:103FD0000022FCF785FCC5F3400220464FF4005157
:103FE000FCF77EFC20464FF480510122FCF778FC60
:103FF00020464FF480510022FCF772FC05F00102CC
:1040000020464FF40051FCF76BFC20464FF48051E2
:104010000122FCF765FC20464FF480510022FCF79A
:104020005FFC20464FF480510122FCF759FC2046EA
:104030004FF480510022BDE8B040FCF751BC0000B5
:1040400010B584B041F21800C4F20200016840F6D5
:10405000004441F0080101600068C4F2010400F06E
:1040600008000090009811200190032003904FF465
:104070004050009069462046FCF724FB20464FF450
:1040800080510122FCF72CFC20464FF40051012204
:10409000FCF726FCAE2000F091FDD52000F08EFD4F
:1040A000802000F08BFDA82000F088FD3F2000F06C
:1040B00085FDD32000F082FD002000F07FFD402030
:1040C00000F07CFDA12000F079FDC82000F076FD15
:1040D000DA2000F073FD122000F070FD812000F066
:1040E0006DFDCF2000F06AFDD92000F067FDF120C2
:1040F00000F064FDDB2000F061FD302000F05EFD8B
:10410000A42000F05BFDA62000F058FD8D2000F0FB
:1041100055FD142000F052FDAF2000F04FFD40F29D
:104120003400C2F200004FF48061FCF702F800F0A6
:1041300077FC04B010BD0000F0B5C1B001AF14466B
:104140000D46064646AA38461946009200F040FE43
:10415000304629463A46234600F072FB41B0F0BD96
:10416000002B08BF70472DE9F041002A03EB01083E
:1041700062D040F2340E02444FF0010CC2F2000E45
:104180000D4603E001310DB2A84559DD8BB2402B3D
:10419000044609D201F007030CFA03F4EB080EEB16
:1041A000C3150746064615E0631C1BB29A42E9DDBB
:1041B000A31C1BB29A42E5DDE31C1BB29A42E1DD6F
:1041C000043423B29A42EFDCDCE700BF043637B296
:1041D000BA42D7DDB3B27F2B02D8EB5D6340EB551B
:1041E000731C1FB2BA42CDDD9BB27F2B02D8EB5DB0
:1041F0006340EB55B31C1FB2BA42C3DD9BB27F2BA9
:1042000002D8EB5D6340EB55F31C1FB2BA42B9DD37
:104210009BB27F2BDAD8EB5D6340EB55D6E700BF4E
:10422000881C00B280450BDDC81C00B2804507DD4C
:10423000043108B2804503DD481C00B28045EFDC44
:10424000BDE8F041704700002DE9F04F8BB0002B26
:1042500003920A907AD0039803EB0108002863D0F8
:104260000A9A40F2340E86184FF0010CC2F2000E8A
:104270000C46894606E000BF09F101090FFA89F4EE
:10428000A04563DD1FFA89F2402A0A9A0CD209F090
:1042900007020A9D0CFA02F2E4086FEA020A0EEB2A
:1042A000C4172A4616E000BF541C24B2A642E3DD20
:1042B000941C24B2A642DFDDD41C24B2A642DBDD6E
:1042C000043214B2A642EFDCD6E700BF04352AB2AE
:1042D0009642D1DDACB27F2C03D8BC5C04EA0A0460
:1042E000BC546C1C22B29642C6DDA4B27F2C03D80B
:1042F000BC5C04EA0A04BC54AC1C22B29642BBDD8E
:10430000A4B27F2C03D8BC5C04EA0A04BC54EC1CA5
:1043100022B29642B0DDA4B27F2CD7D8BC5C04EAAE
:104320000A04BC54D2E700BF0A4600BF571C3FB284
:10433000B8450BDD971C3FB2B84507DDD71C3FB22F
:10434000B84503DD043217B2B845EFDC5A1EDDF87C
:104350000C8002EB5272B8F1000F4FEAE20700F056
:10436000578201EB5172D31003EBE130049008F057
:10437000030022F00702082307900A988A1A03EA2A
:1043800011310A44411C0191811C009140F2340119
:10439000C2F200011FFA82F9C2F1080201441FFAB9
:1043A00082FA08F0FC0C0291002200210597CDF85A
:1043B00024C00CE017783B43137000BF0899059F99
:1043C0000131CAB2DDF824C09742C0F236820891AA
:1043D000CBB2149908FB031B049B02FB08119E1827
:1043E000082E06F1010206917CD2082A80F0CC80CA
:1043F000B8F1040F80F00E814FF0000C0799DDF842
:104400000C800029DAD00CEB00037F2B1BD8069917
:1044100040F2340EC2F2000E14460A4611F80C7037
:1044200031460EEBC616F55C07FA09F72F43F75431
:1044300012F80C700EEBC416F55C27FA0AF72F433E
:104440002246F7540E4607990129B7D001990CEB83
:1044500001037F2B21D8069840F2340B0CF10107A1
:10446000C2F2000B10F807E00BEBC61515F803803D
:1044700031460EFA09F646EA080614460246EE549C
:10448000D75D0BEBC416F55C27FA0AF70A98DDF83E
:104490000C802F432246F7540E46079902298DD0EF
:1044A00000990CEB01077F2F88D8069840F2340161
:1044B0000CF10203C2F2000110F803C001EBC615B3
:1044C00015F807E00CFA09F646EA0E06144602460D
:1044D000EE55D35C0A9801EBC41223FA0AF33A446E
:1044E00068E700BF072A3FF669AF9446B8F1040FAA
:1044F00080F004810025079900293FF45FAF2B1855
:1045000062467F2B10D8069810F805C040F23400A0
:10451000C2F2000000EBC21616F803E02CFA0AF70C
:104520000A9847EA0E07F754079901293FF446AF66
:1045300001996B187F2B11D806986F1C10F807C0D3
:1045400040F23400C2F2000000EBC21616F803E09D
:104550002CFA0AF70A9847EA0E07F7540799022936
:104560003FF42CAF00996F187F2F3FF627AF0699C5
:10457000AB1CCB5C40F23401C2F2000101EBC21271
:1045800023FA0AF33A4415E7B8F1040F80F00481E6
:10459000B6460025079900293FF410AF2A187F2A54
:1045A0000CD806994B5D40F23401C2F2000101EBD8
:1045B000CE17BE5C03FA09F33343BB5407990129B4
:1045C0003FF4FCAE01996A187F2A0DD806996B1C3E
:1045D000CB5C40F23401C2F2000101EBCE17BE5CAD
:1045E00003FA09F33343BB54079902293FF4E6AEBB
:1045F00000996A187F2A3FF6E1AE0699AB1CCB5CA6
:1046000040F23401C2F2000101EBCE1703FA09F3C4
:104610003A44CFE602994FF0000C01EBC61506E0D4
:1046200009980CF1040C60450A983FF4E7AE00EBE2
:104630000C037F2B05EB0C0E0CD9591C7F290BEBBF
:104640000C081ED9991C7F2930D9D91C7F29E7D89D
:1046500041E000BF1BF80C1015F80C4001FA09F1FD
:10466000214305F80C101BF80C109EF8804021FA2D
:104670000AF121438EF88010591C7F290BEB0C089E
:10468000E0D898F801109EF8014001FA09F12143A1
:104690008EF8011098F801109EF8814021FA0AF175
:1046A00021438EF88110991C7F29CED898F80210EA
:1046B0009EF8024001FA09F121438EF8021098F8A1
:1046C00002109EF8824021FA0AF121438EF88210EE
:1046D000D91C7F29A4D898F803109EF8033001FA5A
:1046E00009F119438EF8031098F803109EF88330EF
:1046F00021FA0AF119438EF8831091E70299099A79
:1047000001EBC613002503E00435AA423FF4F3AEE3
:1047100047197F2F0AD9791C7F2914D9B91C7F2901
:104720001FD9F91C7F29EFD829E000BF1BF805101D
:104730005E1996F8804021FA0AF1214386F880102C
:10474000791C7F29EAD80BEB050149785E1996F8A8
:10475000814021FA0AF1214386F88110B91C7F2992
:10476000DFD80BEB050189785E1996F8824021FAB3
:104770000AF1214386F88210F91C7F29C4D80BEB7B
:104780000501C9785F1997F8836021FA0AF131436E
:1047900087F88310B8E700BF0299B64601EBC6134D
:1047A000002503E00435AC453FF4F4AE42197F2AFE
:1047B00006D81BF805705E5D07FA09F737435F55A9
:1047C000571C7F2F0BEB050603EB050706D9911C41
:1047D0007F290CD9D11C7F29E4D811E071787C782D
:1047E00001FA09F121437970911C7F29F2D8B1783F
:1047F000BC7801FA09F12143B970D11C7F29D1D8C5
:10480000F178FA7801FA09F11143F970CAE700BFAB
:10481000002000BF40F00101C9B28F420DDB40F023
:104820000201C9B28F4208D340F00301C9B28F42DE
:1048300003D30430C1B28F42ECD20BB0BDE8F08F8D
:104840002DE9F04F89B0154612780591002A06909F
:1048500000F0E2800DF11F01881C0490C81C45F295
:10486000EA6A98460390081DC0F6000A4FF0250B2F
:1048700000264FF00009029016E000BF069845F6AA
:104880006531C0F60001304401F1BA07059900B264
:10489000062208230097FFF7D7FC06361FFA89F097
:1048A0002A5C002A00F0B88050B2B0F1FF3F13DC60
:1048B00002F0E000C02809F1010029D002F0F00167
:1048C000E02933D002F0F801F02943D081B26A5CCC
:1048D0008146002AE8D19FE000208DF8200006984C
:1048E000B8F1060F304400B28DF81F2000F0808030
:1048F000B8F1080F40F08C8045F69F51C0F60001DA
:1049000001EB0211A1F500770599082210237CE044
:1049100080B2285C8DF81F20002800F07D808DF883
:104920002000049809F102092FE000BF80B2285C42
:104930008DF81F2000286FD009F1020189B2695C4F
:104940008DF82000002967D0039809F103098DF83C
:1049500021101AE080B2285C8DF81F2000285BD05F
:1049600009F1020189B2695C8DF82000002953D059
:1049700009F1030080B2285C8DF8211000284BD08B
:104980008DF82200029809F104099AF80010002914
:104990004FF00001017015D00024574638460DF144
:1049A0001F01FBF7D1FB48B10134A0B200FB0BF1B2
:1049B0001AF8011000FB0BA70029EFD1B8F1060F80
:1049C00005D15BE75746B8F1060F3FF457AFB8F192
:1049D000080F7FF463AF069805993044053700B29D
:1049E000102210230097FFF72FFC103656E700BF68
:1049F00002EB420145F66532C0F6000202EB4101CE
:104A0000A1F1C0070599062208230097FFF71CFCB7
:104A100009F10109464441E709B0BDE8F08F000003
:104A200010B5B02000F0CAF8102000F0C7F8002040
:104A300000F0C4F840F23404C2F2000420468021A1
:104A400000F0F8F8B12000F0B9F8102000F0B6F846
:104A5000002000F0B3F804F18000802100F0EAF8B3
:104A6000B22000F0ABF8102000F0A8F8002000F011
:104A7000A5F804F58070802100F0DCF8B32000F088
:104A80009DF8102000F09AF8002000F097F804F547
:104A9000C070802100F0CEF8B42000F08FF8102014
:104AA00000F08CF8002000F089F804F500708021F7
:104AB00000F0C0F8B52000F081F8102000F07EF87A
:104AC000002000F07BF804F52070802100F0B2F89F
:104AD000B62000F073F8102000F070F8002000F00D
:104AE0006DF804F54070802100F0A4F8B72000F0C4
:104AF00065F8102000F062F8002000F05FF804F57F
:104B000060708021BDE8104000F094B82DE9F04FAE
:104B100081B09046CA13C2F342320A440B4412B227
:104B2000013BD21003EB5373DC1002EBE136B1F121
:104B3000FF3F4FF00102C8BF02EBE304B44239DD8E
:104B40000546802826D2E8B2000940F2340A00F176
:104B5000100905F00F0BC2F2000A374604E000BF4F
:104B6000013637B2BC4225DDB0B20728F8D846F08E
:104B7000B000C0B200F022F8484600F01FF85846D6
:104B800000F01CF80AEBC7102844414600F052F828
:104B9000E6E700BF701C00B284420BDDB01C00B21F
:104BA000844207DDF01C00B2844203DD043630B2DB
:104BB0008442EFDC01B0BDE8F08F0000B0B540F6F4
:104BC0000044C4F20104054620464FF4005101227E
:104BD000FBF786FE20464FF480510122FBF780FE52
:104BE00020464FF400510022FBF77AFE20464FF496
:104BF00080510022FBF774FE7820FFF775F9002042
:104C0000FFF772F92846FFF76FF920464FF400517D
:104C10000022FBF765FE20464FF480510122FBF78E
:104C20005FFE20464FF400510122BDE8B040FBF783
:104C300057BE000070B540F60044C4F201040D46B2
:104C4000064620464FF400510122FBF749FE20465C
:104C50004FF480510122FBF743FE20464FF40051F0
:104C60000022FBF73DFE20464FF480510022FBF767
:104C700037FE7820FFF738F94020FFF735F93DB1CE
:104C8000013E00BF16F8010FFFF72EF9013DF9D1E3
:104C900020464FF400510022FBF722FE20464FF43D
:104CA00080510122FBF71CFE20464FF400510122E7
:104CB000BDE87040FBF714BE70470000704700006D
:104CC000FBF71ABE7047000040F24840C2F20000F5
:104CD000FCF7CEBD40F29040C2F20000FCF7C8BD28
:104CE00040F2D840C2F20000FCF7C2BD40F22050B2
:104CF000C2F20000FCF7BCBDFEE7000094B0FBF779
:104D000009FE052000240A904FF480300225CDE9E9
:104D10000B04CDE911504FF4E010012113900AA8C3
:104D2000CDE90F44CDE90344CDE90D11FCF790F82E
:104D300020B1EFF3108072B6FEE700BF0F20CDE97F
:104D400005054FF48060CDE9080405A80221079409
:104D5000FBF78CFF20B1EFF3108072B6FEE700BFC7
:104D6000012001904FF48070029001A8FBF7FCFE37
:104D700020B1EFF3108072B6FEE700BFFCF7D8FE5B
:104D8000FCF772FFFCF71CFFFCF732FFFCF7A4FFF7
:104D9000FCF7DEFFFFF754F9FCF766FE40F29040A7
:104DA000C2F20000FCF73CFC02E000BFFDF7D2F8C5
:104DB000FDF70CF8032807D00228F7D00128F7D117
:104DC000FDF724FBF4E700BFFDF720FAF0E7000051
:104DD00037B514460846064B6A46214600F0DCF813
:104DE00004466946002000F06EFC20463EBD0000EF
:104DF000C756000802E008C8121F08C1002AFAD1ED
:104E000070477047002001E001C1121F002AFBD14A
:104E1000704700002DE9FF5F82B00021DDE904301A
:104E2000020DDDF840B0034318D044F61050A2F252
:104E3000FF3242431514119801281FD0A5EB0B0037
:104E4000401C5FEA000A4FF000064E4FDFF8389131
:104E5000B046504615D5CAF1000413E0119801245C
:104E60004AA3012801D16FEA0B010298119AC0E907
:104E70000031C0E9024206B0BDE8F09FCBF100006E
:104E8000DFE704460021404A491842EB0450CDE9CF
:104E9000001012E0E00707D032463B464046494644
:104EA000FBF707FA8046894632463B4610461946CC
:104EB000FBF7FFF906460F466410002CEAD1DDE946
:104EC0000401DDE90023BAF1000F06DAFBF7F1F97E
:104ED00042464B46FBF7EDF905E0FBF75CFA42462C
:104EE0004B46FBF758FA04460E460022284BFBF7C8
:104EF000AFFB03D84FF0FF30014607E00022254BFF
:104F000020463146FBF72EF9FBF789FB102409E018
:104F1000002C0ADB0A220023FBF7C2FA039B303283
:104F20001A55641E50EA0102F2D1641C039AC4F1BE
:104F300011031444119A012A03D0012208430DD110
:104F40000AE0084304D000204FF0110B119072E7E3
:104F5000A3EB0B056D1E0DE05B4504DD4FF0000279
:104F600005F1010504E003DA4FF00002A5F10105A7
:104F7000002AECD002981199C0E90231C0E900453D
:104F800079E70000000014400000F03F300000000E
:104F90000000F0430000E03F2DE9FF4F95B09B4635
:104FA0008946064600250FE2252877D100242746AA
:104FB000F84A0121059400E0044316F8013F203B24
:104FC00001FA03F01042F7D130782A2811D06FF09F
:104FD0002F033078A0F13002092A16D8059A44F040
:104FE000020402EB820203EB42021044761C05909D
:104FF000EFE759F8042B0592002A03DA504244F4F3
:105000000054059044F00204761C30782E2816D106
:1050100016F8010F44F004042A280DD06FF02F0277
:105020003078A0F13003092B09D807EB870302EB96
:105030004303C718761CF3E759F8047B761C3078D5
:105040006C280FD006DC4C2817D068280DD06A28B1
:1050500014D104E0742810D07A280FD10DE044F464
:1050600000140AE044F4801401E044F4401472781F
:10507000824202D104F58014761C761C30786628B2
:105080000BD013DC582877D009DC002875D04528D0
:10509000F6D04628F4D047281AD19DE118E06328BD
:1050A00035D0642879D0652812D195E1702873D065
:1050B00008DC6728F1D069286FD06E280DD06F28E2
:1050C00006D1B5E073282CD0752875D0782874D017
:1050D0005A46179990476D1C75E1C4F30250022897
:1050E00009D003280DD0D9F8001004280DD00D6088
:1050F00009F1040967E1D9F80010EA17C1E9005283
:10510000F6E7D9F800100D80F2E70D70F0E719F816
:10511000041B8DF8001000208DF80100EA460120E4
:1051200003E059F804AB4FF0FF3061074FF0000186
:1051300002D40DE008F101018846B9420FDA80453A
:10514000F8DB1AF808100029F4D108E008F1010191
:1051500088468142FADB1AF808100029F6D1059832
:105160005B46A0EB080721463846179A00F094FAF0
:10517000284400EB080507E04DE029E10DE01AF8AE
:10518000010B5A4617999047B8F10108F7D25B46D0
:1051900021463846179A13E142E00A220092C4F3EE
:1051A00002524FF0000A022A08D059F804CB032A11
:1051B0004FEAEC710AD00DE029E02AE009F107017D
:1051C00021F00702F2E802C1914609E00FFA8CFCD7
:1051D0004FEAEC71042A03D14FFA8CFC4FEAEC71D0
:1051E000002907DA0A460021DCF1000C61EB02011C
:1051F0002D2202E0220504D52B228DF80420012265
:1052000003E0E20701D02022F7E7904659E00A21A7
:1052100002E010220DE010214FF0000A00910BE097
:1052200010224FF0000A44F004040827009203E023
:1052300008224FF0000A0092C4F30252022A05D05D
:1052400059F804CB0021032A08D009E009F107012D
:1052500021F00702F2E802C1914605E01FFA8CFC3A
:10526000042A01D10CF0FF0C4FF00008220728D5CA
:10527000702806D0009B83F0100353EA0A0305D080
:105280000EE040228DF80420012208E05CEA0102D1
:1052900006D030228DF804208DF8050002229046B9
:1052A000009B83F0080353EA0A030AD15CEA010277
:1052B00001D1620705D530228DF804204FF0010896
:1052C0007F1E582804D034A003900EA802900DE051
:1052D00036A0F9E753466046009AFBF7E1F88446AA
:1052E0000398825C0298401E029002705CEA010002
:1052F000F0D1029806A9081A00F1200A600702D529
:1053000024F4803400E00127574502DDA7EB0A00B2
:1053100000E0002000EB0A01009005984144401A8B
:105320000590E00306D45B462146179A059800F0E5
:10533000B3F90544002706E001A85A46C05D179955
:1053400090476D1C7F1C4745F6DBE0030CD55B46A0
:105350002146179A059800F09FF9054404E0302093
:105360005A46179990476D1C0099481E00900029D5
:10537000F5DC08E0029802995A460078491C02912F
:10538000179990476D1CBAF10001AAF1010AF1DCEE
:1053900065E10000092801003031323334353637F9
:1053A0003839616263646566000000003031323371
:1053B0003435363738394142434445460000000011
:1053C00000F058F90544761C307800287FF4ECADE5
:1053D00019B02846BDE8F08F620700D4062709F10E
:1053E000070222F0070CFCE80223E14603F0004824
:1053F0005FEA080C02D00FF2702C0DE05FEA045C4B
:1054000002D50FF2682C07E05FEAC47C02D00FF2ED
:10541000602C01E0AFF2700C4FF0FF3823F0004336
:10542000CDF850C065280CD006DC452809D04628A8
:105430001DD047283DD13DE0662818D067287ED191
:1054400038E00021112F01DB112000E0781CCDE9AC
:10545000000106A90EA8FFF7DDFCDDE90F010E9A99
:1054600003910021009207F1010A04914DE04FF0F1
:1054700000400097CDE9011006A90EA8FFF7CAFC6D
:10548000DDE90F0203920E9B11990022DDF80CA0BA
:105490000093049211B9791C00EB010AB7EB0A00E2
:1054A00004D4C0F1FF3007F1010A0490AAEB070011
:1054B000019044E0012F00DA01270021112F01DDC6
:1054C000112000E03846CDE9000106A90EA8FFF73B
:1054D000A1FCDDE90F010E9A0391002104910092D5
:1054E000BA4621070CD40399514500DA8A46BAF12D
:1054F000010F05DD009AAAF10101515C302908D0A5
:10550000B84202DA10F1040F06DA0121CDE90110E8
:1055100015E0AAF10101E9E7002805DC049901443E
:105520000491AAEB000102E0411C514500DD8A46CE
:105530000499401A401C01904FF00040029020074F
:1055400004D40198504501DBCDF8048000208DF88B
:105550004F0002980DF14F07B0F1004F25D02B20DE
:105560000E9002984FF0020800280CDA4042029098
:105570002D200E9007E00A210298FAF77BFF3031C8
:10558000029007F8011DB8F10001A8F10108F2DC52
:1055900002980028EFD1791E0E980870307800F03C
:1055A000200040F0450007F8020D12A8C01B00F1D2
:1055B00007081498007800B1012000EB0A01019857
:1055C00001EBE07105984144401A401E0590E0034C
:1055D00006D45B462146179A059800F05DF805440D
:1055E0001498007818B15A46179990476D1CE0033B
:1055F00024D55B462146179A059800F04DF80544DE
:105600001CE00498002807DBDDE90301884203DD84
:105610000098405C179901E0179930205A4690474E
:10562000049805F10105401C04900198401E01906A
:1056300004D12E205A46179990476D1CBAF10001EB
:10564000AAF1010ADDDC05E017F8010B5A461799AB
:1056500090476D1CB8F10001A8F10108F4DC5B462D
:105660002146179A0598ABE62D0000002B0000009C
:10567000200000002DE9F041044600251E46174693
:10568000880404D405E039462020B0476D1C641E10
:10569000F9D52846BDE8F0812DE9F0410446002502
:1056A0001E469046C80301D5302700E02027880415
:1056B00004D505E041463846B0476D1C641EF9D557
:1056C0002846BDE8F0810A68531C0B6010707047D3
:1056D00000000000000000000102030406070809A2
:1056E00000000000010203040102EFBC8C00000076
:1056F00000000000000000000000000000000000AA
:10570000005838000000000000000000000000E326
:105710008082000000000000000000000000000087
:105720000000000000001824241800000000000001
:1057300000000000E4BDA00000008060F8074020E9
:10574000180F08C80808281800010000FF00100CF6
:105750000340807F0001061800E5A5BD0000101081
:10576000F01F10F000808282E2928A868000402240
:1057700015081661000040807F0000000000E4B8BA
:10578000960000202020FE2020FF202020FF202047
:105790002020000000007F404047444444474040F0
:1057A000400000E7958C0000000000FE929292FEFF
:1057B000929292FE0000000008080484621E01001C
:1057C00001FE020404080800E59388000000E020C0
:1057D000A0F020C0300C1420C080000000000001A8
:1057E000040201384929253D0C01010100E596BD5F
:1057F000000000E02020E02048D0FA64A8A40000C7
:105800000000000001010444452D171C2464050319
:105810000000E5AE9A0000100C4444444445C644E0
:1058200044444444140C008040201E2040407F44E7
:1058300044444444404000E697B6000000FC8484A1
:1058400084FC001010101010FF101000003F10100A
:10585000103F0000010640807F000000E997B9007A
:105860000000F8012220222AF22222222202FE0037
:105870000000FF00001F01017F09110F40807F0021
:1058800000E9929F000020102CE7242400F0101063
:10589000FF1010F000000101017F2111000702023A
:1058A000FF0202070000E8AEBE0000404042CC000C
:1058B00040A09E8282829EA02020000000003F9097
:1058C0008840432C10284641808000E5AE9A0000B5
:1058D000100C4444444445C64444444444140C001D
:1058E0008040201E2040407F4444444444404000C7
:1058F000E7BDAE0000001715D55557557D555755D6
:10590000D5151700004040407F5555555555555504
:105910007F40404000E697B6000000FC848484FC91
:10592000001010101010FF101000003F1010103F5A
:105930000000010640807F000000E58886000080AE
:105940004020908886808080838C102040800000DA
:105950008040201807004080403F0000000000E722
:10596000A79200002424A4FE232200C03800FF00D8
:1059700008106000080601FF0106818040402710E2
:105980000C030000E7A1AE00000484E45C44C420E2
:1059900010E82724E4342CE00002017F10103F803F
:1059A000601F09093F49897F00E5AE9A0000100C8D
:1059B0004444444445C64444444444140C00804098
:1059C000201E2040407F4444444444404000E58F32
:1059D0009600000202FE929292FE0206FC0404046B
:1059E000FC000008180F080804FF0484402718274B
:1059F000408000E6B68800001060020CC000E22C77
:105A0000203F2028E600000004047C030000FF097A
:105A1000090949897F000000E79C81000000108887
:105A200086C0C0A0AF909088828408000001010069
:105A3000FF4A4A4A4A4A4A4A4AFF000000E794B5E8
:105A400000000000F888888888FF88888888F80027
:105A5000000000001F080808087F888888889F8049
:105A6000F000E6A8A100001010D0FF9014E4AFA44D
:105A7000A4A4AFE4040000040300FF00894B2A1A29
:105A80000E1A2A4B888000E5BC8F00001010909001
:105A90009090901010FF1010111610000020602040
:105AA0003F10101000030C102040F800E585B300F3
:105AB0000000001011161010F01010141310000048
:105AC000008181414121110D030D1121414181814D
:105AD00000E4BA8E000040404242424242FE42424E
