:020000040800F2
:1000000088080020010100084D280008ED180008AC
:10001000FD1A0008B1060008D947000800000000DA
:10002000000000000000000000000000B5470008CC
:10003000B506000800000000B1470008B9470008F5
:100040001B0100081B0100081B0100081B01000820
:100050001B0100081B0100081B0100081B01000810
:100060001B0100081B0100081B0100081B01000800
:100070001B0100081B0100081B0100081B010008F0
:100080001B0100081B0100081B0100081B010008E0
:100090001B0100081B0100081B0100081B010008D0
:1000A0001B0100081B0100081B0100081B010008C0
:1000B000C14700081B0100081B0100081B010008C4
:1000C0001B0100081B0100081B0100081B010008A0
:1000D0001B0100081B0100081B0100081B01000890
:1000E0001B0100081B0100081B010008DFF80CD0F1
:1000F00000F0C6FA00480047DD47000888080020E5
:100100000648804706480047FEE7FEE7FEE7FEE7B1
:10011000FEE7FEE7FEE7FEE7FEE7FEE7BD47000875
:10012000ED000008D2B201E000F8012B491EFBD21D
:1001300070470022F6E710B513460A4604461946F2
:10014000FFF7F0FF204610BD10B5002200E0521C62
:10015000835C8C5CA34201D1002BF8D1D8B2E1B210
:10016000401A10BD2DE9FE4F804681EA0300C00F02
:100170000C46009021F0004123F00045B8EB02004E
:10018000A94105D24046214690461C460B460246F0
:1001900023F00040104347D0270DC7F30A00C3F3F4
:1001A0000A510290401A019040286BDAC3F3130001
:1001B00040F4801B0098924620B10023D2EB030A42
:1001C00063EB0B0B01985946C0F14002504600F01A
:1001D00098F906460D4650465946019A00F0B0F986
:1001E00010EB08006141002487EA115284EAE773AA
:1001F0001A4340D0009A62B3019A012A4FEA07528B
:1002000015DC001B61EB02014FF0004202EA0752CD
:10021000CDE90042001C41F5801132462B4600F02A
:10022000B0F903B0BDE8F08F40462146F9E7001B66
:1002300061EB0201001C41F5801300185B4120189E
:10024000A2F5001747EB030140EAD570B6196D41DE
:1002500011E06D084FEA360645EAC0754FEA0752CD
:10026000001B61EB0201001C41F5801149084FEAB7
:1002700030000019514132462B4603B0BDE8F04F23
:1002800000F070B90098012240000023D0EB020278
:1002900063EBE073009821464FEAE074B8EB00008E
:1002A00061EB0401E9E783F000435BE781F0004183
:1002B00058E72DE9FE4F81EA030404F0004421F0E1
:1002C000004100944FF0000B23F0004350EA01047A
:1002D0005ED052EA03045BD0C3F30A54C1F30A555B
:1002E0002C44A4F2F3340194A0FB0254C1F3130193
:1002F00041F48011C3F3130343F4801301FB024460
:1003000000FB034E840A970A44EA815447EA835764
:10031000A4FB076802958D0A05FB07854FEA932C1D
:1003200004FB0C542705029D4FEA065847EA16378E
:10033000B5EB08056EEB070C870E920E47EA8117A6
:1003400042EA8312A7FB0201B6EB0B0164EB000447
:100350002B0D43EA0C335E1844EB1C50DA46514631
:10036000E7FB0201C5F313044FEA0B3343EA1453CE
:100370004FEA0432019C43EA0603A4F10C04029400
:10038000009CCDE900B400F0FCF803B0BDE8F08FAC
:1003900000200146F9E72DE9F04D81EA030404F05D
:1003A000004B21F0004514464FF0000A23F00041B5
:1003B00050EA050220D054EA01021DD0C5F30A57C5
:1003C0000246C5F31303C1F31300C1F30A5640F408
:1003D000801543F48013A7EB0608101BD64608F2DD
:1003E000FD3873EB050002D308F1010801E0921813
:1003F0005B41B8F1000F03DA00200146BDE8F08D43
:1004000000204FF48011064684460EE0171B73EB64
:10041000050705D3121B63EB050306434CEA010CE9
:1004200049084FEA300092185B4150EA0107EDD1CC
:1004300052EA030012D082EA040083EA050108436D
:1004400005D0101BAB4106D20122002306E000229A
:100450004FF0004302E06FF0010253101AEB060068
:100460004CEB085110EB0A0041EB0B01BDE8F04DDD
:1004700000F078B830B50B46014600202022012458
:1004800009E021FA02F59D4205D303FA02F5491B62
:1004900004FA02F52844151EA2F10102F1DC30BD78
:1004A0002DE9F05F0546002092469B4688460646A9
:1004B000814640241BE0284641464746224600F03C
:1004C0002FF853465A46C01A914110D31146184688
:1004D000224600F016F82D1A67EB01084F46224617
:1004E0000120002100F00DF817EB00094E41201EFD
:1004F000A4F10104DFDC484631462A464346BDE804
:10050000F09F202A04DB203A00FA02F10020704715
:100510009140C2F1200320FA03F319439040704741
:10052000202A04DB203A21FA02F00021704721FA48
:1005300002F3D040C2F120029140084319467047AF
:10054000202A06DBCB17203A41FA02F043EAE07397
:1005500006E041FA02F3D040C2F120029140084384
:100560001946704710B5141E73F1000408DA401CD8
:1005700041F1000192185B411A4301D120F00100C2
:1005800010BD2DE9F04D92469B4611B1B1FA81F2B2
:1005900002E0B0FA80F220329046FFF7B2FF044644
:1005A0000F4640EA0A0041EA0B0153465A46084307
:1005B00013D0114653EA010019D0C8F14002504649
:1005C000FFF7AEFF05460E46504659464246FFF736
:1005D00098FF084305D0012004E020463946BDE8D5
:1005E000F08D0020054346EAE0762C4337430A9815
:1005F0006305E40AA0EB08000022FD0A44EA475420
:100600000A3002D500200146E9E7010510196941C9
:10061000DDE9084500196941BDE8F04DA2E7C1F3E5
:100620000A52C1F3130140F2FF3341F480119A42A0
:1006300002DA00200146704740F233439A42A2F2A8
:10064000334202DC5242FFF76BBFFFF75ABF000094
:1006500030B5041E71F1000404DB4FF00044404249
:1006600064EB0101141E73F1000405DB1C464FF01E
:100670000043524263EB0403994208BF904230BDED
:100680001CB509480090094801900546009C06E009
:10069000E06840F0010394E8070098471034AC424A
:1006A000F6D3FFF727FD00004064000860640008EF
:1006B000FEE7000070470000EFF3108072B600BF45
:1006C000FEE700002DE9F04F82B00E68002E00F02A
:1006D000FD8041F20042C4F20102042340F2004EC8
:1006E000904208BF03234FF6FF7CC4F2010E009333
:1006F00000240123C1F2100C4FF0000A4FF0000952
:100700004BE000BF41F20002C4F20102009F9042A0
:1007100008BF022704F00C030F229A402BEA0202C2
:1007200007FA03F34FEA9A051A4346F825204E6864
:1007300040F20C45F202DEF8082054BF22EA08021B
:1007400042EA0802C4F20105CEF808202A68B30282
:1007500054BF22EA080242EA08022A60B303DEF824
:10076000042054BF22EA080242EA0802F303CEF84A
:100770000420DEF800204FF0010354BF22EA0802F3
:1007800042EA0802CEF800200E680AF1010A36FAA1
:100790000AF204F1040400F0998003FA0AFB16EA55
:1007A0000B08F1D04E68664512DC122E56D8DFE8F1
:1007B00006F0350B4D49555555555555555555551B
:1007C00055555545510000BFD1F80C9046E000BF8B
:1007D0004FF6FF72C1F2210296420FDC0022C1F2F5
:1007E000110296421AD00022C1F21202964215D08E
:1007F0000022C1F22102964210D02FE00022C1F265
:10080000220296420AD00022C1F23102964205D05D
:100810000022C1F23202964220D100BF8A684AB15A
:10082000012A14BFC0F814B0C0F810B04FF0080986
:1008300014E000BF4FF0040910E000BFCA6802F1E5
:1008400004090BE04FF0000908E000BFCA6802F19C
:10085000080903E0CA6802F10C0900BF02462646F7
:10086000B8F5807F24BF0432203E17680F25B540BD
:1008700027EA050509FA06F635431560CA79D20656
:100880007FF582AF41F21803C4F202031A68AEF595
:100890007E7642F001021A601A6802F001020192AB
:1008A000019A2AF0030256F802B040F60002C4F2A0
:1008B0000102904208D040F60042C4F20102904288
:1008C0007FF420AF012725E7002723E702B0BDE82A
:1008D000F08F00008068084018BF012070470000BA
:1008E000002A08BF090401617047000040F28040FF
:1008F000C2F200000068704740F2000040F2804100
:10090000C2F20000C2F2000100780A6810440860D8
:100910007047000080B542F20000C4F20200016896
:1009200041F010010160032000F08CF80F2000F06E
:1009300005F800F027F8002080BD000070B540F2F7
:100940000006C2F2000640F214013278C2F2000141
:100950004FF47A730968B3FBF2F20446B1FBF2F18B
:10096000084600F011FD0F2C4FF0010508D838B9EA
:100970004FF0FF3021460022002500F037F8746068
:10098000284670BD82B041F21800C4F2020001682E
:10099000022241F001010160016801F001010191B1
:1009A0000199416841F080514160406800F08050F9
:1009B000009000980420C4F20100016862F31A61FB
:1009C000016002B070470000002848BF704700F087
:1009D0001F01012202FA01F11C2202EAD0004EF2AC
:1009E0000012CEF2000281507047000010B54EF6A2
:1009F0000C5CCEF2000CDCF80030C3F3022E8EF05B
:100A00000704042C28BF0424BEF103034FF0FF3E6B
:100A10000EFA04F438BF0023A14399400EFA03F301
:100A20009A43114300F00F0200F160430901043AB8
:100A300003F564436244002848BF02F10C031970B7
:100A400010BD00004EF60C51CEF200010A684FF6C0
:100A5000FF031A4060F30A2242F0806040F0FD700C
:100A6000086070472020C4F20E2001210160704709
:100A7000012821D002280DD0102808D141F204010C
:100A8000C4F202010A6851F8040CC00134D40020F9
:100A9000704700BF80B500F0C7F941F20401C4F20D
:100AA000020109680222C1F3813102EB4101B0FB6E
:100AB000F1F0BDE88040704741F20400C4F202004A
:100AC000C16940F202320A40B2F5817F04BF4FF49F
:100AD0000040704701F44071B1F5407F18D0B1F586
:100AE000007F1CBF00207047006A49F64041800724
:100AF00001EAE070704700BFC2F3834015A3185CA1
:100B0000D2030DD440F60012C0F23D02504313E070
:100B100050F8040C4FF22441800301EAE070704762
:100B20000A6810A3C2F340429A5C41F20023C0F26B
:100B30007A03B3FBF2F250430968490248BF704799
:100B40004AF6AB214000CAF6AA21A0FB01014808E1
:100B5000704700BF02030405060708090A0B0C0DC5
:100B60000E0F1010010200002DE9F04182B0044682
:100B7000007841F21C06C007C4F202064AD0306871
:100B80005FEAC00808D4306840F0805030603068B8
:100B900000F080500190019847F20007C4F200076E
:100BA0003868C00512D4386840F480703860FFF7A8
:100BB0009DFE05463868C00508D4FFF797FE401B28
:100BC0006428F7D9032002B0BDE8F081706810F402
:100BD000407012D0616801F4407188420DD0706895
:100BE00040F24042C4F24222012320F440711360DB
:100BF0000023C0071360716026D17068616820F41B
:100C000040700843B8F1000F706003D4306820F0E2
:100C1000805030602068810707D556F8181CA268FC
:100C200021F44041114346F8181CC00607D556F878
:100C3000180CE16820F48000084346F8180C0020E6
:100C400002B0BDE8F08100BFFFF750FE054641F25B
:100C5000883700BF70688007CFD4FFF747FE401B7E
:100C6000B8424FF00300F5D9EAE70000002804BFBE
:100C7000012070472DE9F04381B042F20008C4F230
:100C800002080446D8F800000D4600F00700814233
:100C90000CD9D8F8000020F007002843C8F800005D
:100CA000D8F8000000F00700A8426CD1206841F29B
:100CB00004098107C4F2020917D5410705D5D9F8FF
:100CC000001041F4E061C9F80010010705D5D9F81A
:100CD000001041F46051C9F80010D9F80010A26862
:100CE00021F0F0011143C9F80010C00742D1D8F833
:100CF000000000F0070085420CD2D8F8000020F078
:100D000007002843C8F80000D8F8000000F00700EA
:100D1000A84238D12068410707D5D9F80010E26809
:100D200021F4E0611143C9F80010000708D5D9F893
:100D30000000216920F4605040EAC100C9F80000B9
:100D4000D9F8002002F00C00082841F20020C0F27F
:100D50007A004DD146F29E23C2F38341C0F60003D0
:100D6000595CD20338D440F60010C0F23D0048432D
:100D70003EE000BF606859F8041C022808D0012832
:100D800026D1890306D4012001B0BDE8F08300BF5D
:100D90008901F8D5D9F8001021F003010843C9F8FA
:100DA0000000FFF7A3FD064641F28837D9F800009E
:100DB000616800F00C00B0EB810F98D0FFF796FD52
:100DC000801BB842F2D9032001B0BDE8F08300BF18
:100DD0008907D8D5DEE700BFD9F8002045F2C61351
:100DE000C2F34042C0F600039A5C4843B0FBF2F005
:100DF000D9F8001045F2AE12C1F30311C0F600029B
:100E0000515C40F2140220FA01F140F20400C2F2F7
:100E100000000068C2F200021160FFF78FFD0020A1
:100E200001B0BDE8F083000040F2140041F204017B
:100E3000C2F20000C4F202010068096845F2BE1265
:100E4000C1F3C221C0F60002515CC84070470000E7
:100E5000002804BF012070472DE9F04182B004460C
:100E6000007841F20006C007C4F202060CD0706898
:100E700000F00C00042840F081803068800303D526
:100E80006068002800F04681207880071BD57068D4
:100E900010F00C0F09D0706800F00C00082840F02A
:100EA00087807068C00300F183803068800703D5B5
:100EB0002069012840F02E813068616920F0F80037
:100EC00040EAC10030602078000713D42078400742
:100ED0002CD4E569002D00F01881706800F00C003A
:100EE000082840F0A780012D40F00481012002B0C5
:100EF000BDE8F081A069002800F084800020C4F2E1
:100F000042200121C0F88014FFF7F0FC054600BF25
:100F1000706A800700F1B280FFF7E8FC401B0228EE
:100F2000F6D9032002B0BDE8F08100BFF0695FEAA6
:100F3000C00808D4F06940F08050F061F06900F01A
:100F400080500090009847F20007C4F2000738680C
:100F5000C00549D4386840F480703860FFF7C6FC9B
:100F6000054600BF3868C0053ED4FFF7BFFC401BF4
:100F70006428F7D9032002B0BDE8F081706800F062
:100F80000C00082803D17068C0033FF576AF616894
:100F90003068002900F00C81B1F5A02F00F000812D
:100FA000B1F5803F40F01A8140F480301CE100BF71
:100FB0002069002840F20000C4F2422000F088803E
:100FC00001210160FFF792FC054600BF30688007F1
:100FD0003FF572AFFFF78AFC401B0228F6D90320C9
:100FE00002B0BDE8F08100BFE168306A002900F07E
:100FF0009D80052900F09280012940F0AF8040F0EB
:101000000100B1E00020C4F242200021C0F88014A9
:10101000FFF76CFC054600BF706A80077FF556AF8E
:10102000FFF764FC401B0228F6D9032002B0BDE89C
:10103000F08100BF0027C4F2422700203866FFF786
:1010400055FC022D05460DD13068800140F1DE804F
:10105000FFF74CFC401B02284FF00300F4D902B00C
:10106000BDE8F081306880014FD5FFF73FFC401BA1
:1010700002284FF00300F5D9F1E700BF40F2140059
:10108000C2F20000006844F6D351C1F26201A0FB35
:101090000101480A019000BF00BF0198411E0028CD
:1010A00001913FF413AF00BF0198411E0028019148
:1010B0003FF40CAF00BF0198411E002801913FF49E
:1010C00005AF00BF0198411E00280191E4D1FDE663
:1010D00000210160FFF70AFC054600BF3068800769
:1010E0007FF5F1AEFFF702FC401B02284FF0030032
:1010F000F4D9B4E77068216A00F480328A4209D1D9
:10110000616A00F47010884204D1002002B0BDE88A
:10111000F08100BF012002B0BDE8F08140F0040082
:101120003062306A40F001001EE000BF20F0010094
:101130003062306A20F004003062FFF7D7FB0546CA
:1011400041F28837306A800720D5FFF7CFFB401B7C
:10115000B8424FF00300F5D981E700BF20F001004D
:101160003062306A20F004003062FFF7BFFB0546B2
:1011700041F28837306A800708D4FFF7B7FB401B7D
:10118000B842F7D9032002B0BDE8F081B8F1000FF2
:101190003FF59FAEF06920F08050F06199E600BF06
:1011A00040F480203060306840F480301CE000BFA4
:1011B00020F480303060306820F480203060FFF709
:1011C00095FB0546306880037FF55EAEFFF78EFB2A
:1011D000401B64284FF00300F4D940E720F480302E
:1011E0003060306820F480203060FFF77FFB0546D8
:1011F000306880033FF548AEFFF778FB401B64285A
:10120000F6D9032002B0BDE8F08100BF206AB0F536
:10121000803F05D17168A26821F4003111437160EB
:101220007168626A21F474111143084370600120EF
:101230003866FFF75BFB0446306880013FF565AF19
:10124000FFF754FB001B02284FF00300F4D906E718
:10125000002804BF0120704770B50446407C20B9C7
:1012600000202074204600F06BF802206074206893
:10127000416821F008014160FFF738FB064600BFD6
:1012800020684568FFF732FB290705460ED4A81BE6
:10129000B0F57A7FF4D901200421617470BD00BFDC
:1012A000FFF724FB401BB0F57A7FF4D8216848682B
:1012B0008006F5D5486846F62C4240F0100048609C
:1012C0004868C4F2000220F007004860A06818B126
:1012D000536823F001035360136823F460731843C9
:1012E00010606068421C05D10120FFF7C1FB18B3F4
:1012F00021680138C0F3034280B28A60C860486840
:1013000020F010004860FFF7F1FA054620684068B9
:10131000800607D4FFF7EAFA401BB0F57A7FF5D9CB
:10132000B9E700BF40F201110020A4F80D1001211F
:10133000E073617470BD00BF04210120617470BD51
:10134000006842F60001C4F20001884218BF7047ED
:1013500080B582B0FFF786FB41F21C00C4F20200A8
:10136000016841F0006101600068012100F0006047
:101370000190019840F23C40C4F24220016002B06A
:10138000BDE8804070470000411E0020B0EB116FA7
:101390001CBF012070474EF21002CEF200025160D5
:1013A0004EF62351CEF20001F0230B70072190601E
:1013B00011607047704700007047000090F83C20B3
:1013C000012A4FF0020236D010B580F83D200268A5
:1013D000D2F804E0D2F808C00C682EF07003234362
:1013E00040F2FF74C4F20004A24253600ADCB2F17E
:1013F000804F13D040F20043C4F200039A420DD054
:1014000011E000BF42F60043C4F201039A4205D046
:1014100040F60003C4F200039A4204D149682CF05C
:101420008003194391600121002280F83D1080F86B
:101430003C20BDE81040104670470000002804BF63
:101440000120704710B590F83D1031B9002180F8A7
:101450003C10044600F070F82046022180F83D1050
:10146000016840F2FF740B68C4F2000442F6004CBD
:10147000A142C4F2010C15DCB1F1804F1AD040F248
:101480000042C4F20002914214D0A14218DCB1F132
:10149000804F1DD040F20042C4F20002914217D0AA
:1014A0001AE000BF614505D040F60002C4F2000218
:1014B0009142EAD1826823F070031343A142E6DD32
:1014C000614505D040F60002C4F20002914203D10A
:1014D000026923F440731343846923F08002D0F837
:1014E00004E0C368224361450A60CB62C1F828E08A
:1014F00002D14269CCF8302001224A610B69DB0736
:1015000003D00B6923F001030B6180F8462080F8BB
:101510003E2080F83F2080F8402080F8412080F86D
:10152000422080F8432080F8442080F8452080F84D
:101530003D20002010BD00000068B0F1804F18BFB2
:10154000704780B582B041F21C00C4F2020001680D
:10155000002241F0010101600068032100F0010058
:10156000019001981C20FFF741FA1C2002B0BDE851
:101570008040FFF729BA000090F83D1001291CBFF8
:1015800001207047022180F83D10006840F2FF7290
:10159000C168C4F20002904241F00101C16009DC5F
:1015A000B0F1804F12D040F20041C4F200018842F5
:1015B0000CD012E042F60041C4F20101884205D08D
:1015C00040F60001C4F20001884206D1816801F0B2
:1015D0000701062904BF00207047016841F001019E
:1015E000016000207047000090F83C20012A4FF075
:1015F00002026CD080B580F83D20D0F800C04FF6D4
:101600007772DCF8083023EA0202CCF808200B6875
:101610004F2B29DC1F2B45DD202B46D0302B44D00F
:10162000402B40F0AF80D1F804E0C968DCF82030EE
:10163000DCF8202022F00102CCF82020DCF8182071
:1016400022F0F00242EA011123F00A0242EA0E02FD
:10165000CCF81810CCF82020DCF8081041F0470135
:1016600021F0300128E000BF6F2B33DDB3F5005FC0
:1016700074D0B3F5805F21D0702B40F08380D1E926
:1016800001E3C968DCF8082043EA0E0322F47F4234
:1016900043EA01211143CCF80810DCF8081041F0AE
:1016A000770109E00BB1102B6CD1DCF8081021F0A8
:1016B0007001194341F00701CCF808100022012104
:1016C00080F83D10002180F83C10BDE880401046B5
:1016D000704700BF502B21D0602B53D1D1F804E0CC
:1016E000C968DCF82030DCF8202022F01002CCF8A9
:1016F0002020DCF8182022F4704242EA013123F065
:10170000A00242EA0E12CCF81810CCF82020DCF827
:10171000081041F0670121F01001CDE7D1F804E095
:10172000C968DCF82030DCF8202022F00102CCF877
:101730002020DCF8182022F0F00242EA011123F008
:101740000A0242EA0E02CCF81810CCF82020DCF88D
:10175000081041F0570121F02001ADE7D1E901E384
:10176000C968DCF8082043EA0E0322F47F4243EA0A
:1017700001211143CCF80810DCF8081041F4804135
:101780009AE700BF01229AE77047000070B504464F
:101790000068C5680669B10716D515F0020113D0B7
:1017A0006FF002010161012121778069800703D078
:1017B0002046FFF7E9FF05E0204600F08FF82046BD
:1017C00000F08EF800202077700719D515F004007E
:1017D00016D020686FF00401016102212177806931
:1017E00010F4407F04D02046FFF7CEFF06E000BF94
:1017F000204600F073F8204600F072F800202077B1
:10180000300717D515F0080014D020686FF00801D4
:10181000016104212177C069800703D02046FFF7CA
:10182000B3FF05E0204600F059F8204600F058F8D4
:1018300000202077F00619D515F0100016D020688A
:101840006FF01001016108212177C06910F4407F19
:1018500004D02046FFF798FF06E000BF204600F0C6
:101860003DF8204600F03CF800202077F00718BF34
:1018700015F0010002D1300609D412E020686FF0A3
:1018800001010161204600F02DF8300609D515F060
:10189000800006D020686FF0800101612046FFF7CC
:1018A00089FD700609D515F0400006D020686FF05C
:1018B00040010161204600F017F8B00658BF70BD26
:1018C00015F0200008D021686FF0200220460A6140
:1018D000BDE87040FFF770BD70BD000070470000AC
:1018E000704700007047000070470000FEE70000EE
:1018F00040F21801C2F20001087800281CBF002243
:101900000A70704780B584B041F21800C4F202003A
:10191000016841F0040101600068694600F00400BC
:101920000090009800200190022002900320039074
:101930003E20009040F60000C4F20100FEF7C2FE17
:1019400004B080BDB0B540F21805C2F20005E878D9
:101950000130C1B21429E87038BFB0BD40F60004B0
:10196000A978C4F201040020E870697020460221C1
:10197000FEF7B0FF012801D101211FE0204604211C
:10198000FEF7A8FF012801D1022117E02046082117
:10199000FEF7A0FF012801D103210FE0204610210E
:1019A000FEF798FF012801D1042107E020462021FD
:1019B000FEF790FF0021012808BF0521A97019B189
:1019C0006878002808BF2970B0BD000070B586B0E7
:1019D000002541F21800CDE90455CDE90255C4F2C5
:1019E0000200016840F6004441F010010160016806
:1019F000C4F2010401F01001019101990168002273
:101A000041F02001016001684FF4405601F02001CF
:101A100001910199016841F008010160016801F03C
:101A2000080101910199016841F004010160006819
:101A30004FF4405100F00400019001982046FEF759
:101A40004FFF0120CDE903050220059002A92046A1
:101A50000296FEF737FE06B070BD000080B540F27A
:101A6000244042F60001C2F20000C4F200014FF02F
:101A7000FF324FF4807380E80E00FFF7E9FB002887
:101A800008BF80BDBDE88040FEF716BE80B586B0B9
:101A900040F238400021C2F200004FF08042632340
:101AA00040F2E73C0591CDE90311CDE90011C0E911
:101AB0000023C0E9021C01618161FFF7BFFC00281F
:101AC00018BFFEF7F9FD4FF48050029040F2384005
:101AD000C2F2000002A9FFF787FD002818BFFEF739
:101AE000EBFD40F23840C2F200006946FFF766FCA9
:101AF000002818BFFEF7E0FD06B080BDFEE700003D
:101B00002DE9F04F85B040F21C0440F2080746F280
:101B1000493846F2DD3B46F23636C2F20004C2F2E4
:101B20000007C0F600084FF00009C0F6000B4FF0A8
:101B3000100AC0F600060BE08020CDE9009A029062
:101B40000020002180221023CDF80CA000F088FE98
:101B5000FFF7CEFE012820702CD0032824D00528C2
:101B600000F092803878032835D0022862D001280E
:101B7000EED1002000214246082302F0DDFB0020C8
:101B800010215A46082302F0D7FB002020213246BC
:101B9000082302F0D1FB787802286BD00128D7D136
:101BA000CDE9009941E000BF042001220223012178
:101BB00004E000BF03210020FF2201233D787B7059
:101BC0002A44D3B2834218BF1146397000F040FE58
:101BD00038780328C9D1002000214246082302F0AA
:101BE000ABFB002010215A46082302F0A5FB002081
:101BF00020213246082302F09FFB787801280ED17D
:101C0000202001908020029000203021802210238B
:101C1000CDF80090CDF80CA000F022FE78780228D4
:101C200096D12020CDF800900190802002900020D5
:101C3000102187E7002000214246082302F07CFBA8
:101C4000002010215A46082302F076FB00202021B4
:101C50003246082302F070FB787802283FF46CAF1C
:101C600001287FF475AF8020CDE9009A0290002012
:101C7000202167E78020CDE9009902900020002113
:101C80000022002360E700BF01F056F902F044FC97
:101C900000F0DEFD387805B0BDE8F08F2DE9F04F9B
:101CA00085B046F2C025C0F60005002000212A4676
:101CB000082302F041FB46F2F23BC0F6000B002085
:101CC00010215A46082302F037FB46F2CA36C0F606
:101CD0000006002020213246082302F02DFB46F2A8
:101CE0002337C0F60007002030213A46082302F0CF
:101CF00023FB02F011FC40F21C0440F2080AC2F27D
:101D00000004C2F2000A4FF000094FF0010805E09C
:101D10008022102301F0A0FF02F0FEFBFFF7E8FD98
:101D20000528207000F08E80032813D001281ED1D2
:101D300001208AF8010000F08BFDA8F101085FEA9C
:101D4000086008BF4FF00408A9F10100C0B20428E0
:101D500013D2A1E002208AF8010000F079FD08F119
:101D600001085FFA88F0052808BF4FF00108A9F1C3
:101D70000100C0B20428C0F08F805FFA88F00138FB
:101D80000328CBD8DFE800F01E1E026C00200021E3
:101D90002A46082302F0D0FA002010215A460823D0
:101DA00002F0CAFA002020213246082302F0C4FAC9
:101DB000002030213A46082302F0BEFA00202021FC
:101DC000A6E700BF002000212A46082302F0B4FA4B
:101DD000002010215A46082302F0AEFA00202021EC
:101DE0003246082302F0A8FA002030213A460823A0
:101DF00002F0A2FA9AF80100012810D11025002063
:101E00000295102140221023039546F2C025CDE90A
:101E10000000C0F6000500F023FD9AF8010002283A
:101E20007FF47CAF102500200295002100220023C2
:101E3000039546F2C025CDE90000C0F6000500F08C
:101E40000FFD6BE701F078F802F066FB00F000FD93
:101E5000C146A9F10100C0B20428BFF48EAF1BE057
:101E6000002000212A46082302F066FA00201021F3
:101E70005A46082302F060FA002020213246082347
:101E800002F05AFA002030213A46082302F054FAB0
:101E9000002030213CE700BF002005B0BDE8F08FF6
:101EA0002DE9F04F81B046F2C022C0F600020020BA
:101EB00000210823002702F03FFA46F2E622C0F68E
:101EC000000200201021082302F036FA46F2953273
:101ED000C0F6000200202021082302F02DFA46F26D
:101EE000D122C0F6000200203021082302F024FA9B
:101EF00040F21C060124C2F200060FF2CC0B37A5FB
:101F00000FF2EC080FF2FC0902F006FBFFF7F0FC01
:101F1000052830701AD003280AD001280DD1013CC1
:101F2000200608BF0524781EC0B2052809D247E064
:101F30000134E0B2062808BF0124781EC0B205288B
:101F40003ED3601EC0B20428E0D809E000F0F4FFE0
:101F500002F0E2FA2746781EC0B20528F1D22FE03F
:101F600045F2A411C0F600015BF8202055F820507E
:101F700058F820A059F8208031F910000021009075
:101F80000020082302F0D8F9002010212A46082357
:101F900002F0D2F9002020215246082302F0CCF9A9
:101FA000002030214246082302F0C6F900990020A3
:101FB000802210230FF2380808A501F04DFEA3E798
:101FC000002001B0BDE8F08FC0620008C0620008C8
:101FD000C0620008C062000810630008E6620008E2
:101FE000E6620008E6620008E66200089563000801
:101FF00095630008956300089563000895630008E1
:10200000D1620008D1620008D1620008D1620008E4
:10201000D1620008FB6200082DE9F04F85B046F25E
:10202000AE22C0F6000200200021082302F084F94D
:1020300040F21C0740F20805C2F20007C2F2000598
:1020400046F277387878A978C0F60008EA7846F240
:10205000204943462E79C0F60009012808BF4B46A7
:102060008DE8460000201021082201F0E1FDB8783B
:10207000434601286879A979EA7908BF4B468DE87B
:10208000070000202021082201F0D2FDF878697AAB
:102090000128287AAA7A08BFC8468DE807000020E0
:1020A00030210822434601F0C3FD02F035FA46F222
:1020B000054A46F25C380126C0F6000AC0F6000860
:1020C0004FF000094FF0000BFFF712FC05283870A5
:1020D00012D0032808D0012815D1013E300608BFD0
:1020E00005264FF0010B0CE00136F0B2062808BFC0
:1020F00001264FF0020B04E000F01EFF02F00CFA84
:10210000B14600F0A5FB46F2AE2200200021C0F649
:102110000002082302F010F97878012804D0022880
:102120000ED1434601E000BF5346A878E9782C79E8
:10213000CDE90001002010210822029401F078FD71
:10214000B878012804D002280ED1434601E000BF30
:1021500053466879A979EC79CDE900010020202166
:102160000822029401F064FDF878012804D00228C6
:102170000ED1434601E000BF5346287A697AAC7A13
:10218000CDE90001002030210822029401F050FD29
:10219000F0B2013803286CD8DFE800F0022C121CE2
:1021A0005FFA8BF001284BD0022862D10020CDE9E4
:1021B0000000802002900020002100223DE000BFAE
:1021C0005FFA8BF0012825D0022852D10020009020
:1021D000202037E05FFA8BF0012825D0022848D173
:1021E00000200090302001908020029000202021CB
:1021F0002DE000BF5FFA8BF001282DD0022838D1E6
:1022000000200090802010240290002000210194E2
:102210002AE000BF00200090202001908020029042
:102220000020302113E000BF0020009030200190FA
:1022300080200290002040218022002309E000BF7E
:102240000020009001908020029000201021802228
:10225000102310240AE000BF0020009010248020EA
:10226000019402900020202180221023039400F08A
:10227000F7FA5FFA89F0013803283FF625AFDFE867
:1022800000F01D0B130300BF681D00F01BF8411E7A
:10229000012998BF787017E7A81C00F013F8411EB9
:1022A0000229BFF411AF06E0681D00F00BF8411ED3
:1022B0000229BFF409AF787006E700BF002005B01F
:1022C000BDE8F08F2DE9F04F87B0057890F80180D8
:1022D0008478049000F030FE46F2AE22C0F6000290
:1022E00000200021082302F027F846F2AC33C0F6A4
:1022F0000003002010210822CDE90058CDE9054552
:102300000294102501F094FC0FF228520020302195
:102310000823302402F010F800200021102210239E
:1023200001F09AFC02F0F8F840F21C074FF00109A6
:10233000C2F200074FF0000A4FF0000BFFF7D8FA87
:10234000387805281BD165E15020CDE90004202014
:1023500002907020402100220023039500F080FAB3
:102360004FF006094FF0010A5FFA8BF0013805289B
:1023700020D9FFF7BDFA3878052800F04B810328F3
:102380000CD0012840F04981A9F1010900F060FA60
:102390005FEA0960D8D04FF0010A3EE109F1010976
:1023A0005FFA89F600F054FA072E4FF0020A40F067
:1023B000348151E1DFE810F0360206005200B0002F
:1023C0002A023A02102010211022102301F044FCAE
:1023D00010201F211F221F2300F0B8FD1020102104
:1023E0001022102302F00EF9059C46F2AC3B5FFA76
:1023F00088F6C0F6000B00BFFFF77AFA012805D077
:10240000032807D00528F7D1E4E000BF1727FF20F5
:10241000002102E0002701201721069BDAB28A4240
:1024200018BF1F18F8B2CDE90006002010210822BD
:102430005B46029401F0FCFB10201F211F221F238A
:1024400000F084FD002010218022102302F0DAF831
:10245000069740F21C07C2F20007CDE7302010219A
:102460001022102301F0F8FB30201F213F221F23F0
:1024700000F06CFD002010218022102302F0C2F831
:102480000698059C46F2AC3BC6B2C0F6000B00BFF6
:10249000FFF72EFA012805D0032807D00528F7D129
:1024A0002AE000BF3B27FF20002102E00027012097
:1024B0003B215FFA88F28A4218BF08EB0007F8B2A6
:1024C000CDE900600020102108225B46029401F053
:1024D000AFFB30201F213F221F2300F037FD0020DB
:1024E00010218022102302F08DF8B84640F21C071C
:1024F000C2F20007CCE700BF5FFA88F0CDE90060C8
:102500000020102108225B46029401F091FB30204C
:102510004FF0030B6CE000BF50201021102210235D
:1025200001F09AFB50201F215F221F2300F00EFDB7
:10253000002010218022102302F064F80698059CE8
:1025400046F2AC3BC6B2C0F6000B00BFFFF7D0F9B5
:10255000012805D0032807D00528F7D12AE000BFBD
:102560003B27FF20002102E0002701203B215FFAEA
:1025700088F28A4218BF08EB0007F8B2CDE9006084
:102580000020102108225B46029401F051FB5020EC
:102590001F215F221F2300F0D9FC00201021802280
:1025A000102302F02FF8B84640F21C07C2F20007D1
:1025B000CCE700BF5FFA88F0CDE900600020102171
:1025C00008225B46029401F033FB50204FF0040BCD
:1025D0000EE000BF06981021C0B2CDE90006002031
:1025E00008225B46029401F023FB10204FF0020BFF
:1025F00010211022102301F02FFB00201021802237
:10260000102301F0FFFF3024FFF772F93878052816
:102610007FF4B5AE00F01CF9CB465FFA89F00138C3
:1026200005283FF6A1AEDFE800F0035F3D4D2B6FBC
:10263000BAF1010F10D10020CDE9000010201021C7
:10264000102210230295039500F00AF94FF0010AB9
:102650004FF0010988E600BF40F20800C2F2000016
:10266000407802286AD10020002100220023CDE911
:1026700000000295039500F0F3F84FF0010973E6AE
:10268000BAF1010F5ED1202002905020302120228B
:102690001023CDE90054039500F0E2F84FF005094E
:1026A00060E600BFBAF1010F62D150201021102264
:1026B0001023CDE900450295039500F0D1F84FF0C5
:1026C00003094FE6BAF1010F66D15020CDE90005AC
:1026D00010203021202210230295039500F0C0F82D
:1026E0004FF004093EE600BFBAF1010F6AD1302075
:1026F000102110221023CDE900550295039500F01A
:10270000AFF84FF002092DE6BAF1010F3FF41CAE0D
:1027100040F20800C2F20000407802280BD150209D
:10272000CDE9000420200290102030212022102327
:10273000039500F095F84FF0060915E64FF00109F2
:1027400012E600BF40F20800C2F200004078022802
:102750004CD1202002905020102110221023CDE9CE
:102760000054039500F07CF84FF00509FCE500BF2C
:1027700040F20800C2F20000407802283AD110204E
:10278000102110221023CDE900450295039500F099
:1027900067F84FF00309E7E540F20800C2F20000D5
:1027A000407802282AD15020CDE9000530201021A0
:1027B000102210230295039500F052F84FF00409FF
:1027C000D2E500BF40F20800C2F2000040780228C3
:1027D00018D10020002110221023CDE900550295C8
:1027E000039500F03DF84FF00209BDE54FF00509F3
:1027F000BAE500BF4FF00309B6E500BF4FF004098A
:10280000B2E500BF4FF00209AEE500BF049806999B
:1028100080F80180017005998170012007B0BDE842
:10282000F08F00BF002007B0BDE8F08F022007B096
:10283000BDE8F08F2020E7A1AEE8AEA42020202044
:10284000E58F96E6B688202000000000FEE7000035
:1028500040F22000C2F20000002101707047000029
:102860002DE9F04F8DB093469846002B81466FD0EE
:10287000BBF1000F0E4608EB010A57D040F2240EC0
:102880000BEB09004FF0010CC2F2000E354603E0DD
:10289000013635B2AA455BDDB2B2402A4F4609D2B5
:1028A00006F007020CFA02F4EA080EEBC2154A46DB
:1028B0004F4615E07A1C12B29042E9DDBA1C12B202
:1028C0009042E5DDFA1C12B29042E1DD04373AB2E3
:1028D0009042EFDCDCE700BF04373AB29042D7DD2C
:1028E000BBB27F2B02D8AB5C6340AB547B1C1AB2EB
:1028F0009042CDDD9BB27F2B02D8AB5C6340AB54E2
:10290000BB1C1AB29042C3DD9BB27F2B02D8AB5CDA
:102910006340AB54FB1C1AB29042B9DD9BB27F2BD3
:10292000DAD8AB5C6340AB54D6E700BF304600BF9B
:10293000421C12B292450BDD821C12B2924507DD99
:10294000C21C12B2924503DD043002B29245EFDCA4
:1029500040F22000C2F20000007818B10DB0BDE8CE
:10296000F08F00BFDDE916760B46DDE918107D1EFD
:102970000895751E424607954D1E013740F2240802
:102980000695451E0497771C01310130C2F20008FC
:10299000059503970291019009E000BFDDE90B3234
:1029A00040F22000C2F2000000780028D6D116982C
:1029B0005FFA89FE70450DD81799D8B2814209D8BF
:1029C00018995FFA8BF0814204D81999D0B28142EC
:1029D00040F24681D0B20A900028D8B20C920B93F4
:1029E000099073D0DDE909215FFA8BF0002802EB32
:1029F000010A59D00EEB0006144603E0013214B26E
:102A0000A24563DD90B24028704607D202F007006D
:102A100001218140E4087746704615E0411C09B267
:102A20008E42EBDD811C09B28E42E7DDC11C09B28A
:102A30008E42E3DD043001B28E42EFDCDEE700BF00
:102A4000043007B2BE42D9DD83B27F2B06D808EB33
:102A5000C41313F807C08CEA0105DD55431C1FB2EF
:102A6000BE42CBDD9BB27F2B04D808EBC413DD5DE7
:102A70004D40DD55831C1FB2BE42BFDD9BB27F2B94
:102A800004D808EBC413DD5D4D40DD55C31C1FB2F7
:102A9000BE42B3DD9BB27F2BD2D808EBC413DD5D01
:102AA0004D40DD55CCE700BF104600BF411C09B2C8
:102AB0008A450BDD811C09B28A4507DDC11C09B2BC
:102AC0008A4503DD043001B28A45EFDC169E179D6E
:102AD000A6EB09007645C0B288BF09EB50090999F9
:102AE0000B9A8D42A5EB0201189FC9B288BF02EB79
:102AF0005102A7EB0B015FFA8BF0C9B2874288BF86
:102B00000BEB510B0C99199B0A9C581AC0B2A342AB
:102B100088BF01EB5001089C5FFA89F0844208BF2E
:102B2000B146079ED0B2864208BF2A46069E5FFA8B
:102B30008BF0864208BFBB46059FC8B2874208BFDC
:102B400019465FFA81FE5FFA89FABEF1000F5FFA5B
:102B500082FC0C910B926BD05FFA8BF100290CEB8D
:102B60000E0053D051446546624603E0013215B26F
:102B7000A8425DDD93B2402B53460BD202F007030F
:102B8000012707FA03F3EF0808EBC7155746544629
:102B900016E000BF5F1C3FB2B942E7DD9F1C3FB2A9
:102BA000B942E3DDDF1C3FB2B942DFDD04331FB2BF
:102BB000B942EFDCDAE700BF043427B2B942D5DD11
:102BC000A6B27F2E02D8EE5D5E40EE55661C37B28F
:102BD000B942CBDDB6B27F2E02D8EE5D5E40EE5537
:102BE000A61C37B2B942C1DDB6B27F2E02D8EE5D67
:102BF0005E40EE55E61C37B2B942B7DDB6B27F2E65
:102C0000DAD8EE5D5E40EE55D6E700BF614600BF04
:102C10004A1C12B290420BDD8A1C12B2904207DDB0
:102C2000CA1C12B2904203DD04310AB29042EFDCBA
:102C30006446754601F070FC199885420ED11899CA
:102C40005FFA8BF0884209D11798DDE90B32844294
:102C500006D11698824503D164E100BFDDE90B324D
:102C600016985FFA89FE86450DD81798D9B2814229
:102C700009D818985FFA8BF1814204D81998D1B21B
:102C800081427FF68DAED0B20A900028D8B20C9265
:102C90000B93099076D0DDE909205FFA8BF10029CA
:102CA00002EB000A5CD00EEB0106144604E000BF04
:102CB000013214B2A24565DD91B24029714609D2B4
:102CC00002F00701012000FA01F1E4087746754699
:102CD00016E000BF481C00B28642E9DD881C00B245
:102CE0008642E5DDC81C00B28642E1DD043108B24F
:102CF0008642EFDCDCE700BF04352FB2BE42D7DDF1
:102D0000ABB27F2B06D808EBC41313F807C08CEACC
:102D10000100D8556B1C1FB2BE42C9DD98B27F2896
:102D200004D808EBC410C35D4B40C355AB1C1FB2A5
:102D3000BE42BDDD98B27F2804D808EBC410C35D45
:102D40004B40C355EB1C1FB2BE42B1DD98B27F2889
:102D5000D2D808EBC410C35D4B40C355CCE700BFCD
:102D6000114600BF481C00B282450BDD881C00B232
:102D7000824507DDC81C00B2824503DD043108B27C
:102D80008245EFDC169E179DA9EB0600B645C0B242
:102D900088BFA9EB500909990B9AA942A2EB05013A
:102DA000189FC9B288BFA2EB5102ABEB07015FFAD3
:102DB0008BF0C9B2B84288BFABEB510B0C99199B91
:102DC0000A9CC81AC0B29C4288BFA1EB5001049C67
:102DD0005FFA89F0844208BFB146039ED0B28642B2
:102DE00008BF2A46029E5FFA8BF0864208BFBB46A8
:102DF000019FC8B2874208BF1946C8B25FFA89FA74
:102E000000285FFA82FE0C910A900B9272D00A9809
:102E10005FFA8BF100290EEB000C59D05144774634
:102E2000724603E0013217B2BC4563DD93B2402B1A
:102E3000534609D202F00703012000FA03F3FE080B
:102E40005746544616E000BF581C00B28142E9DDE7
:102E5000981C00B28142E5DDD81C00B28142E1DD60
:102E6000043318B28142EFDCDCE700BF043427B240
:102E7000B942D7DDA5B27F2D04D808EBC615E85DB1
:102E80005840E855651C2FB2B942CBDDA8B27F2867
:102E900004D808EBC610C55D5D40C555A51C2FB212
:102EA000B942BFDDA8B27F2804D808EBC610C55DC3
:102EB0005D40C555E51C2FB2B942B3DDA8B27F28ED
:102EC000D4D808EBC610C55D5D40C555CEE700BF40
:102ED000714600BF481C00B284450BDD881C00B25F
:102EE000844507DDC81C00B2844503DD043108B207
:102EF0008445EFDC744601F00FFB19980A99814272
:102F00007FF44CAD18995FFA8BF088427FF446ADA0
:102F10001798DDE90B3284427FF442AD1698824562
:102F20007FF43EAD40F220010120C2F200010870A2
:102F30000DB0BDE8F08F000080B540F22400C2F271
:102F400000004FF48061FDF7F4F880BD2DE9F04FEB
:102F500083B0994244D190421346B8BF0346C8BFDC
:102F60000246402964D28FB201F00700012101FA24
:102F700000F0F90840F22407C2F2000707EBC11184
:102F800012B204E004331BB2934200F320839FB2D9
:102F90007F2F02D8CE5D0643CE555F1C3EB29642CF
:102FA00000F31583BFB27F2F02D8CE5D0643CE5506
:102FB0009F1C3EB2964200F30A83BFB27F2F02D815
:102FC000CE5D0643CE55DF1C3EB2964200F3FF8233
:102FD000BFB27F2FD6D8CE5D0643CE55D2E700BF15
:102FE00090423BD199421A46B8BF0A46C8BF0B4629
:102FF000802837D240F224064FF6F87C0127C2F22F
:1030000000061BB205E000BF511C0AB29A4200F351
:10301000DE8295B23F2DF7D802EA0C0506EB0515C6
:1030200002F00704295C07FA04F421432954EBE772
:1030300010B200BF591C09B2814200F3C882991C2A
:1030400009B2814200F3C382D91C09B2814200F364
:10305000BE82191D0BB28342ECDDB8E218DD90464A
:103060009C4619E018B200BF511C09B2814200F31E
:10307000AE82911C09B2814200F3A982D11C09B22F
:10308000814200F3A482111D0AB28242ECDD9EE26D
:1030900080468C46104619468C454FF0000A67461C
:1030A0000D46C8BF4FF0010ACCF100094B428C45D8
:1030B000C4BF4F461D462AB23CB20026121BB8F1CF
:1030C000800F4FF00004A0EB080B38BF0124BCF1C7
:1030D000400F38BF012626405A45A5EB0705009250
:1030E00010DD4FEA4B0002908C45D8BF0B46ABEB8E
:1030F000050EC5EB4B051846D8BFE14643467EB9E1
:10310000434622E06A0002928C45D8BFE146A5EB17
:103110000B0ECBEB45054FF0000A4B46C1469EB166
:103120004FF6F87640F2240206EA0C06C2F20002DC
:1031300002EB06120CF00707012412F80860BC40ED
:10314000344302F8084000E0C1460FFA89F207B2A2
:103150009742019740F33B82009CA0EB09026FEA83
:1031600009064FEA4E0E00EB0608BAF1000F02F016
:1031700003005FD000284FF6BF7C00F023822AB204
:10318000B2F1FF3F029E1FFA89F1C8BF7646B2F145
:10319000FF3FC8BF0133614506EB050116D99DB25B
:1031A0007F2D13D84FF6F87240F2240722EA090265
:1031B000C2F20007072607EB021226EA09064FF0C3
:1031C000010A575D0AFA06F63E43565509F1010712
:1031D00001280DB200F0F781B5F1FF3F0299C8BF99
:1031E0007146B5F1FF3FBAB2C8BF01336245294409
:1031F00017D99DB27F2D14D8ACEB09023F324FF6A0
:10320000F87640F224071640C2F2000707EB0616D4
:1032100002F007024FF0010A775D0AFA02F23A4320
:10322000725509F1020602280DB240F0418337467B
:10323000C9E100BF8C4540F3E580002852D02AB296
:1032400009F10101B2F1FF3F029F8EB2C8BF77467C
:10325000B2F1FF3FC8BF01337F2E3D4415D85F4216
:10326000BAB23F2A11D84FF6F87240F224043A401D
:10327000C2F2000404EB021207F007074FF0010C42
:10328000945D0CFA07F72743975501282DB228D0F3
:1032900009F10201B5F1FF3F029A8EB2C8BF724632
:1032A000B5F1FF3FC8BF01337F2E154415D85F42EB
:1032B000BAB23F2A11D84FF6F87240F224043A40CD
:1032C000C2F2000404EB021207F007074FF0010CF2
:1032D000945D0CFA07F72743975502282DB240F06A
:1032E0000F8389461FFA88F00328C0F0708140F2EE
:1032F00024064FF6F87C4FF00108C2F2000606E003
:1033000001990FFA89F088423D4480F2608109F109
:10331000010029B287B2B1F1FF3F0298C8BF7046E1
:10332000B1F1FF3FC8BF01337F2F0ED859428CB295
:103330003F2C0AD801EA0C0406EB041401F0070143
:10334000E25D08FA01F11143E155284405B209F1A3
:103350000200B5F1FF3F029F80B2C8BF7746B5F1CA
:10336000FF3FC8BF01337F280ED859428AB23F2A97
:103370000AD801EA0C0206EB021201F00701145C04
:1033800008FA01F121431154781905B209F103003B
:10339000B5F1FF3F029F80B2C8BF7746B5F1FF3F4E
:1033A000C8BF01337F280ED859428AB23F2A0AD8B3
:1033B00001EA0C0206EB021201F00701145C08FAA4
:1033C00001F121431154781905B209F104091FFADA
:1033D00089F0B5F1FF3F029FC4BF774601337F28D4
:1033E0008ED859428AB23F2A8AD801EA0C0206EBEB
:1033F000021201F00701145C08FA01F12143115493
:103400007EE700BF5C4540F37381002850D02AB2AC
:10341000B2F1FF3F029FC8BF7746B2F1FF3FC8BF7E
:1034200001339EB209F101017F2E3D4414D88AB2C6
:103430003F2A11D84FF6F87240F224040A40C2F233
:10344000000404EB021201F007074FF0010C945D39
:103450000CFA07F72743975501282DB227D0B5F16D
:10346000FF3F0299C8BF71464E19B5F1FF3FC8BF73
:1034700001339DB27F2D09F1020114D88AB23F2A8F
:1034800011D84FF6F87240F224040A40C2F2000448
:1034900004EB021201F007074FF0010C545D0CFA27
:1034A00007F727435755022835B240F04F82894627
:1034B0001FFA88F00328C0F08A8040F224064FF6F5
:1034C000F87C4FF00108C2F2000605E001990FFAFE
:1034D00089F088423D447ADA28B2B0F1FF3F029F7A
:1034E000C8BF7746B0F1FF3FC8BF013398B27F280D
:1034F0000FD809F101018CB23F2C0AD801EA0C0463
:1035000006EB041401F00701225C08FA01F11143F3
:103510002154781905B2B5F1FF3F029FC8BF774625
:10352000B5F1FF3FC8BF013398B27F280FD809F12A
:1035300002018AB23F2A0AD801EA0C0206EB021203
:1035400001F00701145C08FA01F1214311547819C4
:1035500005B2B5F1FF3F029FC8BF7746B5F1FF3F07
:10356000C8BF013398B27F280FD809F103018AB28E
:103570003F2A0AD801EA0C0206EB021201F0070109
:10358000145C08FA01F121431154781905B2029F25
:10359000B5F1FF3FC4BF7746013398B27F2809F1E8
:1035A000040993D81FFA89F13F298FD809EA0C0141
:1035B00006EB011109F007020C5C08FA02F2224343
:1035C0000A5483E74F461FFA88F0032802D203B05B
:1035D000BDE8F08F40F2240B4FF6F87A4FF0010966
:1035E000C2F2000B06E000BF381D07B201980D447F
:1035F0008742ECDA28B2B0F1FF3F0299C8BF7146AA
:10360000B0F1FF3FB8B2C8BF013360450FD998B2DF
:103610007F280CD82AEA070607220BEB0616BA43C6
:1036200016F8008009FA02F242EA080232544819F8
:1036300001B2B1F1FF3F029D07F14100C8BF7546DD
:10364000B1F1FF3F80B2C8BF01333F2810D898B214
:103650007F280DD8ACEB07023F3202EA0A060BEBDB
:10366000061602F00702345C09FA02F222433254D1
:10367000681801B2B1F1FF3F029D07F14200C8BFD7
:103680007546B1F1FF3F80B2C8BF01333F2810D863
:1036900098B27F280DD8ACEB07023E3202EA0A044A
:1036A0000BEB041402F00702265C09FA02F2324323
:1036B0002254681805B207F14300B5F1FF3F0299A3
:1036C00080B2C4BF714601333F288DD898B27F289D
:1036D0008AD8ACEB07023D3202EA0A040BEB041471
:1036E00002F00702265C09FA02F2324322547BE719
:1036F000002850D02AB209F10101B2F1FF3F029F28
:103700008EB2C8BF7746B2F1FF3FC8BF01337F2EEC
:103710003D4414D89AB23F2A11D84FF6F87240F2BD
:1037200024041A40C2F2000404EB021203F007075B
:103730004FF0010C945D0CFA07F7274397550128C9
:103740002DB227D009F10201B5F1FF3F029A8EB2E6
:10375000C8BF7246B5F1FF3FC8BF01337F2E154485
:1037600014D89AB23F2A11D84FF6F87240F22404C6
:103770001A40C2F2000404EB021203F007074FF0F4
:10378000010C945D0CFA07F72743975502282DB2D8
:1037900040F0028189461FFA88F00328FFF417AF32
:1037A00040F224064FF6F87C4FF00108C2F2000602
:1037B00007E000BF01990FFA89F088423D44BFF647
:1037C00006AF09F101002CB287B2B4F1FF3F0298B5
:1037D000C8BF7046B4F1FF3FC8BF01337F2F0DD87B
:1037E0009CB23F2C0AD803EA0C0406EB041403F045
:1037F0000702E15D08FA02F21143E155284405B2DF
:1038000009F10200B5F1FF3F029F80B2C8BF7746C1
:10381000B5F1FF3FC8BF01337F280DD899B23F29CA
:103820000AD803EA0C0106EB011103F007020C5C55
:1038300008FA02F222430A54781905B209F103008A
:10384000B5F1FF3F029F80B2C8BF7746B5F1FF3F99
:10385000C8BF01337F280DD899B23F290AD803EA9F
:103860000C0106EB011103F007020C5C08FA02F2EE
:1038700022430A54781905B209F104091FFA89F0A4
:10388000B5F1FF3F029FC4BF774601337F2891D82F
:1038900099B23F298ED803EA0C0106EB011103F01F
:1038A00007020C5C08FA02F222430A5482E700BFC6
:1038B000B5F1FF3F0298B1B209F10307C4BF7046EA
:1038C0000133614505447FF67EAE98B27F283FF60E
:1038D0007AAEACEB09013E314FF6F87240F22406A5
:1038E0000A40C2F2000606EB021201F007014FF097
:1038F0000109165C09FA01F13143115463E600BF76
:1039000009F103091FFA89F0B5F1FF3F0299C4BF1D
:10391000714601337F280D443FF6E4AC59428AB228
:103920003F2A3FF6DFAC4FF6F87240F224060A4019
:10393000C2F2000606EB021201F007010127165C35
:1039400007FA01F131431154CCE400BF0298B5F1FC
:10395000FF3FC8BF70460544C8BF013398B27F28F7
:1039600009F103093FF6A4AD1FFA89F13F293FF69B
:103970009FAD4FF6F87140F2240601EA0901C2F248
:10398000000606EB011109F0070201270E5C07FA99
:1039900002F232430A548BE509F103091FFA89F058
:1039A000B5F1FF3F0299C4BF714601337F280D4432
:1039B0003FF6F1AE99B23F293FF6EDAE4FF6F87102
:1039C00040F224061940C2F2000606EB011103F092
:1039D000070201270E5C07FA02F232430A54DAE6C4
:1039E000B0B540F60044C4F201040546C2092046C1
:1039F0004FF40051FCF774FF20464FF48051012230
:103A0000FCF76EFF20464FF480510022FCF768FF60
:103A1000C5F3801220464FF40051FCF761FF2046A9
:103A20004FF480510122FCF75BFF20464FF4805198
:103A30000022FCF755FFC5F3401220464FF4005119
:103A4000FCF74EFF20464FF480510122FCF748FF5F
:103A500020464FF480510022FCF742FFC5F30012CC
:103A600020464FF40051FCF73BFF20464FF48051B5
:103A70000122FCF735FF20464FF480510022FCF76D
:103A80002FFFC5F3C00220464FF40051FCF728FF7A
:103A900020464FF480510122FCF722FF20464FF4CC
:103AA00080510022FCF71CFFC5F3800220464FF432
:103AB0000051FCF715FF20464FF480510122FCF71E
:103AC0000FFF20464FF480510022FCF709FFC5F399
:103AD000400220464FF40051FCF702FF20464FF40D
:103AE00080510122FCF7FCFE20464FF48051002259
:103AF000FCF7F6FE05F0010220464FF40051FCF7FA
:103B0000EFFE20464FF480510122FCF7E9FE2046EB
:103B10004FF480510022FCF7E3FE20464FF4805121
:103B20000122FCF7DDFE20464FF480510022BDE863
:103B3000B040FCF7D5BE000010B584B041F21800CB
:103B4000C4F20200016840F6004441F0080101603F
:103B50000068C4F2010400F00800009000981120F1
:103B60000190032003904FF4405000906946204696
:103B7000FCF7A8FD20464FF480510122FCF7B0FE6F
:103B800020464FF400510122FCF7AAFEAE2000F0BF
:103B900091FDD52000F08EFD802000F08BFDA82047
:103BA00000F088FD3F2000F085FDD32000F082FD6D
:103BB000002000F07FFD402000F07CFDA12000F0FF
:103BC00079FDC82000F076FDDA2000F073FD1220A8
:103BD00000F070FD812000F06DFDCF2000F06AFD47
:103BE000D92000F067FDF12000F064FDDB2000F03B
:103BF00061FD302000F05EFDA42000F05BFDA620FA
:103C000000F058FD8D2000F055FD142000F052FD0D
:103C1000AF2000F04FFD40F22400C2F200004FF44C
:103C20008061FCF786FA00F077FC04B010BD00005C
:103C3000F0B5C1B001AF14460D46064646AA384657
:103C40001946009200F02EFE304629463A46234699
:103C500000F072FB41B0F0BD002B08BF70472DE9AA
:103C6000F041002A03EB010862D040F2240E024426
:103C70004FF0010CC2F2000E0D4603E001310DB20F
:103C8000A84559DD8BB2402B044609D201F0070349
:103C90000CFA03F4EB080EEBC3150746064615E0D5
:103CA000631C1BB29A42E9DDA31C1BB29A42E5DDFC
:103CB000E31C1BB29A42E1DD043423B29A42EFDCEA
:103CC000DCE700BF043637B2BA42D7DDB3B27F2B90
:103CD00002D8EB5D6340EB55731C1FB2BA42CDDDD9
:103CE0009BB27F2B02D8EB5D6340EB55B31C1FB238
:103CF000BA42C3DD9BB27F2B02D8EB5D6340EB552C
:103D0000F31C1FB2BA42B9DD9BB27F2BDAD8EB5D50
:103D10006340EB55D6E700BF881C00B280450BDD41
:103D2000C81C00B2804507DD043108B2804503DDC0
:103D3000481C00B28045EFDCBDE8F0417047000050
:103D40002DE9F04F8BB0002B03920A907AD00398A4
:103D500003EB0108002863D00A9A40F2240E86186B
:103D60004FF0010CC2F2000E0C46894606E000BF7F
:103D700009F101090FFA89F4A04563DD1FFA89F200
:103D8000402A0A9A0CD209F007020A9D0CFA02F2A4
:103D9000E4086FEA020A0EEBC4172A4616E000BFD9
:103DA000541C24B2A642E3DD941C24B2A642DFDDFB
:103DB000D41C24B2A642DBDD043214B2A642EFDCEE
:103DC000D6E700BF04352AB29642D1DDACB27F2CD3
:103DD00003D8BC5C04EA0A04BC546C1C22B29642B0
:103DE000C6DDA4B27F2C03D8BC5C04EA0A04BC5430
:103DF000AC1C22B29642BBDDA4B27F2C03D8BC5CC3
:103E000004EA0A04BC54EC1C22B29642B0DDA4B20F
:103E10007F2CD7D8BC5C04EA0A04BC54D2E700BFAC
:103E20000A4600BF571C3FB2B8450BDD971C3FB296
:103E3000B84507DDD71C3FB2B84503DD043217B2E1
:103E4000B845EFDC5A1EDDF80C8002EB5272B8F177
:103E5000000F4FEAE20700F0578201EB5172D310D6
:103E600003EBE130049008F0030022F0070208237E
:103E700007900A988A1A03EA11310A44411C0191F9
:103E8000811C009140F22401C2F200011FFA82F964
:103E9000C2F1080201441FFA82FA08F0FC0C0291F8
:103EA000002200210597CDF824C00CE017783B4391
:103EB000137000BF0899059F0131CAB2DDF824C014
:103EC0009742C0F236820891CBB2149908FB031BCB
:103ED000049B02FB08119E18082E06F101020691B0
:103EE0007CD2082A80F0CC80B8F1040F80F00E81DB
:103EF0004FF0000C0799DDF80C800029DAD00CEBAC
:103F000000037F2B1BD8069940F2240EC2F2000E4C
:103F100014460A4611F80C7031460EEBC616F55CD5
:103F200007FA09F72F43F75412F80C700EEBC4167A
:103F3000F55C27FA0AF72F432246F7540E460799F5
:103F40000129B7D001990CEB01037F2B21D80698EA
:103F500040F2240B0CF10107C2F2000B10F807E04D
:103F60000BEBC61515F8038031460EFA09F646EA42
:103F7000080614460246EE54D75D0BEBC416F55CFA
:103F800027FA0AF70A98DDF80C802F432246F754E7
:103F90000E46079902298DD000990CEB01077F2F5F
:103FA00088D8069840F224010CF10203C2F2000105
:103FB00010F803C001EBC61515F807E00CFA09F676
:103FC00046EA0E0614460246EE55D35C0A9801EB0B
:103FD000C41223FA0AF33A4468E700BF072A3FF6FF
:103FE00069AF9446B8F1040F80F004810025079969
:103FF00000293FF45FAF2B1862467F2B10D806983C
:1040000010F805C040F22400C2F2000000EBC21616
:1040100016F803E02CFA0AF70A9847EA0E07F75455
:10402000079901293FF446AF01996B187F2B11D8EE
:1040300006986F1C10F807C040F22400C2F200007E
:1040400000EBC21616F803E02CFA0AF70A9847EAC2
:104050000E07F754079902293FF42CAF00996F1807
:104060007F2F3FF627AF0699AB1CCB5C40F22401B3
:10407000C2F2000101EBC21223FA0AF33A4415E737
:10408000B8F1040F80F00481B64600250799002995
:104090003FF410AF2A187F2A0CD806994B5D40F2E6
:1040A0002401C2F2000101EBCE17BE5C03FA09F352
:1040B0003343BB54079901293FF4FCAE01996A18B8
:1040C0007F2A0DD806996B1CCB5C40F22401C2F20A
:1040D000000101EBCE17BE5C03FA09F33343BB5476
:1040E000079902293FF4E6AE00996A187F2A3FF645
:1040F000E1AE0699AB1CCB5C40F22401C2F2000198
:1041000001EBCE1703FA09F33A44CFE602994FF0D8
:10411000000C01EBC61506E009980CF1040C604593
:104120000A983FF4E7AE00EB0C037F2B05EB0C0E77
:104130000CD9591C7F290BEB0C081ED9991C7F291F
:1041400030D9D91C7F29E7D841E000BF1BF80C10FB
:1041500015F80C4001FA09F1214305F80C101BF881
:104160000C109EF8804021FA0AF121438EF880104D
:10417000591C7F290BEB0C08E0D898F801109EF829
:10418000014001FA09F121438EF8011098F801105D
:104190009EF8814021FA0AF121438EF88110991C82
:1041A0007F29CED898F802109EF8024001FA09F152
:1041B00021438EF8021098F802109EF8824021FAEE
:1041C0000AF121438EF88210D91C7F29A4D898F8CF
:1041D00003109EF8033001FA09F119438EF8031019
:1041E00098F803109EF8833021FA0AF119438EF8EB
:1041F000831091E70299099A01EBC613002503E0A9
:104200000435AA423FF4F3AE47197F2F0AD9791C2F
:104210007F2914D9B91C7F291FD9F91C7F29EFD810
:1042200029E000BF1BF805105E1996F8804021FABE
:104230000AF1214386F88010791C7F29EAD80BEB1C
:10424000050149785E1996F8814021FA0AF1214367
:1042500086F88110B91C7F29DFD80BEB050189781E
:104260005E1996F8824021FA0AF1214386F88210FD
:10427000F91C7F29C4D80BEB0501C9785F1997F8A1
:10428000836021FA0AF1314387F88310B8E700BF51
:104290000299B64601EBC613002503E00435AC4590
:1042A0003FF4F4AE42197F2A06D81BF805705E5D14
:1042B00007FA09F737435F55571C7F2F0BEB0506AD
:1042C00003EB050706D9911C7F290CD9D11C7F2946
:1042D000E4D811E071787C7801FA09F12143797012
:1042E000911C7F29F2D8B178BC7801FA09F12143F9
:1042F000B970D11C7F29D1D8F178FA7801FA09F187
:104300001143F970CAE700BF002000BF40F001016F
:10431000C9B28F420DDB40F00201C9B28F4208D30F
:1043200040F00301C9B28F4203D30430C1B28F42BF
:10433000ECD20BB0BDE8F08F2DE9F04F89B01546F7
:1043400012780591002A069000F0E2800DF11F011D
:10435000881C0490C81C45F2C81A98460390081D92
:10436000C0F6000A4FF0250B00264FF0000902901E
:1043700016E000BF069845F67421C0F600013044EF
:1043800001F1BA07059900B2062208230097FFF74A
:10439000D7FC06361FFA89F02A5C002A00F0B880A4
:1043A00050B2B0F1FF3F13DC02F0E000C02809F189
:1043B000010029D002F0F001E02933D002F0F80129
:1043C000F02943D081B26A5C8146002AE8D19FE09F
:1043D00000208DF820000698B8F1060F304400B296
:1043E0008DF81F2000F08080B8F1080F40F08C801D
:1043F00045F6AE41C0F6000101EB0211A1F50077D0
:104400000599082210237CE080B2285C8DF81F20DB
:10441000002800F07D808DF82000049809F1020941
:104420002FE000BF80B2285C8DF81F2000286FD0DD
:1044300009F1020189B2695C8DF82000002967D07A
:10444000039809F103098DF821101AE080B2285C65
:104450008DF81F2000285BD009F1020189B2695C48
:104460008DF82000002953D009F1030080B2285CA8
:104470008DF8211000284BD08DF82200029809F108
:1044800004099AF8001000294FF00001017015D0BE
:104490000024574638460DF11F01FBF755FE48B181
:1044A0000134A0B200FB0BF11AF8011000FB0BA7BE
:1044B0000029EFD1B8F1060F05D15BE75746B8F1F7
:1044C000060F3FF457AFB8F1080F7FF463AF0698BB
:1044D00005993044053700B2102210230097FFF7EA
:1044E0002FFC103656E700BF02EB420145F674225E
:1044F000C0F6000202EB4101A1F1C00705990622B6
:1045000008230097FFF71CFC09F10109464441E725
:1045100009B0BDE8F08F000010B5B02000F0CAF877
:10452000102000F0C7F8002000F0C4F840F2240486
:10453000C2F200042046802100F0F8F8B12000F01B
:10454000B9F8102000F0B6F8002000F0B3F804F13C
:104550008000802100F0EAF8B22000F0ABF81020D3
:1045600000F0A8F8002000F0A5F804F58070802184
:1045700000F0DCF8B32000F09DF8102000F09AF86D
:10458000002000F097F804F5C070802100F0CEF80C
:10459000B42000F08FF8102000F08CF8002000F01C
:1045A00089F804F50070802100F0C0F8B52000F013
:1045B00081F8102000F07EF8002000F07BF804F570
:1045C0002070802100F0B2F8B62000F073F81020BF
:1045D00000F070F8002000F06DF804F540708021C4
:1045E00000F0A4F8B72000F065F8102000F062F8A1
:1045F000002000F05FF804F560708021BDE81040F5
:1046000000F094B82DE9F04F81B09046CA13C2F380
:1046100042320A440B4412B2013BD21003EB5373F3
:10462000DC1002EBE136B1F1FF3F4FF00102C8BFF1
:1046300002EBE304B44239DD0546802826D2E8B215
:10464000000940F2240A00F1100905F00F0BC2F234
:10465000000A374604E000BF013637B2BC4225DD10
:10466000B0B20728F8D846F0B000C0B200F022F887
:10467000484600F01FF8584600F01CF80AEBC71037
:104680002844414600F052F8E6E700BF701C00B233
:1046900084420BDDB01C00B2844207DDF01C00B286
:1046A000844203DD043630B28442EFDC01B0BDE861
:1046B000F08F0000B0B540F60044C4F20104054696
:1046C00020464FF400510122FCF70AF920464FF42E
:1046D00080510122FCF704F920464FF400510022DA
:1046E000FCF7FEF820464FF480510022FCF7F8F862
:1046F0007820FFF775F90020FFF772F92846FFF7D9
:104700006FF920464FF400510022FCF7E9F82046EB
:104710004FF480510122FCF7E3F820464FF400519A
:104720000122BDE8B040FCF7DBB8000070B540F6F0
:104730000044C4F201040D46064620464FF40051E1
:104740000122FCF7CDF820464FF480510122FCF7FE
:10475000C7F820464FF400510022FCF7C1F820466C
:104760004FF480510022FCF7BBF87820FFF738F9AE
:104770004020FFF735F93DB1013E00BF16F8010FAB
:10478000FFF72EF9013DF9D120464FF400510022E8
:10479000FCF7A6F820464FF480510122FCF7A0F860
:1047A00020464FF400510122BDE87040FCF798B854
:1047B0007047000070470000FCF79EB8704700008B
:1047C00080B5FDF7BFF840F23840C2F20000BDE806
:1047D0008040FCF7DBBF0000FEE7000094B0FCF770
:1047E00099F8052000240A904FF480300225CDE985
:1047F0000B04CDE911504FF4E010012113900AA8E9
:10480000CDE90F44CDE90344CDE90D11FCF720FBC0
:1048100020B1EFF3108072B6FEE700BF0F20CDE9A4
:1048200005054FF48060CDE9080405A8022107942E
:10483000FCF71CFA20B1EFF3108072B6FEE700BF60
:10484000012001904FF48070029001A8FCF78CF9D0
:1048500020B1EFF3108072B6FEE700BFFDF7B6F8A7
:10486000FDF714F9FDF7FAF8FFF766F9FDF74AF8D6
:1048700040F23840C2F20000FCF77EFE02E000BFCA
:10488000FDF70CFAFDF73CF9032807D00228F7D012
:104890000128F7D1FDF7C0FBF4E700BFFDF700FBEF
:1048A000F0E7000037B514460846064B6A46214635
:1048B00000F0DCF804466946002000F06EFC20465B
:1048C0003EBD00009B51000802E008C8121F08C14D
:1048D000002AFAD170477047002001E001C1121F81
:1048E000002AFBD1704700002DE9FF5F82B0002154
:1048F000DDE90430020DDDF840B0034318D044F682
:104900001050A2F2FF3242431514119801281FD013
:10491000A5EB0B00401C5FEA000A4FF000064E4F6B
:10492000DFF83891B046504615D5CAF1000413E0BF
:10493000119801244AA3012801D16FEA0B010298C2
:10494000119AC0E90031C0E9024206B0BDE8F09F0B
:10495000CBF10000DFE704460021404A491842EB52
:104960000450CDE9001012E0E00707D032463B4684
:1049700040464946FBF79DFC8046894632463B4609
:1049800010461946FBF795FC06460F466410002CAE
:10499000EAD1DDE90401DDE90023BAF1000F06DA0E
:1049A000FBF787FC42464B46FBF783FC05E0FBF731
:1049B000F2FC42464B46FBF7EEFC04460E46002254
:1049C000284BFBF745FE03D84FF0FF30014607E0C8
:1049D0000022254B20463146FBF7C4FBFBF71FFEA8
:1049E000102409E0002C0ADB0A220023FBF758FD03
:1049F000039B30321A55641E50EA0102F2D1641C46
:104A0000039AC4F111031444119A012A03D001221C
:104A100008430DD10AE0084304D000204FF0110BE9
:104A2000119072E7A3EB0B056D1E0DE05B4504DDF5
:104A30004FF0000205F1010504E003DA4FF0000237
:104A4000A5F10105002AECD002981199C0E90231C4
:104A5000C0E9004579E70000000014400000F03F85
:104A6000300000000000F0430000E03F2DE9FF4F60
:104A700095B09B468946064600250FE2252877D14A
:104A800000242746F84A0121059400E0044316F863
:104A9000013F203B01FA03F01042F7D130782A2879
:104AA00011D06FF02F033078A0F13002092A16D808
:104AB000059A44F0020402EB820203EB4202104426
:104AC000761C0590EFE759F8042B0592002A03DACB
:104AD000504244F40054059044F00204761C3078AF
:104AE0002E2816D116F8010F44F004042A280DD000
:104AF0006FF02F023078A0F13003092B09D807EBB3
:104B0000870302EB4303C718761CF3E759F8047BCD
:104B1000761C30786C280FD006DC4C2817D068281B
:104B20000DD06A2814D104E0742810D07A280FD14F
:104B30000DE044F400140AE044F4801401E044F46D
:104B400040147278824202D104F58014761C761CDF
:104B5000307866280BD013DC582877D009DC002881
:104B600075D04528F6D04628F4D047281AD19DE1C3
:104B700018E0632835D0642879D0652812D195E1F2
:104B8000702873D008DC6728F1D069286FD06E28B0
:104B90000DD06F2806D1B5E073282CD0752875D0BC
:104BA000782874D05A46179990476D1C75E1C4F364
:104BB0000250022809D003280DD0D9F8001004288B
:104BC0000DD00D6009F1040967E1D9F80010EA176A
:104BD000C1E90052F6E7D9F800100D80F2E70D7038
:104BE000F0E719F8041B8DF8001000208DF8010083
:104BF000EA46012003E059F804AB4FF0FF306107AB
:104C00004FF0000102D40DE008F101018846B942DD
:104C10000FDA8045F8DB1AF808100029F4D108E013
:104C200008F1010188468142FADB1AF808100029D0
:104C3000F6D105985B46A0EB080721463846179A3F
:104C400000F094FA284400EB080507E04DE029E164
:104C50000DE01AF8010B5A4617999047B8F1010870
:104C6000F7D25B4621463846179A13E142E00A2202
:104C70000092C4F302524FF0000A022A08D059F8F9
:104C800004CB032A4FEAEC710AD00DE029E02AE0B8
:104C900009F1070121F00702F2E802C1914609E09B
:104CA0000FFA8CFC4FEAEC71042A03D14FFA8CFC0A
:104CB0004FEAEC71002907DA0A460021DCF1000C0A
:104CC00061EB02012D2202E0220504D52B228DF892
:104CD0000420012203E0E20701D02022F7E79046FA
:104CE00059E00A2102E010220DE010214FF0000AE5
:104CF00000910BE010224FF0000A44F00404082752
:104D0000009203E008224FF0000A0092C4F302521E
:104D1000022A05D059F804CB0021032A08D009E063
:104D200009F1070121F00702F2E802C1914605E00E
:104D30001FFA8CFC042A01D10CF0FF0C4FF0000884
:104D4000220728D5702806D0009B83F0100353EA71
:104D50000A0305D00EE040228DF80420012208E06D
:104D60005CEA010206D030228DF804208DF805009F
:104D700002229046009B83F0080353EA0A030AD1FB
:104D80005CEA010201D1620705D530228DF80420CA
:104D90004FF001087F1E582804D034A003900EA8BD
:104DA00002900DE036A0F9E753466046009AFBF703
:104DB00077FB84460398825C0298401E0290027042
:104DC0005CEA0100F0D1029806A9081A00F1200A55
:104DD000600702D524F4803400E00127574502DD46
:104DE000A7EB0A0000E0002000EB0A010090059804
:104DF0004144401A0590E00306D45B462146179AC9
:104E0000059800F0B3F90544002706E001A85A46CA
:104E1000C05D179990476D1C7F1C4745F6DBE0038A
:104E20000CD55B462146179A059800F09FF905447A
:104E300004E030205A46179990476D1C0099481E8F
:104E400000900029F5DC08E0029802995A460078A3
:104E5000491C0291179990476D1CBAF10001AAF103
:104E6000010AF1DC65E1000009280100303132332C
:104E70003435363738396162636465660000000096
:104E80003031323334353637383941424344454680
:104E90000000000000F058F90544761C3078002826
:104EA0007FF4ECAD19B02846BDE8F08F620700D45E
:104EB000062709F1070222F0070CFCE80223E1466D
:104EC00003F000485FEA080C02D00FF2702C0DE0EE
:104ED0005FEA045C02D50FF2682C07E05FEAC47C4D
:104EE00002D00FF2602C01E0AFF2700C4FF0FF38EF
:104EF00023F00043CDF850C065280CD006DC4528CF
:104F000009D046281DD047283DD13DE0662818D05D
:104F100067287ED138E00021112F01DB112000E04D
:104F2000781CCDE9000106A90EA8FFF7DDFCDDE93C
:104F30000F010E9A03910021009207F1010A0491DA
:104F40004DE04FF000400097CDE9011006A90EA8F2
:104F5000FFF7CAFCDDE90F0203920E9B11990022B4
:104F6000DDF80CA00093049211B9791C00EB010A42
:104F7000B7EB0A0004D4C0F1FF3007F1010A049036
:104F8000AAEB0700019044E0012F00DA012700217D
:104F9000112F01DD112000E03846CDE9000106A9FE
:104FA0000EA8FFF7A1FCDDE90F010E9A0391002185
:104FB00004910092BA4621070CD40399514500DAB6
:104FC0008A46BAF1010F05DD009AAAF10101515C90
:104FD000302908D0B84202DA10F1040F06DA0121B4
:104FE000CDE9011015E0AAF10101E9E7002805DC8F
:104FF000049901440491AAEB000102E0411C5145CF
:1050000000DD8A460499401A401C01904FF0004090
:105010000290200704D40198504501DBCDF80480AC
:1050200000208DF84F0002980DF14F07B0F1004FAE
:1050300025D02B200E9002984FF0020800280CDAA1
:10504000404202902D200E9007E00A210298FBF7C3
:1050500011FA3031029007F8011DB8F10001A8F1F2
:105060000108F2DC02980028EFD1791E0E98087032
:10507000307800F0200040F0450007F8020D12A83B
:10508000C01B00F107081498007800B1012000EB64
:105090000A01019801EBE07105984144401A401E55
:1050A0000590E00306D45B462146179A059800F068
:1050B0005DF805441498007818B15A46179990473E
:1050C0006D1CE00324D55B462146179A059800F035
:1050D0004DF805441CE00498002807DBDDE90301D6
:1050E000884203DD0098405C179901E01799302051
:1050F0005A469047049805F10105401C0490019818
:10510000401E019004D12E205A46179990476D1CDD
:10511000BAF10001AAF1010ADDDC05E017F8010B84
:105120005A46179990476D1CB8F10001A8F1010883
:10513000F4DC5B462146179A0598ABE62D0000008B
:105140002B000000200000002DE9F041044600255E
:105150001E461746880404D405E039462020B0478F
:105160006D1C641EF9D52846BDE8F0812DE9F0419B
:10517000044600251E469046C80301D5302700E0AE
:105180002027880404D505E041463846B0476D1C09
:10519000641EF9D52846BDE8F0810A68531C0B60EF
:1051A0001070704700001000200030003000000038
:1051B00000000000000001020304060708090000C7
:1051C0000000010203040102EFBC8C00000000009B
:1051D0000000000000000000000000000000005877
:1051E00038000000000000000000000000E38082A2
:1051F00000000000000000000000000000000000AF
:105200000000000018242418000000000000000026
:105210000000E4BDA00000008060F8074020180FE7
:1052200008C80808281800010000FF00100C0340FF
:10523000807F0001061800E5A5BD00001010F01FDA
:1052400010F000808282E2928A8680004022150857
:105250001661000040807F0000000000E4B8960066
:1052600000202020FE2020FF202020FF20202020C2
:10527000000000007F404047444444474040400015
:1052800000E7958C0000000000FE929292FE929240
:1052900092FE0000000008080484621E010001FE66
:1052A000020404080800E59388000000E020A0F054
:1052B00020C0300C1420C080000000000001040257
:1052C00001384929253D0C01010100E596BD00008A
:1052D00000E02020E02048D0FA64A8A400000000EC
:1052E000000001010444452D171C2464050300003F
:1052F000E59FBA00000000000010FCB03008FE0876
:1053000008000000000020104A4643527D494B45EA
:105310004919101000E7B1B300000000008080A020
:1053200080FE6050484800000000000010080402A1
:10533000017F0102040C08080000E6988E000000BE
:1053400000F8F848F8F814FCFC2424FCFC000000E9
:105350000207074367773E0F0311317F7F0000E5A7
:10536000A4A9000000000080808888F88848404098
:105370000000000000002020100806030408103080
:1053800020200000E5B0B100000040C0A0A0A8A807
:105390000000F0C85010000000001008133E012C5F
:1053A00018060D332020203800E694BE000000408F
:1053B0004040C04C482080704EC0202000000010AB
:1053C000081621310F00120C0E1120204000E5813B
:1053D000870000000080E01C00F050785048A818BA
:1053E0000000000201007F00003F050013150F3090
:1053F000202000E9A38E00000000FE021222C2025B
:10540000C23202FE0000000080601F0020100C036A
:105410000C30000F3040F800E6898700000000FCE7
:10542000242424252624242424243C000040300F56
:10543000211549817F00211549817F0000E68EA753
:105440000000101010FF9020984828090E2848A846
:1054500018000242817F0040404242427E42424266
:105460004000E588B6000040504E4848FF48484894
:1054700040F80000FF000000003E0202FF12221E62
:10548000000F40807F0000E981A50000404042CC31
:1054900000004A32222AF121312D00000080403FD5
:1054A000408081BDA1A1BFA1A1BD8100E6849F0074
:1054B000000000FC04D4545454D4047F84C5360442
:1054C000008866010063828292AB8482C10224CF8D
:1054D00000E695B0000090523410FF1034528070F6
:1054E0008F0808F80800829A566322528E00804086
:1054F000330C33408000E68DAE00001010FF10909A
:1055000000FE929292F292929E800042827F0180EF
:10551000601F00FC44474444FC0000E697B60000CE
:1055200000FC848484FC001010101010FF10100088
:10553000003F1010103F0000010640807F00000077
:10554000E9929F000020102CE7242400F01010FFA7
:105550001010F000000101017F211100070202FF7D
:105560000202070000E99FB3000040404444546435
:1055700045464464544444404000000000FF49490B
:105580004949494949FF00000000E4B99000000082
:1055900000E09C848484F482828382808000000006
:1055A0002010080640807F0000020408300000E858
:1055B000AEBE0000404042CC0040A09E8282829E4F
:1055C000A02020000000003F908840432C10284677
:1055D00041808000E7BDAE0000001715D555575536
:1055E0007D555755D5151700004040407F555555FE
:1055F000555555557F40404000E58D950000000011
:10560000F8494A4C48F8484C4A49F8000000101044
:105610001312121212FF1212121213101000E6AC23
:10562000A1000000020C80608040300FC8080828EC
:1056300018000002027E0180402018060106182092
:10564000408000E6ADA500004040407C404040FF67
:105650004444444444404000809088464040202FC9
:105660001010080402000000E995BF00008080804F
:1056700080FF8080A090888482808080000000006D
:1056800000FF4021120408102020404000E8A792AB
:1056900000002010E824272424E424342C20E000F7
:1056A000000080601F090909097F090949897F00F5
:1056B0000000E5BAA600000000FC242424FC2526F6
:1056C00024FC242424040040308F80844C5525255C
:1056D00025554C80808000E9809F0000404042CCEE
:1056E0000004F49494FF9494F40400000040201FFC
:1056F00020484442415F414244484000E5BAA60088
:10570000000000FC242424FC252624FC242424045A
:105710000040308F80844C55252525554C80808055
:1057200000E6978B00001010F19690901028272427
:10573000E42424E4040080601F40807F80601F20F8
:105740007F4444444000E8BDAC0000C8B88FE888FE
:1057500088404848E85F4848484000081808FF0467
:105760000400020B1222D20A060000E696B90000DD
:105770000808080808F8898E8888888808080800BA
:1057800000804020180700004080403F00000000DB
:10579000E59091000000F808080CCA494848C8087C
:1057A0000808F8000000FF0000001F0808081F009C
:1057B00040807F0000E4BFAF00008060F80700FC7D
:1057C00004C434858684F48484000000FF40300FD4
:1057D00001FF00024C807F000000E4BBB00000002D
:1057E0008060F80700FC040200FC0404FC000001D7
:1057F0000000FF00001F080400FF0408070000E588
:10580000818F00008060F80700FC242425262424D2
:10581000243C00000000FF403C03FF097F097F0992
:1058200089FF0000E888AA000080FC96E584FC005F
:1058300008C8494AC808080000807F024C807F8061
:10584000601F00003F40407800E6A8AA000010104A
:10585000D0FF901020A4BFA4E4A4BFA420000403A0
:1058600000FF0003804F2A0A0F0A2A4F8000E6BB80
:105870009A00001060028C002494CCA596C48C146D
:1058800024000004047E01201008FC422408152294
:10589000404000E8A79200002010E824272424E4D8
:1058A00024342C20E000000080601F090909097FD2
:1058B000090949897F000000E79BB4000000040447
:1058C000F49494949F949494F40404000040404011
:1058D0007F4A4A4A4A4A4A4A7F40404000E7AB8BE7
:1058E00000000010109010101116101010D01010A1
:1058F000000040404040435C4040504C43404040EA
:105900004000E78EAF0000048484FC84840004041B
:1059100084E41C840404002060201F101004020191
:1059200000FF0000010600E6A8A100001010D0FF53
:105930009014E4AFA4A4A4AFE4040000040300FFA7
:1059400000894B2A1A0E1A2A4B888000E5BC8F006A
:1059500000101090909090901010FF1010111610E1
:1059600000002060203F10101000030C102040F8B1
:1059700000E58AA800004044C4444444401010FF9D
:10598000101010F00000103C131014B840300E013D
:105990004080403F0000E794BB000002F20202F2A8
:1059A0009292F29292F20202F20200007F40404F85
:1059B00048484F48484F4040FF0000E8AFAD000066
:1059C0004042CC0000829292F29E9292F28280003B
:1059D00000007F201000FC4444444444FC000000CC
:1059E000E8A8800000040424242424252624242458
:1059F00024240404000000F9494949494949494916
:105A000049F9000000E78988000000FE20203F20BF
:105A100000FC24E4242223E20000807F0101FF80B7
:105A2000601F8041261826418000E69CAC000000E3
:105A300010101010D030FF30D010101010000010D7
:105A4000080402090808FF080809020408100000F9
:105A500000000000FF0101013109090909897101F4
:105A6000010101FFFF80808080808096818080809E
:105A7000808080FF0000000000000000002F000078
:105A800000000700070000147F147F1400242A7F01
:105A90002A12002313086462003649552250000080
:105AA0000007000000001C224100000041221C00F1
:105AB0000014083E08140008083E0808000000A072
:105AC000600000080808080800006060000000206E
:105AD00010080402003E5149453E0000427F40004C
