:020000040800F2
:10000000F0090020010100082D400008C12400086B
:10001000F5290008B1060008A163000800000000EF
:10002000000000000000000000000000DD62000889
:10003000D506000800000000955F0008E162000896
:100040001B0100081B0100081B0100087162000869
:100050001B0100081B0100081B0100081B01000810
:100060001B0100081B0100081B0100081B01000800
:100070001B0100081B0100081B0100081B010008F0
:100080001B0100081B0100081B0100081B010008E0
:100090001B0100081B0100081B0100081B010008D0
:1000A0001B010008716300081B0100081B01000808
:1000B0007D63000889630008956300081B01000840
:1000C0001B0100081B0100081B0100081B010008A0
:1000D0001B0100081B0100081B0100081B01000890
:1000E0001B0100081B0100081B010008DFF80CD0F1
:1000F00000F0C6FA00480047A5630008F009002098
:100100000648804706480047FEE7FEE7FEE7FEE7B1
:10011000FEE7FEE7FEE7FEE7FEE7FEE76D630008A9
:10012000ED000008D2B201E000F8012B491EFBD21D
:1001300070470022F6E710B513460A4604461946F2
:10014000FFF7F0FF204610BD10B5002200E0521C62
:10015000835C8C5CA34201D1002BF8D1D8B2E1B210
:10016000401A10BD2DE9FE4F804681EA0300C00F02
:100170000C46009021F0004123F00045B8EB02004E
:10018000A94105D24046214690461C460B460246F0
:1001900023F00040104347D0270DC7F30A00C3F3F4
:1001A0000A510290401A019040286BDAC3F3130001
:1001B00040F4801B0098924620B10023D2EB030A42
:1001C00063EB0B0B01985946C0F14002504600F01A
:1001D00098F906460D4650465946019A00F0B0F986
:1001E00010EB08006141002487EA115284EAE773AA
:1001F0001A4340D0009A62B3019A012A4FEA07528B
:1002000015DC001B61EB02014FF0004202EA0752CD
:10021000CDE90042001C41F5801132462B4600F02A
:10022000B0F903B0BDE8F08F40462146F9E7001B66
:1002300061EB0201001C41F5801300185B4120189E
:10024000A2F5001747EB030140EAD570B6196D41DE
:1002500011E06D084FEA360645EAC0754FEA0752CD
:10026000001B61EB0201001C41F5801149084FEAB7
:1002700030000019514132462B4603B0BDE8F04F23
:1002800000F070B90098012240000023D0EB020278
:1002900063EBE073009821464FEAE074B8EB00008E
:1002A00061EB0401E9E783F000435BE781F0004183
:1002B00058E72DE9FE4F81EA030404F0004421F0E1
:1002C000004100944FF0000B23F0004350EA01047A
:1002D0005ED052EA03045BD0C3F30A54C1F30A555B
:1002E0002C44A4F2F3340194A0FB0254C1F3130193
:1002F00041F48011C3F3130343F4801301FB024460
:1003000000FB034E840A970A44EA815447EA835764
:10031000A4FB076802958D0A05FB07854FEA932C1D
:1003200004FB0C542705029D4FEA065847EA16378E
:10033000B5EB08056EEB070C870E920E47EA8117A6
:1003400042EA8312A7FB0201B6EB0B0164EB000447
:100350002B0D43EA0C335E1844EB1C50DA46514631
:10036000E7FB0201C5F313044FEA0B3343EA1453CE
:100370004FEA0432019C43EA0603A4F10C04029400
:10038000009CCDE900B400F0FCF803B0BDE8F08FAC
:1003900000200146F9E72DE9F04D81EA030404F05D
:1003A000004B21F0004514464FF0000A23F00041B5
:1003B00050EA050220D054EA01021DD0C5F30A57C5
:1003C0000246C5F31303C1F31300C1F30A5640F408
:1003D000801543F48013A7EB0608101BD64608F2DD
:1003E000FD3873EB050002D308F1010801E0921813
:1003F0005B41B8F1000F03DA00200146BDE8F08D43
:1004000000204FF48011064684460EE0171B73EB64
:10041000050705D3121B63EB050306434CEA010CE9
:1004200049084FEA300092185B4150EA0107EDD1CC
:1004300052EA030012D082EA040083EA050108436D
:1004400005D0101BAB4106D20122002306E000229A
:100450004FF0004302E06FF0010253101AEB060068
:100460004CEB085110EB0A0041EB0B01BDE8F04DDD
:1004700000F078B830B50B46014600202022012458
:1004800009E021FA02F59D4205D303FA02F5491B62
:1004900004FA02F52844151EA2F10102F1DC30BD78
:1004A0002DE9F05F0546002092469B4688460646A9
:1004B000814640241BE0284641464746224600F03C
:1004C0002FF853465A46C01A914110D31146184688
:1004D000224600F016F82D1A67EB01084F46224617
:1004E0000120002100F00DF817EB00094E41201EFD
:1004F000A4F10104DFDC484631462A464346BDE804
:10050000F09F202A04DB203A00FA02F10020704715
:100510009140C2F1200320FA03F319439040704741
:10052000202A04DB203A21FA02F00021704721FA48
:1005300002F3D040C2F120029140084319467047AF
:10054000202A06DBCB17203A41FA02F043EAE07397
:1005500006E041FA02F3D040C2F120029140084384
:100560001946704710B5141E73F1000408DA401CD8
:1005700041F1000192185B411A4301D120F00100C2
:1005800010BD2DE9F04D92469B4611B1B1FA81F2B2
:1005900002E0B0FA80F220329046FFF7B2FF044644
:1005A0000F4640EA0A0041EA0B0153465A46084307
:1005B00013D0114653EA010019D0C8F14002504649
:1005C000FFF7AEFF05460E46504659464246FFF736
:1005D00098FF084305D0012004E020463946BDE8D5
:1005E000F08D0020054346EAE0762C4337430A9815
:1005F0006305E40AA0EB08000022FD0A44EA475420
:100600000A3002D500200146E9E7010510196941C9
:10061000DDE9084500196941BDE8F04DA2E7C1F3E5
:100620000A52C1F3130140F2FF3341F480119A42A0
:1006300002DA00200146704740F233439A42A2F2A8
:10064000334202DC5242FFF76BBFFFF75ABF000094
:1006500030B5041E71F1000404DB4FF00044404249
:1006600064EB0101141E73F1000405DB1C464FF01E
:100670000043524263EB0403994208BF904230BDED
:100680001CB509480090094801900546009C06E009
:10069000E06840F0010394E8070098471034AC424A
:1006A000F6D3FFF727FD0000C07B0008E07B0008C1
:1006B000FEE7000040F60040C4F2010001210022E4
:1006C00000F01EB940F60040C4F2010001210122F1
:1006D00000F016B970470000EFF3108072B600BF4B
:1006E000FEE700002DE9F04F82B00E68002E00F00A
:1006F000FD8041F20042C4F20102042340F2004EA8
:10070000904208BF03234FF6FF7CC4F2010E009312
:1007100000240123C1F2100C4FF0000A4FF0000931
:100720004BE000BF41F20002C4F20102009F904280
:1007300008BF022704F00C030F229A402BEA0202A2
:1007400007FA03F34FEA9A051A4346F825204E6844
:1007500040F20C45F202DEF8082054BF22EA0802FB
:1007600042EA0802C4F20105CEF808202A68B30262
:1007700054BF22EA080242EA08022A60B303DEF804
:10078000042054BF22EA080242EA0802F303CEF82A
:100790000420DEF800204FF0010354BF22EA0802D3
:1007A00042EA0802CEF800200E680AF1010A36FA81
:1007B0000AF204F1040400F0998003FA0AFB16EA35
:1007C0000B08F1D04E68664512DC122E56D8DFE8D1
:1007D00006F0350B4D4955555555555555555555FB
:1007E00055555545510000BFD1F80C9046E000BF6B
:1007F0004FF6FF72C1F2210296420FDC0022C1F2D5
:10080000110296421AD00022C1F21202964215D06D
:100810000022C1F22102964210D02FE00022C1F244
:10082000220296420AD00022C1F23102964205D03D
:100830000022C1F23202964220D100BF8A684AB13A
:10084000012A14BFC0F814B0C0F810B04FF0080966
:1008500014E000BF4FF0040910E000BFCA6802F1C5
:1008600004090BE04FF0000908E000BFCA6802F17C
:10087000080903E0CA6802F10C0900BF02462646D7
:10088000B8F5807F24BF0432203E17680F25B5409D
:1008900027EA050509FA06F635431560CA79D20636
:1008A0007FF582AF41F21803C4F202031A68AEF575
:1008B0007E7642F001021A601A6802F0010201928B
:1008C000019A2AF0030256F802B040F60002C4F280
:1008D0000102904208D040F60042C4F20102904268
:1008E0007FF420AF012725E7002723E702B0BDE80A
:1008F000F08F00008068084018BF0120704700009A
:10090000002A08BF090401617047000040F2EC5062
:10091000C2F200000068704740F2000040F2EC5163
:10092000C2F20000C2F2000100780A6810440860B8
:100930007047000080B542F20000C4F20200016876
:1009400041F010010160032000F08CF80F2000F04E
:1009500005F800F027F8002080BD000070B540F2D7
:100960000006C2F2000640F218013278C2F200011D
:100970004FF47A730968B3FBF2F20446B1FBF2F16B
:10098000084601F031F90F2C4FF0010508D838B9AD
:100990004FF0FF3021460022002500F037F8746048
:1009A000284670BD82B041F21800C4F2020001680E
:1009B000022241F001010160016801F00101019191
:1009C0000199416841F080514160406800F08050D9
:1009D000009000980420C4F20100016862F31A61DB
:1009E000016002B070470000002848BF704700F067
:1009F0001F01012202FA01F11C2202EAD0004EF28C
:100A00000012CEF2000281507047000010B54EF681
:100A10000C5CCEF2000CDCF80030C3F3022E8EF03A
:100A20000704042C28BF0424BEF103034FF0FF3E4B
:100A30000EFA04F438BF0023A14399400EFA03F3E1
:100A40009A43114300F00F0200F160430901043A98
:100A500003F564436244002848BF02F10C03197097
:100A600010BD00004EF60C51CEF200010A684FF6A0
:100A7000FF031A4060F30A2242F0806040F0FD70EC
:100A8000086070472020C4F20E20012101607047E9
:100A9000012821D002280DD0102808D141F20401EC
:100AA000C4F202010A6851F8040CC00134D40020D9
:100AB000704700BF80B500F0E3F941F20401C4F2D1
:100AC000020109680222C1F3813102EB4101B0FB4E
:100AD000F1F0BDE88040704741F20400C4F202002A
:100AE000C16940F202320A40B2F5817F04BF4FF47F
:100AF0000040704701F44071B1F5407F18D0B1F566
:100B0000007F1CBF00207047006A49F64041800703
:100B100001EAE070704700BFC2F3834015A3185C80
:100B2000D2030DD440F60012C0F23D02504313E050
:100B300050F8040C4FF22441800301EAE070704742
:100B40000A6810A3C2F340429A5C41F20023C0F24B
:100B50007A03B3FBF2F250430968490248BF704779
:100B60004AF6AB214000CAF6AA21A0FB01014808C1
:100B7000704700BF02030405060708090A0B0C0DA5
:100B80000E0F1010010200002DE9F04182B0044662
:100B9000007841F21C06C007C4F202064AD0306851
:100BA0005FEAC00808D4306840F080503060306898
:100BB00000F080500190019847F20007C4F200074E
:100BC0003868C00512D4386840F480703860FFF788
:100BD0009DFE05463868C00508D4FFF797FE401B08
:100BE0006428F7D9032002B0BDE8F081706810F4E2
:100BF000407012D0616801F4407188420DD0706875
:100C000040F24042C4F24222012320F440711360BA
:100C10000023C0071360716026D17068616820F4FA
:100C200040700843B8F1000F706003D4306820F0C2
:100C3000805030602068810707D556F8181CA268DC
:100C400021F44041114346F8181CC00607D556F858
:100C5000180CE16820F48000084346F8180C0020C6
:100C600002B0BDE8F08100BFFFF750FE054641F23B
:100C7000883700BF70688007CFD4FFF747FE401B5E
:100C8000B8424FF00300F5D9EAE7000070470000D2
:100C9000002804BF012070472DE9F04381B042F2E3
:100CA0000008C4F202080446D8F800000D4600F01F
:100CB000070081420CD9D8F8000020F00700284333
:100CC000C8F80000D8F8000000F00700A8426CD176
:100CD000206841F204098107C4F2020917D54107CF
:100CE00005D5D9F8001041F4E061C9F800100107FA
:100CF00005D5D9F8001041F46051C9F80010D9F8B1
:100D00000010A26821F0F0011143C9F80010C007DB
:100D100042D1D8F8000000F0070085420CD2D8F884
:100D2000000020F007002843C8F80000D8F80000B1
:100D300000F00700A84238D12068410707D5D9F84C
:100D40000010E26821F4E0611143C9F800100007C7
:100D500008D5D9F80000216920F4605040EAC100AC
:100D6000C9F80000D9F8002002F00C00082841F270
:100D70000020C0F27A004DD147F67C23C2F38341B4
:100D8000C0F60003595CD20338D440F60010C0F21C
:100D90003D0048433EE000BF606859F8041C02284B
:100DA00008D0012826D1890306D4012001B0BDE86E
:100DB000F08300BF8901F8D5D9F8001021F00301B4
:100DC0000843C9F80000FFF7A1FD064641F2883745
:100DD000D9F80000616800F00C00B0EB810F98D0EA
:100DE000FFF794FD801BB842F2D9032001B0BDE8A3
:100DF000F08300BF8907D8D5DEE700BFD9F800200F
:100E000046F61C53C2F34042C0F600039A5C4843C6
:100E1000B0FBF2F0D9F8001046F60452C1F303110A
:100E2000C0F60002515C40F2180220FA01F140F2D3
:100E30000400C2F200000068C2F200021160FFF775
:100E40008DFD002001B0BDE8F08300004C20C4F20D
:100E5000422001210160704740F2180041F2040174
:100E6000C2F20000C4F202010068096846F614529A
:100E7000C1F30221C0F60002515CC8407047000077
:100E800040F2180041F20401C2F20000C4F2020173
:100E90000068096846F61452C1F3C221C0F6000288
:100EA000515CC8407047000010B541F20804C4F21C
:100EB00002042068000658BF10BDFFF7E7FE80203F
:100EC000A07010BD002804BF012070472DE9F0413B
:100ED00082B00446007841F20006C007C4F2020660
:100EE0000CD0706800F00C00042840F0818030685D
:100EF000800303D56068002800F0468120788007D1
:100F00001BD5706810F00C0F09D0706800F00C0051
:100F1000082840F087807068C00300F18380306843
:100F2000800703D52069012840F02E81306861696F
:100F300020F0F80040EAC10030602078000713D4A8
:100F4000207840072CD4E569002D00F018817068E6
:100F500000F00C00082840F0A780012D40F004812B
:100F6000012002B0BDE8F081A069002800F0848073
:100F70000020C4F242200121C0F88014FFF7C6FC13
:100F8000054600BF706A800700F1B280FFF7BEFC23
:100F9000401B0228F6D9032002B0BDE8F08100BF53
:100FA000F0695FEAC00808D4F06940F08050F06151
:100FB000F06900F080500090009847F20007C4F2FA
:100FC00000073868C00549D4386840F4807038603C
:100FD000FFF79CFC054600BF3868C0053ED4FFF70C
:100FE00095FC401B6428F7D9032002B0BDE8F081CE
:100FF000706800F00C00082803D17068C0033FF54A
:1010000076AF61683068002900F00C81B1F5A02F3F
:1010100000F00081B1F5803F40F01A8140F480304B
:101020001CE100BF2069002840F20000C4F2422009
:1010300000F0888001210160FFF768FC054600BFD1
:10104000306880073FF572AFFFF760FC401B022855
:10105000F6D9032002B0BDE8F08100BFE168306A34
:10106000002900F09D80052900F09280012940F0C0
:10107000AF8040F00100B1E00020C4F24220002126
:10108000C0F88014FFF742FC054600BF706A800775
:101090007FF556AFFFF73AFC401B0228F6D9032034
:1010A00002B0BDE8F08100BF0027C4F24227002053
:1010B0003866FFF72BFC022D05460DD13068800104
:1010C00040F1DE80FFF722FC401B02284FF00300B6
:1010D000F4D902B0BDE8F081306880014FD5FFF748
:1010E00015FC401B02284FF00300F5D9F1E700BFC3
:1010F00040F21800C2F20000006844F6D351C1F279
:101100006201A0FB0101480A019000BF00BF0198E5
:10111000411E002801913FF413AF00BF0198411E0A
:10112000002801913FF40CAF00BF0198411E002838
:1011300001913FF405AF00BF0198411E00280191C5
:10114000E4D1FDE600210160FFF7E0FB054600BFAA
:10115000306880077FF5F1AEFFF7D8FB401B02280F
:101160004FF00300F4D9B4E77068216A00F48032CC
:101170008A4209D1616A00F47010884204D10020CB
:1011800002B0BDE8F08100BF012002B0BDE8F081EF
:1011900040F004003062306A40F001001EE000BF01
:1011A00020F001003062306A20F004003062FFF766
:1011B000ADFB054641F28837306A800720D5FFF73E
:1011C000A5FB401BB8424FF00300F5D981E700BFF3
:1011D00020F001003062306A20F004003062FFF736
:1011E00095FB054641F28837306A800708D4FFF73F
:1011F0008DFB401BB842F7D9032002B0BDE8F08157
:10120000B8F1000F3FF59FAEF06920F08050F0611B
:1012100099E600BF40F480203060306840F48030B0
:101220001CE000BF20F480303060306820F4802063
:101230003060FFF76BFB0546306880037FF55EAEDC
:10124000FFF764FB401B64284FF00300F4D940E72C
:1012500020F480303060306820F480203060FFF768
:1012600055FB0546306880033FF548AEFFF74EFB5F
:10127000401B6428F6D9032002B0BDE8F08100BF0E
:10128000206AB0F5803F05D17168A26821F4003171
:10129000114371607168626A21F47411114308434B
:1012A000706001203866FFF731FB0446306880012A
:1012B0003FF565AFFFF72AFB001B02284FF0030044
:1012C000F4D906E746F60040C4F2000050F82100C9
:1012D00080B2704790B246F60042C4F2000242F873
:1012E00021007047016842F60002C4F200029142F8
:1012F00018BF7047B0B540F23405C2F20005E91DD1
:101300000022044600F00AF905F10A0120460022F5
:1013100000F09EF8E879297A4FF461625043C1EBFE
:10132000011100EB810040F21C01C2F200010A78B9
:101330006B7A012A184409D140F26002C2F200021D
:101340001268904202D1281D17E000BF4A78012A96
:1013500008D140F26402C2F200021268904201D148
:10136000681D0AE08978012909D140F26801C2F2BA
:1013700000010968884202D1A81D01210170687826
:101380000A2805D1FFF796F900206870287108E057
:10139000092806D8287920B1FFF794F96878013038
:1013A0006870A8780A2805D1FFF784F90020A87092
:1013B000687107E0092805D8697919B10130A8706A
:1013C000FFF780F9E8780A280AD1FFF773F90020BF
:1013D000E870A87101202870BDE8B040704700BFD8
:1013E0000928F7D8A8790028F4D0FFF76BF9E87836
:1013F0000130E87001202870BDE8B040704700005F
:101400007047000001680A68D2071CBF4A685FEA9B
:10141000C27201D1704700BF10B549680446490740
:1014200006D4FFF75FFF01206074206808E000BF6A
:10143000FFF7E6FF20686FF004014160042161744A
:10144000416821F001014160BDE810407047000093
:1014500070B582B0034600208DF80600ADF8040098
:10146000002B4FF0010018BF002901D102B070BD60
:1014700014460D4601A9184600221E4600F04EF8FB
:1014800010B1012002B070BD96F80CC0727BB07B29
:10149000F37B85F800C0EB706A70A870D4B329465E
:1014A000A3F10A05ECB24FF0CD0C04FB0CF4E40AF6
:1014B00004EB8406A5EB4605A2F10A0605EB04142D
:1014C000F5B205FB0CF55FFA83FEED0ABEF1090FDC
:1014D00088BF04F1100305EB8504CB70D3B2A6EBF3
:1014E000440606EB0516092BA0F10A0388BF06F196
:1014F0001002DEB206FB0CF6F60A06EB86054A7011
:10150000C2B2A3EB450303EB0613092A88BF03F11C
:1015100010008870002002B070BD00002DE9F04777
:10152000064600284FF0010000F0AE800C4600296E
:1015300008BFBDE8F08730684168490700F1E080E6
:1015400091468269C169836992B29BB29A4203D182
:1015500089B241EA024103E0C16989B241EA03412B
:101560004BF2C532C9F2A212A1FB0223DA0A4FF4F0
:10157000616302FB131348F689059FB26F437D0D2B
:1015800065702D01A5EB5757A3EB870345F2801734
:10159000C0F20107B942A37036D344F20753CCF22C
:1015A0002E23A1FB03374AF6AB23C0F6AA23A2FBE6
:1015B000033505EB4503A2EBC3022270026A406AC1
:1015C0004FEA174880B240EA0240451A98BF4FF0F0
:1015D000FF35421C4AF68062CFF6FE7208FB021A03
:1015E00008BF0546FFF792F9074600BF306841681B
:1015F00089064BD4FFF78AF9C01BB0F57A7FF5D97D
:101600000120BDE8F08700BF2270B9F1000F3AD089
:1016100021784FF0CD0CA1F10A07FEB206FB0CF6C3
:10162000F60A627806EB8605CBB2A7EB450707EB17
:101630000617092BA2F10A03A07888BF07F1100151
:10164000DFB207FB0CF7FF0A07EB87062170D1B268
:10165000A3EB460303EB0713092988BF03F110022C
:101660006270A0F10A02D3B203FB0CF3DB0A03EBB6
:101670008307C1B2A2EB470202EB0312092988BF1C
:1016800002F11000A0700020BDE8F087416841F031
:10169000100141604FEA1A4181611FFA8AF1C1616C
:1016A000416821F010014160FFF730F9074600BFA3
:1016B00030684068800609D4FFF728F9C01BB0F5F0
:1016C0007A7FF5D90120BDE8F08700BF681C11D0F2
:1016D0005544FFF71BF9074630684168890613D463
:1016E000FFF714F9C01BB0F57A7F4FF00100F3D972
:1016F000CAE700BF30464FF0FF3104F0BFFD08B32A
:101700000120BDE8F08700BF416841F01001416051
:10171000290C0162A9B24162416821F010014160C7
:10172000FFF7F4F8074600BF30684068800609D428
:10173000FFF7ECF8C01BB0F57A7F4FF00100F3D94A
:10174000A2E700BF3046414604F026FCB9F1000F85
:101750007FF45EAF97E70000002804BF01207047C8
:1017600070B50446407C20B900202074204600F06B
:101770006BF8022060742068416821F00801416024
:10178000FFF7C4F8064600BF20684568FFF7BEF8BB
:10179000290705460ED4A81BB0F57A7FF4D901209D
:1017A0000421617470BD00BFFFF7B0F8401BB0F5B5
:1017B0007A7FF4D8216848688006F5D5486846F6EF
:1017C0002C4240F0100048604868C4F2000220F04B
:1017D00007004860A06818B1536823F00103536004
:1017E000136823F46073184310606068421C05D1CD
:1017F0000120FFF74DF918B321680138C0F3034207
:1018000080B28A60C860486820F010004860FFF726
:101810007DF8054620684068800607D4FFF776F813
:10182000401BB0F57A7FF5D9B9E700BF40F201114E
:101830000020A4F80D100121E073617470BD00BF99
:1018400004210120617470BD006842F60001C4F2F9
:101850000001884218BF704780B582B0FFF712F9C7
:1018600041F21C00C4F202000168002241F0006154
:1018700001600068012100F000600190019840F2D1
:101880003C40C4F24220016003200021FFF7BEF873
:10189000032002B0BDE88040FFF7A6B8F0B581B0E4
:1018A000044600284FF0010018BF002902D101B002
:1018B000F0BD00BF207C01284FF00200F7D00123CB
:1018C00023746074CB788AB11809A0EB800003EB15
:1018D000400348788A780709A7EB870700EB47079A
:1018E0001009A0EB800002EB400001E04F788878FF
:1018F000FEB2022EDAB2E3736773A0730AD817231D
:101900007B43DBB239277B435F0A02F2CF7340F29D
:10191000D47609E048F63E67C0F20207774302F545
:10192000FA633F0C40F2D276C0B21044304440F229
:101930001F5500EB93005D433844A0EB554000EB8E
:10194000D54082B242F293435A43A0EB12439BB27A
:101950005B0803EB12429208A2EBC2020244206829
:1019600022730A708269C169836992B29BB29A42FA
:1019700004D188B240EA024004E000BFC06980B2EE
:1019800040EA034045F69071C0F2010188424FF0F1
:1019900000061BD344F20751CCF22E21A0FB01120A
:1019A000110C40F2A3225143A0EBC117FEF7AEFF8A
:1019B000054600BF2068416889060DD4FEF7A6FFE2
:1019C000401BB0F57A7FF5D93AE000BF0121002035
:1019D0006174267401B0F0BD416841F010014160AE
:1019E000390C8161B9B2C161416821F010014160D7
:1019F000FEF78CFF054600BF20684168890607D4C2
:101A0000FEF784FF401BB0F57A7FF5D918E000BFE0
:101A1000016A406A80B240EA0140B84234D200F51F
:101A2000803000F5A347FEF771FF05462068416846
:101A300089060BD4FEF76AFF401BB0F57A7FF5D913
:101A4000012004216174267401B0F0BD416841F0A9
:101A500010014160390C0162B9B24162416821F064
:101A600010014160FEF752FF05462068406880067D
:101A70000AD4FEF74BFF411B0120B1F57A7F4FF0EE
:101A80000401F2D9A4E700BF00200121617426748B
:101A900001B0F0BD70B5044600284FF0010018BF3A
:101AA000002901D170BD00BF207C01284FF0020049
:101AB00008BF70BD0123237460740878D2B1020995
:101AC000A2EB820200EB4200C0B24FF461625043CD
:101AD0004A7889781309A3EB830302EB4302D2B25D
:101AE000C2EB021200EB82000A09A2EB820201EBB8
:101AF000420108E04FF4616250434A788978C2EBB2
:101B0000021200EB8200C9B24618FEF7FFFE05463E
:101B100020684168890607D4FEF7F8FE401BB0F53F
:101B20007A7FF5D954E000BF416841F0100141606F
:101B3000310C8161B1B2C161416821F01001416095
:101B4000FEF7E4FE054600BF20684168890607D419
:101B5000FEF7DCFE401BB0F57A7FF5D938E000BF18
:101B6000416821F005014160016A406A80B240EAA3
:101B70000140B04232D200F5803000F5A346FEF7B6
:101B8000C5FE054620684168890607D4FEF7BEFEFB
:101B9000401BB0F57A7FF5D91AE000BF416841F0EB
:101BA00010014160310C0162B1B24162416821F023
:101BB00010014160FEF7AAFE054600BF206840689C
:101BC00080060BD4FEF7A2FE401BB0F57A7FF5D954
:101BD0000120042161740021217470BD00200121C5
:101BE00061740021217470BD411E0020B0EB116FA3
:101BF0001CBF012070474EF21002CEF2000251606D
:101C00004EF62351CEF20001F0230B7007219060B5
:101C100011607047704700007047000090F83C204A
:101C2000012A4FF0020236D010B580F83D2002683C
:101C3000D2F804E0D2F808C00C682EF070032343F9
:101C400040F2FF74C4F20004A24253600ADCB2F115
:101C5000804F13D040F20043C4F200039A420DD0EB
:101C600011E000BF42F60043C4F201039A4205D0DE
:101C700040F60003C4F200039A4204D149682CF0F4
:101C80008003194391600121002280F83D1080F803
:101C90003C20BDE81040104670470000002804BFFB
:101CA0000120704710B590F83D1031B9002180F83F
:101CB0003C10044600F070F82046022180F83D10E8
:101CC000016840F2FF740B68C4F2000442F6004C55
:101CD000A142C4F2010C15DCB1F1804F1AD040F2E0
:101CE0000042C4F20002914214D0A14218DCB1F1CA
:101CF000804F1DD040F20042C4F20002914217D042
:101D00001AE000BF614505D040F60002C4F20002AF
:101D10009142EAD1826823F070031343A142E6DDC9
:101D2000614505D040F60002C4F20002914203D1A1
:101D3000026923F440731343846923F08002D0F8CE
:101D400004E0C368224361450A60CB62C1F828E021
:101D500002D14269CCF8302001224A610B69DB07CD
:101D600003D00B6923F001030B6180F8462080F853
:101D70003E2080F83F2080F8402080F8412080F805
:101D8000422080F8432080F8442080F8452080F8E5
:101D90003D20002010BD000010B582B0006840F268
:101DA000FF71C4F2000188421ADCB0F1804F3BD0D1
:101DB00040F20041C4F20001884233D141F21C00DC
:101DC000C4F202000168002241F0020101600068D3
:101DD000002100F00200019001981D201D2446E022
:101DE00040F60001C4F2000188422FD042F60041C3
:101DF000C4F20101884215D141F21C00C4F2020074
:101E000050F8041C002241F4006140F8041C50F812
:101E1000040C002100F4006001900198192019249D
:101E200025E000BF02B010BD41F21C00C4F2020068
:101E30000168002241F0010101600068032100F007
:101E40000100019001981C201C2410E041F21C00AC
:101E5000C4F202000168002241F004010160006840
:101E6000002100F00400019001981E201E24FEF7BE
:101E7000CDFD204602B0BDE81040FEF7B5BD000024
:101E800090F83D1001291CBF01207047022180F805
:101E90003D10006840F2FF72C168C4F20002904237
:101EA00041F00101C16009DCB0F1804F12D040F275
:101EB0000041C4F2000188420CD012E042F6004119
:101EC000C4F20101884205D040F60001C4F20001CD
:101ED000884206D1816801F00701062904BF00206D
:101EE0007047016841F00101016000207047000067
:101EF0000146006841F21113C26822F00102C2607B
:101F0000026A1A4204D00122002081F83D20704765
:101F1000026A40F244431A42F5D1026822F00102FB
:101F200002600122002081F83D20704790F83C209B
:101F3000012A4FF002026CD080B580F83D20D0F825
:101F400000C04FF67772DCF8083023EA0202CCF8C2
:101F500008200B684F2B29DC1F2B45DD202B46D09A
:101F6000302B44D0402B40F0AF80D1F804E0C9685A
:101F7000DCF82030DCF8202022F00102CCF8202010
:101F8000DCF8182022F0F00242EA011123F00A02E4
:101F900042EA0E02CCF81810CCF82020DCF8081029
:101FA00041F0470121F0300128E000BF6F2B33DD05
:101FB000B3F5005F74D0B3F5805F21D0702B40F093
:101FC0008380D1E901E3C968DCF8082043EA0E0305
:101FD00022F47F4243EA01211143CCF80810DCF8D7
:101FE000081041F0770109E00BB1102B6CD1DCF83F
:101FF000081021F07001194341F00701CCF80810D6
:102000000022012180F83D10002180F83C10BDE83D
:1020100080401046704700BF502B21D0602B53D119
:10202000D1F804E0C968DCF82030DCF8202022F088
:102030001002CCF82020DCF8182022F4704242EA8A
:10204000013123F0A00242EA0E12CCF81810CCF8AD
:102050002020DCF8081041F0670121F01001CDE7E5
:10206000D1F804E0C968DCF82030DCF8202022F048
:102070000102CCF82020DCF8182022F0F00242EA1D
:10208000011123F00A0242EA0E02CCF81810CCF833
:102090002020DCF8081041F0570121F02001ADE7C5
:1020A000D1E901E3C968DCF8082043EA0E0322F411
:1020B0007F4243EA01211143CCF80810DCF80810F4
:1020C00041F480419AE700BF01229AE7704700007F
:1020D00070B504460068C5680669B10716D515F0E5
:1020E000020113D06FF002010161012121778069A3
:1020F000800703D02046FFF7E9FF05E0204600F007
:102100008FF8204600F08EF800202077700719D550
:1021100015F0040016D020686FF00401016102215F
:102120002177806910F4407F04D02046FFF7CEFF6E
:1021300006E000BF204600F073F8204600F072F879
:1021400000202077300717D515F0080014D020683C
:102150006FF00801016104212177C069800703D075
:102160002046FFF7B3FF05E0204600F059F820466F
:1021700000F058F800202077F00619D515F010006F
:1021800016D020686FF01001016108212177C06925
:1021900010F4407F04D02046FFF798FF06E000BF10
:1021A000204600F03DF8204600F03CF80020207763
:1021B000F00718BF15F0010002D1300609D412E073
:1021C00020686FF001010161204600F02DF8300613
:1021D00009D515F0800006D020686FF080010161FC
:1021E0002046FFF717FD700609D515F0400006D010
:1021F00020686FF040010161204600F0ADF8B006A4
:1022000058BF70BD15F0200008D021686FF0200283
:1022100020460A61BDE87040FFF7FEBC70BD0000BB
:10222000704700007047000010B5006842F600419A
:10223000C4F20101884207D0B0F1804F40F08B809A
:10224000BDE8104000F068B940F21301C2F200018D
:10225000087840F220040128C2F2000412D120467E
:1022600040F2540250F8081FC2F200021268013115
:102270009142016031D140F21302011FC2F200020B
:1022800024E000BF487801280ED1204640F25803D0
:1022900050F80C2FC2F200031B6801329A42026010
:1022A0001BD14A1CC11F11E08878012815D1204696
:1022B00040F25C0350F8102FC2F200031B68013299
:1022C0009A42026009D18A1CA0F10A01002303602E
:1022D000022010700120237008706078052807D153
:1022E000FEF7E8F9012020800020207109E000BFFE
:1022F000092806D8207920B1FEF7E4F9607801308A
:102300006070A078052807D1FEF7D4F9012020706D
:102310000020A070607107E0092805D8617919B123
:102320000130A070FEF7CEF9E078052808D1FEF75D
:10233000C1F9012020700020E070A07110BD00BF25
:10234000092808D8A079002808BF10BDFEF7BAF9FF
:10235000E0780130E07010BD70470000002804BF35
:102360000120704710B5044690F8410028B90020BC
:1023700084F84000204600F063F8242084F84100EF
:102380002068D4E90212C36823F40053C3600369D0
:1023900023F440531A430261D4E904231143C26871
:1023A000194341F20C639A431143C1604169A26928
:1023B00021F44071114343F60002C4F2010290423D
:1023C000416103D0FEF748FD02E000BFFEF758FD73
:1023D000D4E90023192148439900B0FBF1F048F2F9
:1023E0001F5CC5F2EB1CA0FB0C314FF69C73490936
:1023F000C0F6FF7301FB0300322303EB0010A0FBC8
:102400000C03F02000EA531000EB0110C3F343115A
:10241000084490601069202120F4904010615069B8
:1024200020F02A005061D06840F40050D0600020B5
:10243000606484F8411084F84210606310BD0000AD
:1024400070B586B040F60004C4F20104006804F5DB
:102450004051002688420596CDE90366029601D0D8
:1024600006B070BD41F21800C4F20200016802AD6E
:1024700041F480410160016801F4804101910199BA
:10248000016841F0040101600068294600F0040081
:10249000019001984FF400700290022003900320F5
:1024A00005902046FEF71EF94FF48060CDE9020644
:1024B000204629460496FEF715F906B070BD0000C7
:1024C000FEE7000040F24201C2F200010878002855
:1024D0001CBF00220A70704780B584B041F218001A
:1024E000C4F20200016841F004010160006869461D
:1024F00000F004000090009800200190022002905B
:10250000032003903E20009040F60000C4F201003A
:10251000FEF7E8F804B080BDB0B540F24205C2F263
:102520000005E8780130C1B21429E87038BFB0BDA9
:1025300040F60004A978C4F201040020E870697034
:1025400020460221FEF7D6F9012801D101211FE022
:1025500020460421FEF7CEF9012801D1022117E01F
:1025600020460821FEF7C6F9012801D103210FE01A
:1025700020461021FEF7BEF9012801D1042107E011
:1025800020462021FEF7B6F90021012808BF0521C9
:10259000A97019B16878002808BF2970B0BD000083
:1025A00070B586B0002541F21800CDE90455CDE99B
:1025B0000255C4F20200016840F6004441F01001E7
:1025C00001600168C4F2010401F010010191019958
:1025D0000168002241F020010160016843F2010618
:1025E00001F0200101910199016841F008010160A9
:1025F000016801F0080101910199016841F00401AD
:102600000160006843F2010100F0040001900198AC
:102610002046FEF775F90120CDE90305022005905B
:1026200002A920460296FEF75DF806B070BD0000D4
:10263000B0B584B000208DF80E00ADF80C0002900B
:1026400041F21C00C4F20200016841F00061016027
:10265000016801F0006101910199016841F0805128
:102660000160006800F0805000900098FEF70AFAC0
:1026700040F2704042F60001C2F20000C4F20001D4
:102680004FF0FF324FF4807380E80E00FFF764F8DC
:10269000002818BFFEF720F840F27040C2F2000098
:1026A0000121FEF70FFE45F2510188424CD140F264
:1026B0007044C2F2000420460221FEF703FE40F2FD
:1026C0004805C2F20005287020460321FEF7FAFDF6
:1026D000687020460421FEF7F5FDA870204605210C
:1026E000FEF7F0FD40F24B05C2F2000528702046CF
:1026F0000621FEF7E7FD687020460721FEF7E2FDA0
:10270000A87020460821FEF7DDFD40F24E05C2F21A
:102710000005287020460921FEF7D4FD6870204688
:102720000A21FEF7CFFDA87002A920460122FFF77B
:10273000B5F8002818BFFDF7CFFF2068016841F009
:102740000101016004B0B0BD42F21070ADF80C00A0
:1027500033208DF80E0040F27040C2F2000003A951
:102760000122FFF797F9002818BFFDF7B5FF40F2E7
:10277000052040F27044C2F21350C2F200040290ED
:1027800002A920460122FFF789F8002818BFFDF7AB
:10279000A3FF206845F25102016841F00101016088
:1027A00020460121FEF796FD40F24800C2F20000EB
:1027B00041F6076101800021817040F24B00C2F2B6
:1027C000000042F60D020280817040F24E00C2F21B
:1027D000000041F613620280817004B0B0BD0000B9
:1027E00080B586B040F2844042F600420021C2F239
:1027F0000000C4F2010241F61F4342F2107C059131
:10280000CDE90311CDE90011C0E90023C0E9021CA4
:10281000C0E904118161FFF741FA002818BFFDF7F4
:102820005BFF4FF48050029040F28440C2F20000FF
:1028300002A9FFF77BFB002818BFFDF74DFF40F210
:102840008440C2F200006946FFF7E8F9002818BF8B
:10285000FDF742FF06B080BD80B586B040F2CC40A7
:102860000021C2F200004FF08042632340F2E73CB7
:102870000591CDE90311CDE90011C0E90023C0E9BC
:10288000021C01618161FFF709FA002818BFFDF7FA
:1028900023FF4FF48050029040F2CC40C2F200007F
:1028A00002A9FFF743FB002818BFFDF715FF40F210
:1028B000CC40C2F200006946FFF7B0F9002818BF0B
:1028C000FDF70AFF06B080BD80B586B040F2145017
:1028D00040F200420021C2F20000C4F2000241F6C0
:1028E0001F4342F2107C0591CDE90311CDE900119F
:1028F000C0E90023C0E9021C01618161FFF7CEF944
:10290000002818BFFDF7E8FE4FF48050029040F217
:102910001450C2F2000002A9FFF708FB002818BFFC
:10292000FDF7DAFE40F21450C2F200006946FFF7EC
:1029300075F9002818BFFDF7CFFE06B080BD000076
:1029400080B586B040F25C5040F600020021C2F231
:102950000000C4F2000241F61F4342F2107C0591D0
:10296000CDE90311CDE90011C0E90023C0E9021C43
:1029700001618161FFF792F9002818BFFDF7ACFEF5
:102980004FF48050029040F25C50C2F2000002A965
:10299000FFF7CCFA002818BFFDF79EFE40F25C500E
:1029A000C2F200006946FFF739F9002818BFFDF7A9
:1029B00093FE06B080BD000080B540F2A45043F6FF
:1029C0000001C2F20000C4F2010100234FF00C0C20
:1029D0004FF4E13280E80E00C0E90333C0E905C3DB
:1029E000C361FFF7BBFC002808BF80BDBDE8804085
:1029F000FDF772BEFEE700002DE9F04F85B040F212
:102A0000080747F6643947F6E92640F2340B40F2EE
:102A10003B08C2F200070024C0F600094FF0100A7C
:102A2000C0F60006C2F2000BC2F200080CE000BFC4
:102A30008020CDE9004A029000200021802210234E
:102A4000CDF80CA001F0FEFAFFF73CFD01284FD0B5
:102A5000032847D0052800F0F7803878032858D09D
:102A6000022800F0A5800128EED147F6FC220020C4
:102A70000021C0F60002082303F050F800201021C6
:102A80004A46082303F04AF8002020213246082352
:102A900003F044F89BF80000012813D198F80000D7
:102AA00098F8011098F8025047F69733CDE90001E5
:102AB000002030210822C0F60003029502F0AAFC93
:102AC0008BF80040002030218022102303F08CF985
:102AD0007878022800F0AE800128B5D1CDE9004415
:102AE00061E000BF042001220223012104E000BFB5
:102AF00003210020FF2201233D787B702A44D3B2BA
:102B0000834218BF1146397001F094FA38780328CF
:102B1000A6D147F6FC2200200021C0F600020823BF
:102B200002F0FCFF002010214A46082302F0F6FFC5
:102B3000002020213246082302F0F0FF9BF800001D
:102B4000012813D198F8000098F8011098F8025065
:102B500047F69733CDE90001002030210822C0F666
:102B60000003029502F056FC8BF800400020302153
:102B70008022102303F038F9787801280DD1202025
:102B800001908020029000203021802200230094B8
:102B9000CDF80CA001F056FA787802287FF454AFF3
:102BA000202000940190802002900020102145E711
:102BB00047F6FC2200200021C0F60002082302F0A4
:102BC000ADFF002010214A46082302F0A7FF002095
:102BD00020213246082302F0A1FF9BF800000128C3
:102BE00013D198F8000098F8011098F8025047F6B1
:102BF0009733CDE90001002030210822C0F6000300
:102C0000029502F007FC8BF8004000203021802262
:102C1000102303F0E9F8787802283FF409AF01287F
:102C20007FF412AF8020CDE9004A029000202021DD
:102C300004E700BF8020CDE900440290002000217D
:102C400000220023FCE600BF01F068FD03F056F807
:102C500001F0F0F9387805B0BDE8F08F2DE9F04FBC
:102C600085B047F6AA22C0F6000200200021082302
:102C700002F054FF40F21C0440F24805C2F2000486
:102C8000C2F2000547F60F3620782978C0F6000614
:102C90006A7847F6793A334695F802C0C0F6000ADA
:102CA000012808BF53468DE8061000201021082295
:102CB00002F0B0FB607833460128E87829796A7918
:102CC00008BF53468DE8070000202021082202F0AB
:102CD000A1FBA07833460128A879E9792A7A08BFB0
:102CE00053468DE8070000203021082202F092FBB5
:102CF00003F004F801F09EF94FF000094FF00208CC
:102D00004FF0010B22E000BF0120A070AA79E87902
:102D10004FF46163297A5343C0EB001003EB80004A
:102D200040F270470844C2F2000728623846082182
:102D3000FEF7D0FAEA7938460921FEF7CBFA2A7A6B
:102D400038460A21FEF7C6FA4FF0000947F6AA22D4
:102D500000200021C0F60002082302F0DFFE2078E8
:102D600029786A78AF783346012808BF5346CDE901
:102D70000012002010210822029702F04BFB60781D
:102D800029790128E87833466F7908BF5346CDE9A1
:102D90000001002020210822029702F03BFBA078CE
:102DA000E9790128A87933462F7A08BF5346CDE93F
:102DB0000001002030210822029702F02BFBFFF7D0
:102DC00081FB052850D003280CD0012814D1ABF189
:102DD000010B01F02FF95FEA0B604FF001080BD1F6
:102DE000E4E000BF0BF1010B5FFA8BF701F022F971
:102DF000052F4BD04FF002085FFA8BF00138032803
:102E00003CD900BF5FFA89F0013803289ED8DFE87B
:102E100010F03B0105006500550000BF284600F09A
:102E2000B3FB012840F0E480012020702A78687804
:102E30004FF46163A9785343C0EB001003EB8000AB
:102E400040F270470844C2F20007A86138460221E8
:102E5000FEF740FA6A7838460321FEF73BFAAA7873
:102E6000384604216EE700BF01F058FC02F046FF2F
:102E7000D9465FFA8BF001380328C3D8DFE800F0A9
:102E8000027A5266B8F1020F40F0D2800020CDE9FC
:102E90000000802002900020002100220023102743
:102EA000039701F0CFF84FF002084FF0010B5FFAE3
:102EB00089F001380328AAD948E700BFA81D00F00F
:102EC00063FB01283FF420AF10F0FD0F4FF0000925
:102ED0007FF43CAF0220A07038E700BFE81C00F090
:102EE00053FB01287AD101206070EA7828794FF4E9
:102EF000616369795343C0EB001003EB800040F23B
:102F000070470844C2F20007E86138460521FEF721
:102F1000E1F92A7938460621FEF7DCF96A79384664
:102F200007210FE70020B8F1020F6BD1009020209D
:102F30000190802002900020102180221023102771
:102F4000039701F07FF84FF0020868E0B8F1020F34
:102F50002CD1002000903020019080200290002091
:102F60002021802210231027039701F06BF84FF0E7
:102F7000020829E00020B8F1020F6FD100908020F4
:102F80001027029000200021802210230197039730
:102F900001F058F84FF0020B4FF002085FFA89F089
:102FA000013803287FF633AFD0E600BF0020009041
:102FB00030200190802002900020402180220023B8
:102FC0001027039701F03EF84FF0040B5FFA89F0E9
:102FD000013803287FF61BAFB8E600BF10F0FD0FE5
:102FE0004FF000097FF4B2AE02206070AEE600BF81
:102FF00010F0FD0F4FF000097FF4A8AE0220207002
:10300000A4E600BF009020200190802002900020C4
:103010003021802210231027039701F013F84FF07E
:10302000030B5FFA89F0013803287FF6F0AE8DE6D6
:103030000020CDE900008020029000201021802295
:1030400010231027039700F0FDFF4FF0010B5FFAEC
:1030500089F0013803287FF6DAAE77E60090802009
:10306000102702900020202180221023019703972F
:1030700000F0E8FF4FF0020B5FFA89F001380328F7
:103080007FF6C5AE62E600BF00F0D4FF002005B0B9
:10309000BDE8F08FF0B581B047F6BC24C0F600045F
:1030A000002000212246082302F038FD47F6CD25F6
:1030B000C0F60005002010212A46082302F02EFD4C
:1030C00047F64B36C0F60006002020213246082382
:1030D00002F024FD47F68C27C0F6000700203021BF
:1030E0003A46082302F01AFD002000211022102386
:1030F00002F0A4F902F002FE00F09CFF0020002183
:103100002246082302F00AFD002010212A46082347
:1031100002F004FD002020213246082302F0FEFCCC
:10312000002030213A46082302F0F8FCFFF7CAF9E4
:103130000528E3D101F0F2FA02F0E0FD00F07AFF99
:10314000002001B0F0BD00002DE9F04F85B047F63A
:10315000AA22C0F600020020002108234FF0000937
:1031600002F0DCFC40F20807C2F20007FB7A47F6E7
:103170000F36B878C0F60006F9783A7947F6793410
:10318000012B3346C0F6000408BF23468DE8070034
:1031900000201021082202F03DF978793A7BB979B4
:1031A0003346FD79012A08BF23468DE8230000201D
:1031B0002021082202F02EF9387A7A7B797A334678
:1031C000BD7A012A08BF23468DE823000020302164
:1031D000082202F01FF902F091FD00F02BFF4FF0E2
:1031E000000A4FF0020B4FF0010809E040F284455D
:1031F000C2F200052846FEF77BFE2868C0F824903E
:1032000047F6AA2200200021C0F60002082302F09F
:1032100085FCB878F978FA7A3D793346012A08BFF7
:103220002346CDE90001002010210822029502F07A
:10323000F1F87879B9793A7BFD793346012A08BFEC
:103240002346CDE90001002020210822029502F04A
:10325000E1F8387A797A7A7BBD7A3346012A08BF59
:103260002346CDE90001002030210822029502F01A
:10327000D1F8FFF727F9052846D003280CD00128FC
:1032800014D1A8F1010800F0D5FE5FEA08604FF004
:10329000010B0BD1E4E000BF08F101085FFA88F5EB
:1032A00000F0C8FE052D43D04FF0020B5FFA88F006
:1032B0000138032834D900BF5FFA8AF001380328A7
:1032C00000F23881DFE810F05A0104006C004E0073
:1032D000B81C00F009FC022800F02881012840F009
:1032E00027810120F872B878F9784FF461633A7950
:1032F0005843C1EB011100EB810040F2480110443A
:10330000C2F20001C86013E101F008FA02F0F6FC15
:1033100000F090FEC2465FFA88F001380328CBD84F
:10332000DFE800F002825A6EBBF1020F40F0C88065
:103330000020009001908020029000200021802237
:10334000002310254FF00009039500F07BFE4FF09D
:10335000020B4FF001085FFA8AF001380328B1D957
:10336000E8E000BF07F1080000F0BEFB022800F013
:10337000D580012840F0DC8001207873387A797A92
:103380004FF46163BA7A5843C1EB011100EB81003D
:1033900040F248011044C2F200014861C8E000BF99
:1033A000781D00F0A1FB022800F0BC80012840F04D
:1033B000BF80012038737879B9794FF46163FA7965
:1033C0005843C1EB011100EB810040F24801104469
:1033D000C2F200010861ABE0BBF1020F58D120201E
:1033E00001908020029000201021802210231025BF
:1033F000CDF80090039500F025FE4FF0020B55E04C
:10340000BBF1020F2CD130200190802002900020CF
:103410002021802210231025CDF80090039500F084
:1034200011FE4FF0020B29E0BBF1020F60D18020AA
:10343000102502900020002180221023CDF800905A
:103440000195039500F0FEFD4FF002084FF0020BCE
:103450005FFA8AF0013803287FF634AF6AE000BFD4
:103460003020019080200290002040218022002303
:103470001025CDF80090039500F0E4FD4FF004080E
:103480005FFA8AF0013803287FF61CAF52E000BFD4
:1034900020200190802002900020302180221023E3
:1034A0001025CDF80090039500F0CCFD4FF00308F7
:1034B0005FFA8AF0013803287FF604AF3AE000BFD4
:1034C0000020009001908020029000201021802296
:1034D000102310254FF00009039500F0B3FD4FF0C5
:1034E00001085FFA8AF0013803287FF6EBAE21E08D
:1034F0008020102502900020202180221023CDF86A
:1035000000900195039500F09DFD4FF002085FFAD1
:103510008AF0013803287FF6D5AE0BE002207873DD
:1035200006E000BF0220387302E000BF0220F872FC
:103530004FF0000AF87A02280DD1387B02280AD110
:10354000787B022807D140F22000C2F20000007808
:1035500001283FF44BAE40F28440C2F20000006804
:103560000168C9077FF44CAEC0F8249040F2844053
:10357000C2F20000FEF784FC42E600BF00F05AFDF4
:10358000002005B0BDE8F08F2DE9F04F89B0067836
:1035900047788478059001F0C1F847F6AA22C0F672
:1035A000000200200021082302F0B8FA47F62D336C
:1035B000C0F60003002010210822CDE90067029424
:1035C0004FF0100B01F026FF47F6AA32C0F60002BA
:1035D00000203021082302F0A1FA02F08FFB00F056
:1035E00029FD4FF00208012508965FFA86FA47F692
:1035F000AA2607975FFA87F90694E4B20027C0F677
:10360000000616E05020009030200190202002900B
:103610007020402100220023CDF80CB000F012FDF4
:1036200006254FF0010800BFF8B20138052840F226
:103630000581002000213246082302F06FFA47F688
:103640002D33002010210822C0F60003CDE900A987
:10365000029401F0DFFE47F6AA3200203021C0F6C6
:103660000002082302F05AFAFEF72CFF052819D0B1
:10367000032809D0012816D1013D00F0DBFC280603
:10368000C0D04FF001080EE00135EEB200F0D2FCE0
:10369000072E47F6AA26C0F600064FF0020802D110
:1036A0001EE000BF2F46E8B201380528BCD8DFE88D
:1036B00000F003633B4F2577B8F1010F10D10020D4
:1036C000CDE900001020102110221023CDF808B001
:1036D000CDF80CB000F0B6FC4FF001080CE000BFD4
:1036E0000020002100220023CDE90000CDF808B021
:1036F000CDF80CB000F0A6FC012595E7B8F1010F5C
:1037000062D13020019020200290502030212022D0
:103710001023CDF800B0CDF80CB000F093FC0525D7
:103720004FF0010880E700BF3020B8F1010F5BD1F6
:10373000CDE9000B5020102110221023CDF808B045
:10374000CDF80CB000F07EFC03254FF001086BE7CC
:103750005020B8F1010F55D1CDE9000B10203021D8
:1037600020221023CDF808B0CDF80CB000F06AFC90
:1037700004254FF0010857E7B8F1010F50D1302070
:10378000102110221023CDE900BBCDF808B0CDF8F0
:103790000CB000F057FC02254FF0010844E700BFD1
:1037A000B8F1010F3FF42EAF50200090302001906F
:1037B000202002901020302120221023CDF80CB0C0
:1037C00000F040FC06252FE73020019020200290D9
:1037D0005020102110221023CDF800B0CDF80CB0ED
:1037E00000F030FC05251FE7CDE9000B102010216B
:1037F00010221023CDF808B0CDF80CB000F022FC58
:10380000032511E7CDE9000B3020102110221023F1
:10381000CDF808B0CDF80CB000F014FC042503E797
:103820000020002110221023CDE900BBCDF808B004
:10383000CDF80CB000F006FC0225F5E6DFE810F04C
:10384000480106006200C0003A014E01002000213C
:103850003246082302F062F947F62D33002010218A
:103860000822C0F60003CDE900A9029401F0D2FDC0
:1038700047F6AA3200203021C0F60002082302F0E9
:103880004DF910201F211F221F2300F051FF10208F
:1038900010211022102302F0A7FADDE9077600BFFD
:1038A000FEF710FE052800F0E980032808D0012863
:1038B000F6D13006A6F1010008BF172006E000BFD0
:1038C000F0B217284FF0000038BF701C0646C0B297
:1038D00047F62D33CDE90009002010210822C0F65B
:1038E0000003029401F096FD10201F211F221F23C8
:1038F00000F01EFF002010218022102302F074FA35
:10390000CEE700BF002000213246082302F006F96E
:1039100047F62D33002010210822C0F60003CDE920
:1039200000A9029401F076FD47F6AA32002030216A
:10393000C0F60002082302F0F1F8DDE90776302036
:103940001F213F221F2300F0F3FE002010218022C0
:10395000102302F049FA00BFFEF7B4FD05281FD07E
:10396000032807D00128F7D13806A7F1010008BFC6
:103970003B2005E0F8B23B284FF0000038BF781C30
:103980000746C0B247F62D33CDE900A00020102134
:103990000822C0F60003029401F03CFDCFE700BF0F
:1039A000F8B247F62D33CDE900A0002010210822FF
:1039B000C0F60003029401F02DFD30206CE000BF42
:1039C000002000213246082302F0A8F847F62D33E4
:1039D000002010210822C0F60003CDE900A90294BE
:1039E00001F018FD47F6AA3200203021C0F600028F
:1039F000082302F093F8069C50201F215F221F230A
:103A000000F096FE002010218022102302F0ECF935
:103A1000FEF758FD05281FD0032807D00128F7D14D
:103A20002006A4F1010008BF3B2005E0E0B23B28DE
:103A30004FF0000038BF601C47F62D330446C7B274
:103A4000002010210822C0F60003CDE900A902974A
:103A500001F0E0FCD0E700BF47F62D33E7B20020CD
:103A600010210822C0F60003CDE900A9029701F059
:103A7000D1FCDDE9077650200FE000BFF0B247F639
:103A80002D33CDE90009002010210822C0F60003E3
:103A9000029401F0BFFC1020069C1021102210237C
:103AA00001F0CCFC002010218022102302F09CF9B0
:103AB0009AE500BF00F0BEFA0598089901700799D1
:103AC000417006998170012009B0BDE8F08F00BFF8
:103AD00000F0B0FA002009B0BDE8F08F00F0AAFABB
:103AE000022009B0BDE8F08F2DE9F04F89B00678CB
:103AF00047788478059000F011FE00F09BFA4FF0B3
:103B0000020801254FF0100B08965FFA86FA47F677
:103B1000AA2607975FFA87F90694E4B20027C0F651
:103B2000000616E0502000903020019020200290E6
:103B30005020402100220023CDF80CB000F082FA82
:103B400006254FF0010800BFF8B20138052840F201
:103B50000781002000213246082301F0DFFF47F6ED
:103B60002D33002010210822C0F60003CDE900A962
:103B7000029401F04FFC47F6AA3200203021C0F633
:103B80000002082301F0CAFFFEF79CFC052819D0AB
:103B9000032809D0012818D1013D00F04BFA28066E
:103BA000C0D04FF0010810E00135EEB200F042FA4B
:103BB000072E47F6AA26C0F600064FF0020804D1E9
:103BC00020E000BF00F036FA2F46E8B201380528A1
:103BD000BAD8DFE800F003633B4F2577B8F1010F57
:103BE00010D10020CDE90000102010211022102358
:103BF000CDF808B0CDF80CB000F024FA4FF0010871
:103C00000CE000BF0020002110220023CDE90000BD
:103C1000CDF808B0CDF80CB000F014FA012593E708
:103C2000B8F1010F62D13020019020200290502085
:103C3000302120221023CDF800B0CDF80CB000F0D8
:103C400001FA05254FF001087EE700BF3020B8F1EA
:103C5000010F5BD1CDE9000B502010211022102361
:103C6000CDF808B0CDF80CB000F0ECF903254FF01A
:103C7000010869E75020B8F1010F55D1CDE9000BDB
:103C80001020302120221023CDF808B0CDF80CB040
:103C900000F0D8F904254FF0010855E7B8F1010FFD
:103CA00050D13020102110221023CDE900BBCDF8D7
:103CB00008B0CDF80CB000F0C5F902254FF00108AE
:103CC00042E700BFB8F1010F3FF42CAF5020009045
:103CD000302001902020029010203021202210233B
:103CE000CDF80CB000F0AEF906252DE7302001909C
:103CF000202002905020102110221023CDF800B077
:103D0000CDF80CB000F09EF905251DE7CDE9000BBC
:103D10001020102110221023CDF808B0CDF80CB0DF
:103D200000F090F903250FE7CDE9000B30201021BA
:103D300010221023CDF808B0CDF80CB000F082F9B5
:103D4000042501E70020002110221023CDE900BB4B
:103D5000CDF808B0CDF80CB000F074F90225F3E608
:103D6000DFE810F0540106005E00C40046015C016B
:103D7000002000213246082301F0D0FE47F62D3303
:103D8000002010210822C0F60003CDE900A902940A
:103D900001F040FB47F6AA3200203021C0F60002B5
:103DA000082301F0BBFE10201F211F221F2300F05B
:103DB000BFFC01F0A3FFDDE9077600BFFEF782FB41
:103DC000052800F0F980032808D00128F6D1300634
:103DD000A6F1010008BF172006E000BFF0B21728C7
:103DE0004FF0000038BF701C0646C0B247F62D33B6
:103DF000CDE90009002010210822C0F6000302943A
:103E000001F008FB10201F211F221F2300F090FC4F
:103E1000002010218022102301F0E6FFCEE700BF32
:103E2000002000213246082301F078FE47F62D33AA
:103E3000002010210822C0F60003CDE900A9029459
:103E400001F0E8FA47F6AA3200203021C0F600025D
:103E5000082301F063FE30201F213F221F2300F0C2
:103E600067FC01F04BFFDDE9077600BFFEF72AFB98
:103E700005282BD0032807D00128F7D13806A7F151
:103E8000010008BF3B2005E0F8B23B284FF00000DE
:103E900038BF781C0746C0B247F62D33CDE900A0E5
:103EA000002010210822C0F60003029401F0B2FAAB
:103EB00030201F213F221F2300F03AFC0020102158
:103EC0008022102301F090FFD0E700BFF8B247F640
:103ED0002D33CDE900A0002010210822C0F60003F8
:103EE000029401F097FA302074E000BF0020002116
:103EF0003246082301F012FE47F62D330020102130
:103F00000822C0F60003CDE900A9029401F082FA6C
:103F100047F6AA3200203021C0F60002082301F043
:103F2000FDFD50201F215F221F2300F001FC01F046
:103F3000E5FE069CFEF7C6FA05282BD0032807D01D
:103F40000128F7D12006A4F1010008BF3B2005E0BD
:103F5000E0B23B284FF0000038BF601C47F62D331D
:103F60000446C7B2002010210822C0F60003CDE9A4
:103F700000A9029701F04EFA50201F215F221F2353
:103F800000F0D6FB002010218022102301F02CFF2E
:103F9000D0E700BF47F62D33E7B2002010210822FA
:103FA000C0F60003CDE900A9029701F033FADDE97C
:103FB000077650200FE000BFF0B247F62D33CDE971
:103FC0000009002010210822C0F60003029401F02D
:103FD00021FA1020069C10211022102301F02EFA45
:103FE000002010218022102301F0FEFE8CE500BF8E
:103FF000059808990124017007994170069981700C
:1040000000F018F8204609B0BDE8F08F002400F059
:1040100011F8204609B0BDE8F08F00BF022400F07F
:1040200009F8204609B0BDE8F08F0000FCF73CFF1E
:10403000FEE7000040F26C00C2F2000000210170B7
:10404000704700002DE9F04F8DB093469846002B45
:1040500081466FD0BBF1000F0E4608EB010A57D026
:1040600040F2700E0BEB09004FF0010CC2F2000E93
:10407000354603E0013635B2AA455BDDB2B2402ACF
:104080004F4609D206F007020CFA02F4EA080EEBDA
:10409000C2154A464F4615E07A1C12B29042E9DD3D
:1040A000BA1C12B29042E5DDFA1C12B29042E1DD78
:1040B00004373AB29042EFDCDCE700BF04373AB293
:1040C0009042D7DDBBB27F2B02D8AB5C6340AB54D0
:1040D0007B1C1AB29042CDDD9BB27F2B02D8AB5C29
:1040E0006340AB54BB1C1AB29042C3DD9BB27F2B22
:1040F00002D8AB5C6340AB54FB1C1AB29042B9DDF2
:104100009BB27F2BDAD8AB5C6340AB54D6E700BFE1
:10411000304600BF421C12B292450BDD821C12B227
:10412000924507DDC21C12B2924503DD043002B293
:104130009245EFDC40F26C00C2F20000007818B14A
:104140000DB0BDE8F08F00BFDDE916760B46DDE966
:1041500018107D1E0895751E424607954D1E0137A5
:1041600040F270080695451E0497771C0131013016
:10417000C2F20008059503970291019009E000BF83
:10418000DDE90B3240F26C00C2F20000007800283A
:10419000D6D116985FFA89FE70450DD81799D8B216
:1041A000814209D818995FFA8BF0814204D8199995
:1041B000D0B2814240F24681D0B20A900028D8B2F3
:1041C0000C920B93099073D0DDE909215FFA8BF013
:1041D000002802EB010A59D00EEB0006144603E05A
:1041E000013214B2A24563DD90B24028704607D276
:1041F00002F0070001218140E4087746704615E08F
:10420000411C09B28E42EBDD811C09B28E42E7DD12
:10421000C11C09B28E42E3DD043001B28E42EFDCF4
:10422000DEE700BF043007B2BE42D9DD83B27F2B88
:1042300006D808EBC41313F807C08CEA0105DD5556
:10424000431C1FB2BE42CBDD9BB27F2B04D808EBD0
:10425000C413DD5D4D40DD55831C1FB2BE42BFDD82
:104260009BB27F2B04D808EBC413DD5D4D40DD55B8
:10427000C31C1FB2BE42B3DD9BB27F2BD2D808EB6A
:10428000C413DD5D4D40DD55CCE700BF104600BFD7
:10429000411C09B28A450BDD811C09B28A4507DD44
:1042A000C11C09B28A4503DD043001B28A45EFDC46
:1042B000169E179DA6EB09007645C0B288BF09EB94
:1042C000500909990B9A8D42A5EB0201189FC9B2BA
:1042D00088BF02EB5102A7EB0B015FFA8BF0C9B26A
:1042E000874288BF0BEB510B0C99199B0A9C581AFB
:1042F000C0B2A34288BF01EB5001089C5FFA89F06D
:10430000844208BFB146079ED0B2864208BF2A4603
:10431000069E5FFA8BF0864208BFBB46059FC8B277
:10432000874208BF19465FFA81FE5FFA89FABEF13B
:10433000000F5FFA82FC0C910B926BD05FFA8BF14D
:1043400000290CEB0E0053D051446546624603E051
:10435000013215B2A8425DDD93B2402B53460BD219
:1043600002F00703012707FA03F3EF0808EBC7156C
:104370005746544616E000BF5F1C3FB2B942E7DD26
:104380009F1C3FB2B942E3DDDF1C3FB2B942DFDD23
:1043900004331FB2B942EFDCDAE700BF043427B2BE
:1043A000B942D5DDA6B27F2E02D8EE5D5E40EE5555
:1043B000661C37B2B942CBDDB6B27F2E02D8EE5DB5
:1043C0005E40EE55A61C37B2B942C1DDB6B27F2EB3
:1043D00002D8EE5D5E40EE55E61C37B2B942B7DD5D
:1043E000B6B27F2EDAD8EE5D5E40EE55D6E700BF5E
:1043F000614600BF4A1C12B290420BDD8A1C12B209
:10440000904207DDCA1C12B2904203DD04310AB2A9
:104410009042EFDC6446754601F070FC19988542C5
:104420000ED118995FFA8BF0884209D11798DDE90F
:104430000B32844206D11698824503D164E100BF55
:10444000DDE90B3216985FFA89FE86450DD817987C
:10445000D9B2814209D818985FFA8BF1814204D809
:104460001998D1B281427FF68DAED0B20A90002861
:10447000D8B20C920B93099076D0DDE909205FFA4F
:104480008BF1002902EB000A5CD00EEB010614460A
:1044900004E000BF013214B2A24565DD91B24029AB
:1044A000714609D202F00701012000FA01F1E40887
:1044B0007746754616E000BF481C00B28642E9DD2B
:1044C000881C00B28642E5DDC81C00B28642E1DDF0
:1044D000043108B28642EFDCDCE700BF04352FB2BE
:1044E000BE42D7DDABB27F2B06D808EBC41313F85E
:1044F00007C08CEA0100D8556B1C1FB2BE42C9DD53
:1045000098B27F2804D808EBC410C35D4B40C35554
:10451000AB1C1FB2BE42BDDD98B27F2804D808EBA9
:10452000C410C35D4B40C355EB1C1FB2BE42B1DD8E
:1045300098B27F28D2D808EBC410C35D4B40C35556
:10454000CCE700BF114600BF481C00B282450BDD1E
:10455000881C00B2824507DDC81C00B2824503DD1D
:10456000043108B28245EFDC169E179DA9EB0600C8
:10457000B645C0B288BFA9EB500909990B9AA94268
:10458000A2EB0501189FC9B288BFA2EB5102ABEBA9
:1045900007015FFA8BF0C9B2B84288BFABEB510B91
:1045A0000C99199B0A9CC81AC0B29C4288BFA1EB07
:1045B0005001049C5FFA89F0844208BFB146039E13
:1045C000D0B2864208BF2A46029E5FFA8BF086422E
:1045D00008BFBB46019FC8B2874208BF1946C8B290
:1045E0005FFA89FA00285FFA82FE0C910A900B921A
:1045F00072D00A985FFA8BF100290EEB000C59D0AB
:1046000051447746724603E0013217B2BC4563DD80
:1046100093B2402B534609D202F00703012000FA5F
:1046200003F3FE085746544616E000BF581C00B27C
:104630008142E9DD981C00B28142E5DDD81C00B260
:104640008142E1DD043318B28142EFDCDCE700BFD8
:10465000043427B2B942D7DDA5B27F2D04D808EBC8
:10466000C615E85D5840E855651C2FB2B942CBDD50
:10467000A8B27F2804D808EBC610C55D5D40C555BB
:10468000A51C2FB2B942BFDDA8B27F2804D808EB21
:10469000C610C55D5D40C555E51C2FB2B942B3DDFE
:1046A000A8B27F28D4D808EBC610C55D5D40C555BB
:1046B000CEE700BF714600BF481C00B284450BDD49
:1046C000881C00B2844507DDC81C00B2844503DDA8
:1046D000043108B28445EFDC744601F00FFB1998F1
:1046E0000A9981427FF44CAD18995FFA8BF08842A9
:1046F0007FF446AD1798DDE90B3284427FF442AD7A
:10470000169882457FF43EAD40F26C010120C2F262
:10471000000108700DB0BDE8F08F000080B540F2D8
:104720007000C2F200004FF48061FBF702FD80BD13
:104730002DE9F04F83B0994244D190421346B8BF5F
:104740000346C8BF0246402964D28FB201F0070079
:10475000012101FA00F0F90840F27007C2F20007E7
:1047600007EBC11112B204E004331BB2934200F311
:1047700020839FB27F2F02D8CE5D0643CE555F1CAB
:104780003EB2964200F31583BFB27F2F02D8CE5DB2
:104790000643CE559F1C3EB2964200F30A83BFB239
:1047A0007F2F02D8CE5D0643CE55DF1C3EB2964227
:1047B00000F3FF82BFB27F2FD6D8CE5D0643CE5521
:1047C000D2E700BF90423BD199421A46B8BF0A4691
:1047D000C8BF0B46802837D240F270064FF6F87CEF
:1047E0000127C2F200061BB205E000BF511C0AB24D
:1047F0009A4200F3DE8295B23F2DF7D802EA0C050B
:1048000006EB051502F00704295C07FA04F42143BE
:104810002954EBE710B200BF591C09B2814200F3E2
:10482000C882991C09B2814200F3C382D91C09B223
:10483000814200F3BE82191D0BB28342ECDDB8E267
:1048400018DD90469C4619E018B200BF511C09B211
:10485000814200F3AE82911C09B2814200F3A98229
:10486000D11C09B2814200F3A482111D0AB2824216
:10487000ECDD9EE280468C46104619468C454FF092
:10488000000A67460D46C8BF4FF0010ACCF1000987
:104890004B428C45C4BF4F461D462AB23CB200264F
:1048A000121BB8F1800F4FF00004A0EB080B38BFCB
:1048B0000124BCF1400F38BF012626405A45A5EB24
:1048C0000705009210DD4FEA4B0002908C45D8BFDF
:1048D0000B46ABEB050EC5EB4B051846D8BFE146C2
:1048E00043467EB9434622E06A0002928C45D8BF17
:1048F000E146A5EB0B0ECBEB45054FF0000A4B460E
:10490000C1469EB14FF6F87640F2700206EA0C06F8
:10491000C2F2000202EB06120CF00707012412F8A3
:104920000860BC40344302F8084000E0C1460FFA7A
:1049300089F207B29742019740F33B82009CA0EBBB
:1049400009026FEA09064FEA4E0E00EB0608BAF1BB
:10495000000F02F003005FD000284FF6BF7C00F08C
:1049600023822AB2B2F1FF3F029E1FFA89F1C8BF2B
:104970007646B2F1FF3FC8BF0133614506EB050142
:1049800016D99DB27F2D13D84FF6F87240F27007FA
:1049900022EA0902C2F20007072607EB021226EA02
:1049A00009064FF0010A575D0AFA06F63E435655CE
:1049B00009F1010701280DB200F0F781B5F1FF3FC1
:1049C0000299C8BF7146B5F1FF3FBAB2C8BF013303
:1049D0006245294417D99DB27F2D14D8ACEB09024A
:1049E0003F324FF6F87640F270071640C2F20007E9
:1049F00007EB061602F007024FF0010A775D0AFA8C
:104A000002F23A43725509F1020602280DB240F053
:104A100041833746C9E100BF8C4540F3E58000285B
:104A200052D02AB209F10101B2F1FF3F029F8EB2CA
:104A3000C8BF7746B2F1FF3FC8BF01337F2E3D4468
:104A400015D85F42BAB23F2A11D84FF6F87240F239
:104A500070043A40C2F2000404EB021207F00707A8
:104A60004FF0010C945D0CFA07F727439755012886
:104A70002DB228D009F10201B5F1FF3F029A8EB2A2
:104A8000C8BF7246B5F1FF3FC8BF01337F2E154442
:104A900015D85F42BAB23F2A11D84FF6F87240F2E9
:104AA00070043A40C2F2000404EB021207F0070758
:104AB0004FF0010C945D0CFA07F727439755022835
:104AC0002DB240F00F8389461FFA88F00328C0F00A
:104AD000708140F270064FF6F87C4FF00108C2F288
:104AE000000606E001990FFA89F088423D4480F201
:104AF000608109F1010029B287B2B1F1FF3F02984C
:104B0000C8BF7046B1F1FF3FC8BF01337F2F0ED839
:104B100059428CB23F2C0AD801EA0C0406EB04146B
:104B200001F00701E25D08FA01F11143E155284463
:104B300005B209F10200B5F1FF3F029F80B2C8BF84
:104B40007746B5F1FF3FC8BF01337F280ED85942E1
:104B50008AB23F2A0AD801EA0C0206EB021201F0DF
:104B60000701145C08FA01F121431154781905B2C8
:104B700009F10300B5F1FF3F029F80B2C8BF77463D
:104B8000B5F1FF3FC8BF01337F280ED859428AB222
:104B90003F2A0AD801EA0C0206EB021201F00701D3
:104BA000145C08FA01F121431154781905B209F196
:104BB00004091FFA89F0B5F1FF3F029FC4BF774691
:104BC00001337F288ED859428AB23F2A8AD801EA17
:104BD0000C0206EB021201F00701145C08FA01F165
:104BE000214311547EE700BF5C4540F373810028E8
:104BF00050D02AB2B2F1FF3F029FC8BF7746B2F150
:104C0000FF3FC8BF01339EB209F101017F2E3D4431
:104C100014D88AB23F2A11D84FF6F87240F27004C5
:104C20000A40C2F2000404EB021201F007074FF041
:104C3000010C945D0CFA07F72743975501282DB214
:104C400027D0B5F1FF3F0299C8BF71464E19B5F1A3
:104C5000FF3FC8BF01339DB27F2D09F1020114D877
:104C60008AB23F2A11D84FF6F87240F270040A4017
:104C7000C2F2000404EB021201F007074FF0010C2E
:104C8000545D0CFA07F727435755022835B240F018
:104C90004F8289461FFA88F00328C0F08A8040F2CC
:104CA00070064FF6F87C4FF00108C2F2000605E0EE
:104CB00001990FFA89F088423D447ADA28B2B0F1BE
:104CC000FF3F029FC8BF7746B0F1FF3FC8BF013327
:104CD00098B27F280FD809F101018CB23F2C0AD875
:104CE00001EA0C0406EB041401F00701225C08FA47
:104CF00001F111432154781905B2B5F1FF3F029F2C
:104D0000C8BF7746B5F1FF3FC8BF013398B27F28CF
:104D10000FD809F102018AB23F2A0AD801EA0C022F
:104D200006EB021201F00701145C08FA01F12143BD
:104D30001154781905B2B5F1FF3F029FC8BF7746FD
:104D4000B5F1FF3FC8BF013398B27F280FD809F1F2
:104D500003018AB23F2A0AD801EA0C0206EB0212CA
:104D600001F00701145C08FA01F12143115478198C
:104D700005B2029FB5F1FF3FC4BF7746013398B239
:104D80007F2809F1040993D81FFA89F13F298FD8A8
:104D900009EA0C0106EB011109F007020C5C08FAA4
:104DA00002F222430A5483E74F461FFA88F0032891
:104DB00002D203B0BDE8F08F40F2700B4FF6F87AE4
:104DC0004FF00109C2F2000B06E000BF381D07B228
:104DD00001980D448742ECDA28B2B0F1FF3F029906
:104DE000C8BF7146B0F1FF3FB8B2C8BF01336045DC
:104DF0000FD998B27F280CD82AEA070607220BEBB6
:104E00000616BA4316F8008009FA02F242EA0802CE
:104E10003254481901B2B1F1FF3F029D07F1410040
:104E2000C8BF7546B1F1FF3F80B2C8BF01333F280C
:104E300010D898B27F280DD8ACEB07023F3202EAB7
:104E40000A060BEB061602F00702345C09FA02F2BE
:104E500022433254681801B2B1F1FF3F029D07F1BD
:104E60004200C8BF7546B1F1FF3F80B2C8BF0133F1
:104E70003F2810D898B27F280DD8ACEB07023E32FD
:104E800002EA0A040BEB041402F00702265C09FA9A
:104E900002F232432254681805B207F14300B5F11B
:104EA000FF3F029980B2C4BF714601333F288DD8BD
:104EB00098B27F288AD8ACEB07023D3202EA0A0496
:104EC0000BEB041402F00702265C09FA02F23243EB
:104ED00022547BE7002850D02AB209F10101B2F137
:104EE000FF3F029F8EB2C8BF7746B2F1FF3FC8BFF7
:104EF00001337F2E3D4414D89AB23F2A11D84FF681
:104F0000F87240F270041A40C2F2000404EB02127C
:104F100003F007074FF0010C945D0CFA07F72743E5
:104F2000975501282DB227D009F10201B5F1FF3FB5
:104F3000029A8EB2C8BF7246B5F1FF3FC8BF0133B7
:104F40007F2E154414D89AB23F2A11D84FF6F87222
:104F500040F270041A40C2F2000404EB021203F0A3
:104F600007074FF0010C945D0CFA07F7274397559C
:104F700002282DB240F0028189461FFA88F00328EA
:104F8000FFF417AF40F270064FF6F87C4FF00108BF
:104F9000C2F2000607E000BF01990FFA89F08842CB
:104FA0003D44BFF606AF09F101002CB287B2B4F15F
:104FB000FF3F0298C8BF7046B4F1FF3FC8BF01333E
:104FC0007F2F0DD89CB23F2C0AD803EA0C0406EBC5
:104FD000041403F00702E15D08FA02F21143E155FF
:104FE000284405B209F10200B5F1FF3F029F80B2EB
:104FF000C8BF7746B5F1FF3FC8BF01337F280DD842
:1050000099B23F290AD803EA0C0106EB011103F01B
:1050100007020C5C08FA02F222430A54781905B21E
:1050200009F10300B5F1FF3F029F80B2C8BF774688
:10503000B5F1FF3FC8BF01337F280DD899B23F2992
:105040000AD803EA0C0106EB011103F007020C5C1D
:1050500008FA02F222430A54781905B209F1040948
:105060001FFA89F0B5F1FF3F029FC4BF77460133B5
:105070007F2891D899B23F298ED803EA0C0106EB1C
:10508000011103F007020C5C08FA02F222430A54F1
:1050900082E700BFB5F1FF3F0298B1B209F1030703
:1050A000C4BF70460133614505447FF67EAE98B2B9
:1050B0007F283FF67AAEACEB09013E314FF6F8722D
:1050C00040F270060A40C2F2000606EB021201F03E
:1050D00007014FF00109165C09FA01F1314311543F
:1050E00063E600BF09F103091FFA89F0B5F1FF3F3C
:1050F0000299C4BF714601337F280D443FF6E4ACEA
:1051000059428AB23F2A3FF6DFAC4FF6F87240F2BE
:1051100070060A40C2F2000606EB021201F0070117
:105120000127165C07FA01F131431154CCE400BFAA
:105130000298B5F1FF3FC8BF70460544C8BF0133B0
:1051400098B27F2809F103093FF6A4AD1FFA89F14F
:105150003F293FF69FAD4FF6F87140F2700601EA25
:105160000901C2F2000606EB011109F0070201274E
:105170000E5C07FA02F232430A548BE509F1030987
:105180001FFA89F0B5F1FF3F0299C4BF71460133A0
:105190007F280D443FF6F1AE99B23F293FF6EDAEC0
:1051A0004FF6F87140F270061940C2F2000606EBA5
:1051B000011103F0070201270E5C07FA02F23243E5
:1051C0000A54DAE6B0B540F60044C4F201040546DC
:1051D000C20920464FF40051FBF792FB20464FF4E2
:1051E00080510122FBF78CFB20464FF480510022B6
:1051F000FBF786FBC5F3801220464FF40051FBF706
:105200007FFB20464FF480510122FBF779FB2046BB
:105210004FF480510022FBF773FBC5F34012204688
:105220004FF40051FBF76CFB20464FF480510122F4
:10523000FBF766FB20464FF480510022FBF760FB32
:10524000C5F3001220464FF40051FBF759FB2046EE
:105250004FF480510122FBF753FB20464FF480515D
:105260000022FBF74DFBC5F3C00220464FF400516E
:10527000FBF746FB20464FF480510122FBF740FB31
:1052800020464FF480510022FBF73AFBC5F3800221
:1052900020464FF40051FBF733FB20464FF480517A
:1052A0000122FBF72DFB20464FF480510022FBF733
:1052B00027FBC5F3400220464FF40051FBF720FBCB
:1052C00020464FF480510122FBF71AFB20464FF491
:1052D00080510022FBF714FB05F0010220464FF439
:1052E0000051FBF70DFB20464FF480510122FBF7E4
:1052F00007FB20464FF480510022FBF701FB2046BC
:105300004FF480510122FBF7FBFA20464FF4805105
:105310000022BDE8B040FBF7F3BA000010B584B03E
:1053200041F21800C4F20200016840F6004441F066
:10533000080101600068C4F2010400F00800009058
:10534000009811200190032003904FF440500090EA
:1053500069462046FBF7C6F920464FF480510122EA
:10536000FBF7CEFA20464FF400510122FBF7C8FAB2
:10537000AE2000F091FDD52000F08EFD802000F0E1
:105380008BFDA82000F088FD3F2000F085FDD32094
:1053900000F082FD002000F07FFD402000F07CFD49
:1053A000A12000F079FDC82000F076FDDA2000F0A1
:1053B00073FD122000F070FD812000F06DFDCF2004
:1053C00000F06AFDD92000F067FDF12000F064FDD7
:1053D000DB2000F061FD302000F05EFDA42000F035
:1053E0005BFDA62000F058FD8D2000F055FD142037
:1053F00000F052FDAF2000F04FFD40F27000C2F20D
:1054000000004FF48061FAF794FE00F077FC04B0DE
:1054100010BD0000F0B5C1B001AF14460D46064600
:1054200046AA38461946009200F0ECFF304629465D
:105430003A46234600F072FB41B0F0BD002B08BF96
:1054400070472DE9F041002A03EB010862D040F2D9
:10545000700E02444FF0010CC2F2000E0D4603E044
:1054600001310DB2A84559DD8BB2402B044609D25B
:1054700001F007030CFA03F4EB080EEBC315074623
:10548000064615E0631C1BB29A42E9DDA31C1BB261
:105490009A42E5DDE31C1BB29A42E1DD043423B2FB
:1054A0009A42EFDCDCE700BF043637B2BA42D7DD00
:1054B000B3B27F2B02D8EB5D6340EB55731C1FB278
:1054C000BA42CDDD9BB27F2B02D8EB5D6340EB553A
:1054D000B31C1FB2BA42C3DD9BB27F2B02D8EB5D77
:1054E0006340EB55F31C1FB2BA42B9DD9BB27F2B70
:1054F000DAD8EB5D6340EB55D6E700BF881C00B2FD
:1055000080450BDDC81C00B2804507DD043108B2C0
:10551000804503DD481C00B28045EFDCBDE8F0416A
:10552000704700002DE9F04F8BB0002B03920A90DA
:105530007AD0039803EB0108002863D00A9A40F25E
:10554000700E86184FF0010CC2F2000E0C46894610
:1055500006E000BF09F101090FFA89F4A04563DDF7
:105560001FFA89F2402A0A9A0CD209F007020A9D12
:105570000CFA02F2E4086FEA020A0EEBC4172A469C
:1055800016E000BF541C24B2A642E3DD941C24B2F2
:10559000A642DFDDD41C24B2A642DBDD043214B205
:1055A000A642EFDCD6E700BF04352AB29642D1DD31
:1055B000ACB27F2C03D8BC5C04EA0A04BC546C1C5B
:1055C00022B29642C6DDA4B27F2C03D8BC5C04EAAA
:1055D0000A04BC54AC1C22B29642BBDDA4B27F2CA0
:1055E00003D8BC5C04EA0A04BC54EC1C22B2964208
:1055F000B0DDA4B27F2CD7D8BC5C04EA0A04BC544A
:10560000D2E700BF0A4600BF571C3FB2B8450BDDCA
:10561000971C3FB2B84507DDD71C3FB2B84503DD44
:10562000043217B2B845EFDC5A1EDDF80C8002EBED
:105630005272B8F1000F4FEAE20700F0578201EB17
:105640005172D31003EBE130049008F0030022F014
:105650000702082307900A988A1A03EA11310A44BC
:10566000411C0191811C009140F27001C2F20001C5
:105670001FFA82F9C2F1080201441FFA82FA08F007
:10568000FC0C0291002200210597CDF824C00CE00B
:1056900017783B43137000BF0899059F0131CAB2C8
:1056A000DDF824C09742C0F236820891CBB214993B
:1056B00008FB031B049B02FB08119E18082E06F131
:1056C000010206917CD2082A80F0CC80B8F1040F48
:1056D00080F00E814FF0000C0799DDF80C80002956
:1056E000DAD00CEB00037F2B1BD8069940F2700E2A
:1056F000C2F2000E14460A4611F80C7031460EEB49
:10570000C616F55C07FA09F72F43F75412F80C7028
:105710000EEBC416F55C27FA0AF72F432246F7541E
:105720000E4607990129B7D001990CEB01037F2B95
:1057300021D8069840F2700B0CF10107C2F2000B61
:1057400010F807E00BEBC61515F8038031460EFA8A
:1057500009F646EA080614460246EE54D75D0BEBFE
:10576000C416F55C27FA0AF70A98DDF80C802F4377
:105770002246F7540E46079902298DD000990CEB6A
:1057800001077F2F88D8069840F270010CF10203C0
:10579000C2F2000110F803C001EBC61515F807E0CE
:1057A0000CFA09F646EA0E0614460246EE55D35C9C
:1057B0000A9801EBC41223FA0AF33A4468E700BFDF
:1057C000072A3FF669AF9446B8F1040F80F00481D0
:1057D0000025079900293FF45FAF2B1862467F2B05
:1057E00010D8069810F805C040F27000C2F2000010
:1057F00000EBC21616F803E02CFA0AF70A9847EAFB
:105800000E07F754079901293FF446AF01996B1829
:105810007F2B11D806986F1C10F807C040F270005B
:10582000C2F2000000EBC21616F803E02CFA0AF7E9
:105830000A9847EA0E07F754079902293FF42CAF5C
:1058400000996F187F2F3FF627AF0699AB1CCB5CF2
:1058500040F27001C2F2000101EBC21223FA0AF316
:105860003A4415E7B8F1040F80F00481B6460025EC
:10587000079900293FF410AF2A187F2A0CD80699FF
:105880004B5D40F27001C2F2000101EBCE17BE5C2D
:1058900003FA09F33343BB54079901293FF4FCAEE3
:1058A00001996A187F2A0DD806996B1CCB5C40F2CF
:1058B0007001C2F2000101EBCE17BE5C03FA09F3DE
:1058C0003343BB54079902293FF4E6AE00996A18A6
:1058D0007F2A3FF6E1AE0699AB1CCB5C40F270012B
:1058E000C2F2000101EBCE1703FA09F33A44CFE606
:1058F00002994FF0000C01EBC61506E009980CF177
:10590000040C60450A983FF4E7AE00EB0C037F2BD4
:1059100005EB0C0E0CD9591C7F290BEB0C081ED97A
:10592000991C7F2930D9D91C7F29E7D841E000BFD5
:105930001BF80C1015F80C4001FA09F1214305F889
:105940000C101BF80C109EF8804021FA0AF121433C
:105950008EF88010591C7F290BEB0C08E0D898F8C2
:1059600001109EF8014001FA09F121438EF801105F
:1059700098F801109EF8814021FA0AF121438EF82F
:105980008110991C7F29CED898F802109EF8024009
:1059900001FA09F121438EF8021098F802109EF8DE
:1059A000824021FA0AF121438EF88210D91C7F2906
:1059B000A4D898F803109EF8033001FA09F11943AE
:1059C0008EF8031098F803109EF8833021FA0AF13C
:1059D00019438EF8831091E70299099A01EBC613D7
:1059E000002503E00435AA423FF4F3AE47197F2FA8
:1059F0000AD9791C7F2914D9B91C7F291FD9F91C10
:105A00007F29EFD829E000BF1BF805105E1996F832
:105A1000804021FA0AF1214386F88010791C7F2901
:105A2000EAD80BEB050149785E1996F8814021FA16
:105A30000AF1214386F88110B91C7F29DFD80BEBCE
:105A4000050189785E1996F8824021FA0AF121430E
:105A500086F88210F91C7F29C4D80BEB0501C978A0
:105A60005F1997F8836021FA0AF1314387F88310B0
:105A7000B8E700BF0299B64601EBC613002503E064
:105A80000435AC453FF4F4AE42197F2A06D81BF822
:105A900005705E5D07FA09F737435F55571C7F2F86
:105AA0000BEB050603EB050706D9911C7F290CD9E2
:105AB000D11C7F29E4D811E071787C7801FA09F1D2
:105AC00021437970911C7F29F2D8B178BC7801FA12
:105AD00009F12143B970D11C7F29D1D8F178FA7826
